{"contracts/DocumentStore.sol":{"DocumentStore":{"abi":[{"anonymous":false,"inputs":[{"indexed":true,"internalType":"address","name":"thisContract","type":"address"},{"indexed":false,"internalType":"uint256","name":"time","type":"uint256"}],"name":"ContractExpired","type":"event"},{"anonymous":false,"inputs":[{"indexed":false,"internalType":"string","name":"_name","type":"string"},{"indexed":false,"internalType":"string","name":"_email","type":"string"},{"indexed":false,"internalType":"string","name":"_legalReference","type":"string"},{"indexed":false,"internalType":"string","name":"_intentDeclaration","type":"string"},{"indexed":false,"internalType":"string","name":"_host","type":"string"},{"indexed":false,"internalType":"uint256","name":"_time","type":"uint256"}],"name":"ContractInfoChanged","type":"event"},{"anonymous":false,"inputs":[{"indexed":true,"internalType":"bytes32","name":"document","type":"bytes32"}],"name":"DocumentIssued","type":"event"},{"anonymous":false,"inputs":[{"indexed":true,"internalType":"bytes32","name":"document","type":"bytes32"}],"name":"DocumentRevoked","type":"event"},{"anonymous":false,"inputs":[{"indexed":false,"internalType":"uint8","name":"version","type":"uint8"}],"name":"Initialized","type":"event"},{"anonymous":false,"inputs":[{"indexed":true,"internalType":"address","name":"previousOwner","type":"address"},{"indexed":true,"internalType":"address","name":"newOwner","type":"address"}],"name":"OwnershipTransferred","type":"event"},{"anonymous":false,"inputs":[{"indexed":true,"internalType":"address","name":"documentStore","type":"address"},{"indexed":false,"internalType":"address[]","name":"currentPublishers","type":"address[]"}],"name":"PublisherChanged","type":"event"},{"inputs":[{"internalType":"address[]","name":"_newPublishers","type":"address[]"}],"name":"addPublishers","outputs":[],"stateMutability":"nonpayable","type":"function"},{"inputs":[{"internalType":"bytes32[]","name":"documents","type":"bytes32[]"},{"internalType":"uint256[]","name":"_expiredTime","type":"uint256[]"}],"name":"bulkIssue","outputs":[],"stateMutability":"nonpayable","type":"function"},{"inputs":[{"internalType":"bytes32[]","name":"documents","type":"bytes32[]"}],"name":"bulkRevoke","outputs":[],"stateMutability":"nonpayable","type":"function"},{"inputs":[{"internalType":"bytes32","name":"","type":"bytes32"}],"name":"documentExpiration","outputs":[{"internalType":"uint256","name":"","type":"uint256"}],"stateMutability":"view","type":"function"},{"inputs":[{"internalType":"bytes32","name":"","type":"bytes32"}],"name":"documentIssued","outputs":[{"internalType":"uint256","name":"","type":"uint256"}],"stateMutability":"view","type":"function"},{"inputs":[{"internalType":"bytes32","name":"","type":"bytes32"}],"name":"documentPublisher","outputs":[{"internalType":"address","name":"","type":"address"}],"stateMutability":"view","type":"function"},{"inputs":[{"internalType":"bytes32","name":"","type":"bytes32"}],"name":"documentRevoked","outputs":[{"internalType":"uint256","name":"","type":"uint256"}],"stateMutability":"view","type":"function"},{"inputs":[],"name":"email","outputs":[{"internalType":"string","name":"","type":"string"}],"stateMutability":"view","type":"function"},{"inputs":[],"name":"expiredTime","outputs":[{"internalType":"uint256","name":"","type":"uint256"}],"stateMutability":"view","type":"function"},{"inputs":[],"name":"getEmail","outputs":[{"internalType":"string","name":"","type":"string"}],"stateMutability":"view","type":"function"},{"inputs":[{"internalType":"bytes32","name":"document","type":"bytes32"}],"name":"getExpirationDate","outputs":[{"internalType":"uint256","name":"","type":"uint256"}],"stateMutability":"view","type":"function"},{"inputs":[],"name":"getExpiredTime","outputs":[{"internalType":"uint256","name":"","type":"uint256"}],"stateMutability":"view","type":"function"},{"inputs":[],"name":"getHost","outputs":[{"internalType":"string","name":"","type":"string"}],"stateMutability":"view","type":"function"},{"inputs":[],"name":"getIntentDeclaration","outputs":[{"internalType":"string","name":"","type":"string"}],"stateMutability":"view","type":"function"},{"inputs":[{"internalType":"bytes32","name":"document","type":"bytes32"}],"name":"getIssuedBlock","outputs":[{"internalType":"uint256","name":"","type":"uint256"}],"stateMutability":"view","type":"function"},{"inputs":[],"name":"getLegalReference","outputs":[{"internalType":"string","name":"","type":"string"}],"stateMutability":"view","type":"function"},{"inputs":[],"name":"getName","outputs":[{"internalType":"string","name":"","type":"string"}],"stateMutability":"view","type":"function"},{"inputs":[],"name":"getPublishers","outputs":[{"internalType":"address[]","name":"","type":"address[]"}],"stateMutability":"view","type":"function"},{"inputs":[],"name":"host","outputs":[{"internalType":"string","name":"","type":"string"}],"stateMutability":"view","type":"function"},{"inputs":[{"internalType":"string","name":"_name","type":"string"},{"internalType":"string","name":"_email","type":"string"},{"internalType":"string","name":"_legalReference","type":"string"},{"internalType":"string","name":"_intentDeclaration","type":"string"},{"internalType":"string","name":"_host","type":"string"},{"internalType":"uint256","name":"_time","type":"uint256"},{"internalType":"address","name":"_owner","type":"address"},{"internalType":"address","name":"_ownerManager","type":"address"}],"name":"initialize","outputs":[],"stateMutability":"nonpayable","type":"function"},{"inputs":[],"name":"intentDeclaration","outputs":[{"internalType":"string","name":"","type":"string"}],"stateMutability":"view","type":"function"},{"inputs":[{"internalType":"bytes32","name":"document","type":"bytes32"}],"name":"isExpired","outputs":[{"internalType":"bool","name":"","type":"bool"}],"stateMutability":"view","type":"function"},{"inputs":[{"internalType":"bytes32","name":"document","type":"bytes32"}],"name":"isIssued","outputs":[{"internalType":"bool","name":"","type":"bool"}],"stateMutability":"view","type":"function"},{"inputs":[{"internalType":"bytes32","name":"document","type":"bytes32"},{"internalType":"uint256","name":"blockNumber","type":"uint256"}],"name":"isIssuedBefore","outputs":[{"internalType":"bool","name":"","type":"bool"}],"stateMutability":"view","type":"function"},{"inputs":[{"internalType":"bytes32","name":"document","type":"bytes32"}],"name":"isRevoked","outputs":[{"internalType":"bool","name":"","type":"bool"}],"stateMutability":"view","type":"function"},{"inputs":[{"internalType":"bytes32","name":"document","type":"bytes32"},{"internalType":"uint256","name":"blockNumber","type":"uint256"}],"name":"isRevokedBefore","outputs":[{"internalType":"bool","name":"","type":"bool"}],"stateMutability":"view","type":"function"},{"inputs":[{"internalType":"bytes32","name":"document","type":"bytes32"},{"internalType":"uint256","name":"_expiredTime","type":"uint256"}],"name":"issue","outputs":[],"stateMutability":"nonpayable","type":"function"},{"inputs":[],"name":"legalReference","outputs":[{"internalType":"string","name":"","type":"string"}],"stateMutability":"view","type":"function"},{"inputs":[],"name":"name","outputs":[{"internalType":"string","name":"","type":"string"}],"stateMutability":"view","type":"function"},{"inputs":[],"name":"owner","outputs":[{"internalType":"address","name":"","type":"address"}],"stateMutability":"view","type":"function"},{"inputs":[{"internalType":"address","name":"_address","type":"address"}],"name":"publisherCheck","outputs":[{"internalType":"bool","name":"","type":"bool"}],"stateMutability":"view","type":"function"},{"inputs":[{"internalType":"uint256","name":"","type":"uint256"}],"name":"publishers","outputs":[{"internalType":"address","name":"","type":"address"}],"stateMutability":"view","type":"function"},{"inputs":[],"name":"removeAllPublishers","outputs":[],"stateMutability":"nonpayable","type":"function"},{"inputs":[],"name":"renounceOwnership","outputs":[],"stateMutability":"nonpayable","type":"function"},{"inputs":[{"internalType":"bytes32","name":"document","type":"bytes32"}],"name":"revoke","outputs":[],"stateMutability":"nonpayable","type":"function"},{"inputs":[{"internalType":"string","name":"_email","type":"string"}],"name":"setEmail","outputs":[],"stateMutability":"nonpayable","type":"function"},{"inputs":[{"internalType":"uint256","name":"_time","type":"uint256"}],"name":"setExpiredTime","outputs":[],"stateMutability":"nonpayable","type":"function"},{"inputs":[{"internalType":"string","name":"_host","type":"string"}],"name":"setHost","outputs":[],"stateMutability":"nonpayable","type":"function"},{"inputs":[{"internalType":"string","name":"_intentDeclaration","type":"string"}],"name":"setIntentDeclaration","outputs":[],"stateMutability":"nonpayable","type":"function"},{"inputs":[{"internalType":"string","name":"_legalReference","type":"string"}],"name":"setLegalReference","outputs":[],"stateMutability":"nonpayable","type":"function"},{"inputs":[{"internalType":"string","name":"_name","type":"string"}],"name":"setName","outputs":[],"stateMutability":"nonpayable","type":"function"},{"inputs":[{"internalType":"bytes32","name":"a","type":"bytes32"}],"name":"testHashFunc","outputs":[{"internalType":"bytes32","name":"","type":"bytes32"}],"stateMutability":"pure","type":"function"},{"inputs":[{"internalType":"address","name":"newOwner","type":"address"}],"name":"transferOwnership","outputs":[],"stateMutability":"nonpayable","type":"function"},{"inputs":[{"internalType":"bytes32[]","name":"proof","type":"bytes32[]"},{"internalType":"bytes32","name":"root","type":"bytes32"},{"internalType":"bytes32","name":"leaf","type":"bytes32"}],"name":"verify","outputs":[{"internalType":"bool","name":"","type":"bool"}],"stateMutability":"view","type":"function"}],"evm":{"bytecode":{"linkReferences":{},"object":"608060405234801561001057600080fd5b50611f79806100206000396000f3fe608060405234801561001057600080fd5b50600436106102745760003560e01c8063715018a611610151578063b75c7dc6116100c3578063d5fb36c511610087578063d5fb36c514610560578063df8debed14610580578063eb5face714610593578063f2fde38b1461059b578063f437bc59146105ae578063ff060fbd146105b657600080fd5b8063b75c7dc614610501578063bf40b90414610514578063c47f002714610527578063d31a57d61461053a578063d5e9b3771461054d57600080fd5b80638da5cb5b116101155780638da5cb5b1461049b5780638e32e421146104ac5780639dd516a5146104b5578063a0f3a321146104c8578063a5ab89ff146104db578063a92abe37146104ee57600080fd5b8063715018a61461045b5780637d1feb6f146104635780637e79e8ba1461046b578063820e93f5146104735780638bc36c911461047b57600080fd5b80633d4a3eb0116101ea5780635e9057b5116101ae5780635e9057b5146103fd5780636ae08ffa146104105780636c6071aa146104185780636db2feb21461042d5780636df38d6714610440578063707c21ac1461045357600080fd5b80633d4a3eb01461038f5780634294857f146103a25780634ada8076146103c45780635a9a49c7146103d75780635a9e03ca146103ea57600080fd5b806320bc44251161023c57806320bc442514610324578063282b065a1461032c5780632dc974d81461034157806333358d2d14610354578063339b6b391461037457806338f186c21461038757600080fd5b806306fdde0314610279578063156e4b0214610297578063163aa631146102d857806316f5f7d41461030a57806317d7de7c1461031c575b600080fd5b6102816105c9565b60405161028e9190611c95565b60405180910390f35b6102c06102a5366004611988565b6070602052600090815260409020546001600160a01b031681565b6040516001600160a01b03909116815260200161028e565b6102fa6102e6366004611988565b6000908152606d6020526040902054151590565b604051901515815260200161028e565b606a545b60405190815260200161028e565b610281610657565b6102816106e9565b61033f61033a3660046119c3565b6106f8565b005b61033f61034f3660046119c3565b6107d1565b61030e610362366004611988565b606d6020526000908152604090205481565b6102fa6103823660046119a1565b61082d565b61028161085f565b61033f61039d3660046119c3565b61086e565b6102fa6103b0366004611988565b6000908152606e6020526040902054151590565b61033f6103d236600461183e565b6108ca565b6102fa6103e536600461193b565b61090e565b6102fa6103f83660046119a1565b6109c2565b61033f61040b3660046119f7565b6109f0565b610281610c30565b610420610c3d565b60405161028e9190611c04565b6102fa61043b366004611988565b610c9e565b6102fa61044e366004611785565b610d01565b610281610d6a565b61033f610d77565b61033f610d8b565b610281610e25565b610281610e34565b61030e610489366004611988565b606e6020526000908152604090205481565b6033546001600160a01b03166102c0565b61030e606a5481565b61033f6104c336600461187a565b610e41565b61030e6104d6366004611988565b610ea0565b61033f6104e93660046119c3565b610ee1565b61033f6104fc3660046119a1565b610f3d565b61033f61050f366004611988565b61105a565b61030e610522366004611988565b6110fc565b61033f6105353660046119c3565b61113d565b61033f6105483660046117a0565b611199565b61030e61055b366004611988565b6112cf565b61030e61056e366004611988565b606f6020526000908152604090205481565b61033f61058e366004611988565b611301565b6102816113b1565b61033f6105a9366004611785565b6113c0565b610281611439565b6102c06105c4366004611988565b611446565b606580546105d690611ea3565b80601f016020809104026020016040519081016040528092919081815260200182805461060290611ea3565b801561064f5780601f106106245761010080835404028352916020019161064f565b820191906000526020600020905b81548152906001019060200180831161063257829003601f168201915b505050505081565b60606065805461066690611ea3565b80601f016020809104026020016040519081016040528092919081815260200182805461069290611ea3565b80156106df5780601f106106b4576101008083540402835291602001916106df565b820191906000526020600020905b8154815290600101906020018083116106c257829003601f168201915b5050505050905090565b60606069805461066690611ea3565b610700611470565b42606a541161070e57600080fd5b80516107219060669060208401906115ef565b50606b546040516368c35c4b60e01b81526001600160a01b03909116906368c35c4b906107549030908590600401611be0565b600060405180830381600087803b15801561076e57600080fd5b505af1158015610782573d6000803e3d6000fd5b505050507f8f522cc919845bf58b76c472a942579ff9d850d67559315c54848c31e0fc251560656066606760686069606a546040516107c696959493929190611ca8565b60405180910390a150565b6107d9611470565b42606a54116107e757600080fd5b80516107fa9060679060208401906115ef565b50606b54604051636ac012d560e01b81526001600160a01b0390911690636ac012d5906107549030908590600401611be0565b6000828152606e6020526040812054821080159061085857506000838152606e602052604090205415155b9392505050565b60606067805461066690611ea3565b610876611470565b42606a541161088457600080fd5b80516108979060689060208401906115ef565b50606b5460405163db7cd7fb60e01b81526001600160a01b039091169063db7cd7fb906107549030908590600401611be0565b60005b815181101561090a576108f88282815181106108eb576108eb611f17565b602002602001015161105a565b8061090281611ed8565b9150506108cd565b5050565b6000828152606d602052604081205483906109445760405162461bcd60e51b815260040161093b90611d1d565b60405180910390fd5b6000848152606e60205260409020548490156109725760405162461bcd60e51b815260040161093b90611d6e565b42606a541161098057600080fd5b61098985610c9e565b1561099357600080fd5b6000848152606e6020526040902054156109ac57600080fd5b846109b787866114ca565b149695505050505050565b6000828152606d6020526040812054158015906108585750506000918252606d602052604090912054111590565b600054610100900460ff1615808015610a105750600054600160ff909116105b80610a2a5750303b158015610a2a575060005460ff166001145b610a8d5760405162461bcd60e51b815260206004820152602e60248201527f496e697469616c697a61626c653a20636f6e747261637420697320616c72656160448201526d191e481a5b9a5d1a585b1a5e995960921b606482015260840161093b565b6000805460ff191660011790558015610ab0576000805461ff0019166101001790555b428411610aff5760405162461bcd60e51b815260206004820152601e60248201527f4572726f723a2065787069726564206461746520686173207061737365640000604482015260640161093b565b610b0761153e565b610b10836113c0565b606c80546001810182556000919091527f2b4a51ab505fc96a0952efda2ba61bcd3078d4c02c39a186ec16f21883fbe0160180546001600160a01b0319166001600160a01b0385161790558851610b6e9060659060208c01906115ef565b508751610b829060669060208b01906115ef565b508651610b969060679060208a01906115ef565b508551610baa9060689060208901906115ef565b508451610bbe9060699060208801906115ef565b50606b80546001600160a01b0319166001600160a01b038416179055606a8490558015610c25576000805461ff0019169055604051600181527f7f26b83ff96e1f2b6a682f133852f6798a09c465da95921460cefb38474024989060200160405180910390a15b505050505050505050565b606780546105d690611ea3565b6060606c8054806020026020016040519081016040528092919081815260200182805480156106df57602002820191906000526020600020905b81546001600160a01b03168152600190910190602001808311610c77575050505050905090565b6000818152606d60205260408120548290610ccb5760405162461bcd60e51b815260040161093b90611d1d565b6000838152606f602052604090205415610cf5576000838152606f60205260409020544211610cf8565b60005b91505b50919050565b600080805b606c54811015610d6357836001600160a01b0316606c8281548110610d2d57610d2d611f17565b6000918252602090912001546001600160a01b03161415610d515760019150610d63565b80610d5b81611ed8565b915050610d06565b5092915050565b606880546105d690611ea3565b610d7f611470565b610d89600061156d565b565b610d93611470565b42606a5411610da157600080fd5b606c5415610de157606c805480610dba57610dba611f01565b600082815260209020810160001990810180546001600160a01b0319169055019055610da1565b306001600160a01b03167f5769cad5059d53ecd481a846d8fb5a548688f2858fc2d53bdf1d79c7ab2be1bb606c604051610e1b9190611c51565b60405180910390a2565b60606066805461066690611ea3565b606680546105d690611ea3565b60005b8251811015610e9b57610e89838281518110610e6257610e62611f17565b6020026020010151838381518110610e7c57610e7c611f17565b6020026020010151610f3d565b80610e9381611ed8565b915050610e44565b505050565b6000818152606d60205260408120548290610ecd5760405162461bcd60e51b815260040161093b90611d1d565b50506000908152606f602052604090205490565b610ee9611470565b42606a5411610ef757600080fd5b8051610f0a9060699060208401906115ef565b50606b5460405163cf1bfe0560e01b81526001600160a01b039091169063cf1bfe05906107549030908590600401611be0565b610f4633610d01565b1515600114610f675760405162461bcd60e51b815260040161093b90611db5565b6000828152606d6020526040902054829015610feb5760405162461bcd60e51b815260206004820152603a60248201527f4572726f723a204f6e6c792068617368657320746861742068617665206e6f7460448201527f206265656e206973737565642063616e20626520697373756564000000000000606482015260840161093b565b42606a5411610ff957600080fd5b6000838152606d60209081526040808320439055606f8252808320859055607090915280822080546001600160a01b031916331790555184917f01a1249f2caa0445b8391e02413d26f0d409dabe5330cd1d04d3d0801fc42db391a2505050565b61106333610d01565b15156001146110845760405162461bcd60e51b815260040161093b90611db5565b6000818152606e60205260409020548190156110b25760405162461bcd60e51b815260040161093b90611d6e565b42606a54116110c057600080fd5b6000828152606e60205260408082204390555183917f7283b5ab9758f7fba773279e4fd50ea7b136bd1d8371dcae9c5ce529c55343d791a25050565b6000818152606d602052604081205482906111295760405162461bcd60e51b815260040161093b90611d1d565b50506000908152606d602052604090205490565b611145611470565b42606a541161115357600080fd5b80516111669060659060208401906115ef565b50606b54604051630c4876c760e21b81526001600160a01b0390911690633121db1c906107549030908590600401611be0565b6111a1611470565b42606a54116111af57600080fd5b606c54156111ef57606c8054806111c8576111c8611f01565b600082815260209020810160001990810180546001600160a01b03191690550190556111af565b60005b81518110156112895761121d82828151811061121057611210611f17565b6020026020010151610d01565b1561122757611277565b606c82828151811061123b5761123b611f17565b60209081029190910181015182546001810184556000938452919092200180546001600160a01b0319166001600160a01b039092169190911790555b8061128181611ed8565b9150506111f2565b50306001600160a01b03167f5769cad5059d53ecd481a846d8fb5a548688f2858fc2d53bdf1d79c7ab2be1bb606c6040516112c49190611c51565b60405180910390a250565b6000816040516020016112e491815260200190565b604051602081830303815290604052805190602001209050919050565b611309611470565b606b54604051631ff0612160e21b8152306004820152602481018390526001600160a01b0390911690637fc1848490604401600060405180830381600087803b15801561135557600080fd5b505af1158015611369573d6000803e3d6000fd5b505050606a829055506040517f8f522cc919845bf58b76c472a942579ff9d850d67559315c54848c31e0fc2515906107c6906065906066906067906068906069908890611ca8565b60606068805461066690611ea3565b6113c8611470565b6001600160a01b03811661142d5760405162461bcd60e51b815260206004820152602660248201527f4f776e61626c653a206e6577206f776e657220697320746865207a65726f206160448201526564647265737360d01b606482015260840161093b565b6114368161156d565b50565b606980546105d690611ea3565b606c818154811061145657600080fd5b6000918252602090912001546001600160a01b0316905081565b6033546001600160a01b03163314610d895760405162461bcd60e51b815260206004820181905260248201527f4f776e61626c653a2063616c6c6572206973206e6f7420746865206f776e6572604482015260640161093b565b600081815b84518110156115365760008582815181106114ec576114ec611f17565b602002602001015190508083116115125760008381526020829052604090209250611523565b600081815260208490526040902092505b508061152e81611ed8565b9150506114cf565b509392505050565b600054610100900460ff166115655760405162461bcd60e51b815260040161093b90611e05565b610d896115bf565b603380546001600160a01b038381166001600160a01b0319831681179093556040519116919082907f8be0079c531659141344cd1fd0a4f28419497f9722a3daafe3b4186f6b6457e090600090a35050565b600054610100900460ff166115e65760405162461bcd60e51b815260040161093b90611e05565b610d893361156d565b8280546115fb90611ea3565b90600052602060002090601f01602090048101928261161d5760008555611663565b82601f1061163657805160ff1916838001178555611663565b82800160010185558215611663579182015b82811115611663578251825591602001919060010190611648565b5061166f929150611673565b5090565b5b8082111561166f5760008155600101611674565b80356001600160a01b038116811461169f57600080fd5b919050565b600082601f8301126116b557600080fd5b813560206116ca6116c583611e80565b611e50565b80838252828201915082860187848660051b89010111156116ea57600080fd5b60005b85811015611709578135845292840192908401906001016116ed565b5090979650505050505050565b600082601f83011261172757600080fd5b81356001600160401b0381111561174057611740611f2d565b611753601f8201601f1916602001611e50565b81815284602083860101111561176857600080fd5b816020850160208301376000918101602001919091529392505050565b60006020828403121561179757600080fd5b61085882611688565b600060208083850312156117b357600080fd5b82356001600160401b038111156117c957600080fd5b8301601f810185136117da57600080fd5b80356117e86116c582611e80565b80828252848201915084840188868560051b870101111561180857600080fd5b600094505b838510156118325761181e81611688565b83526001949094019391850191850161180d565b50979650505050505050565b60006020828403121561185057600080fd5b81356001600160401b0381111561186657600080fd5b611872848285016116a4565b949350505050565b6000806040838503121561188d57600080fd5b82356001600160401b03808211156118a457600080fd5b6118b0868387016116a4565b93506020915081850135818111156118c757600080fd5b85019050601f810186136118da57600080fd5b80356118e86116c582611e80565b80828252848201915084840189868560051b870101111561190857600080fd5b600094505b8385101561192b57803583526001949094019391850191850161190d565b5080955050505050509250929050565b60008060006060848603121561195057600080fd5b83356001600160401b0381111561196657600080fd5b611972868287016116a4565b9660208601359650604090950135949350505050565b60006020828403121561199a57600080fd5b5035919050565b600080604083850312156119b457600080fd5b50508035926020909101359150565b6000602082840312156119d557600080fd5b81356001600160401b038111156119eb57600080fd5b61187284828501611716565b600080600080600080600080610100898b031215611a1457600080fd5b88356001600160401b0380821115611a2b57600080fd5b611a378c838d01611716565b995060208b0135915080821115611a4d57600080fd5b611a598c838d01611716565b985060408b0135915080821115611a6f57600080fd5b611a7b8c838d01611716565b975060608b0135915080821115611a9157600080fd5b611a9d8c838d01611716565b965060808b0135915080821115611ab357600080fd5b50611ac08b828c01611716565b94505060a08901359250611ad660c08a01611688565b9150611ae460e08a01611688565b90509295985092959890939650565b6000815180845260005b81811015611b1957602081850181015186830182015201611afd565b81811115611b2b576000602083870101525b50601f01601f19169290920160200192915050565b8054600090600181811c9080831680611b5a57607f831692505b6020808410821415611b7c57634e487b7160e01b600052602260045260246000fd5b83885260208801828015611b975760018114611ba857611bd3565b60ff19871682528282019750611bd3565b60008981526020902060005b87811015611bcd57815484820152908601908401611bb4565b83019850505b5050505050505092915050565b6001600160a01b038316815260406020820181905260009061187290830184611af3565b6020808252825182820181905260009190848201906040850190845b81811015611c455783516001600160a01b031683529284019291840191600101611c20565b50909695505050505050565b6020808252825482820181905260008481528281209092916040850190845b81811015611c455783546001600160a01b031683526001938401939285019201611c70565b6020815260006108586020830184611af3565b60c081526000611cbb60c0830189611b40565b8281036020840152611ccd8189611b40565b90508281036040840152611ce18188611b40565b90508281036060840152611cf58187611b40565b90508281036080840152611d098186611b40565b9150508260a0830152979650505050505050565b60208082526031908201527f4572726f723a204f6e6c792069737375656420646f63756d656e742068617368604082015270195cc818d85b881899481c995d9bdad959607a1b606082015260800190565b60208082526027908201527f4572726f723a204861736820686173206265656e207265766f6b65642070726560408201526676696f75736c7960c81b606082015260800190565b60208082526030908201527f4572726f723a204f6e6c79205075626c69736865722063616e207265766f6b6560408201526f2f697373756520646f63756d656e747360801b606082015260800190565b6020808252602b908201527f496e697469616c697a61626c653a20636f6e7472616374206973206e6f74206960408201526a6e697469616c697a696e6760a81b606082015260800190565b604051601f8201601f191681016001600160401b0381118282101715611e7857611e78611f2d565b604052919050565b60006001600160401b03821115611e9957611e99611f2d565b5060051b60200190565b600181811c90821680611eb757607f821691505b60208210811415610cfb57634e487b7160e01b600052602260045260246000fd5b6000600019821415611efa57634e487b7160e01b600052601160045260246000fd5b5060010190565b634e487b7160e01b600052603160045260246000fd5b634e487b7160e01b600052603260045260246000fd5b634e487b7160e01b600052604160045260246000fdfea2646970667358221220a9e2af612df55afa17fb8cd7f541d91dae084229466f9583ddd9eb1fce10db4464736f6c63430008050033","opcodes":"PUSH1 0x80 PUSH1 0x40 MSTORE CALLVALUE DUP1 ISZERO PUSH2 0x10 JUMPI PUSH1 0x0 DUP1 REVERT JUMPDEST POP PUSH2 0x1F79 DUP1 PUSH2 0x20 PUSH1 0x0 CODECOPY PUSH1 0x0 RETURN INVALID PUSH1 0x80 PUSH1 0x40 MSTORE CALLVALUE DUP1 ISZERO PUSH2 0x10 JUMPI PUSH1 0x0 DUP1 REVERT JUMPDEST POP PUSH1 0x4 CALLDATASIZE LT PUSH2 0x274 JUMPI PUSH1 0x0 CALLDATALOAD PUSH1 0xE0 SHR DUP1 PUSH4 0x715018A6 GT PUSH2 0x151 JUMPI DUP1 PUSH4 0xB75C7DC6 GT PUSH2 0xC3 JUMPI DUP1 PUSH4 0xD5FB36C5 GT PUSH2 0x87 JUMPI DUP1 PUSH4 0xD5FB36C5 EQ PUSH2 0x560 JUMPI DUP1 PUSH4 0xDF8DEBED EQ PUSH2 0x580 JUMPI DUP1 PUSH4 0xEB5FACE7 EQ PUSH2 0x593 JUMPI DUP1 PUSH4 0xF2FDE38B EQ PUSH2 0x59B JUMPI DUP1 PUSH4 0xF437BC59 EQ PUSH2 0x5AE JUMPI DUP1 PUSH4 0xFF060FBD EQ PUSH2 0x5B6 JUMPI PUSH1 0x0 DUP1 REVERT JUMPDEST DUP1 PUSH4 0xB75C7DC6 EQ PUSH2 0x501 JUMPI DUP1 PUSH4 0xBF40B904 EQ PUSH2 0x514 JUMPI DUP1 PUSH4 0xC47F0027 EQ PUSH2 0x527 JUMPI DUP1 PUSH4 0xD31A57D6 EQ PUSH2 0x53A JUMPI DUP1 PUSH4 0xD5E9B377 EQ PUSH2 0x54D JUMPI PUSH1 0x0 DUP1 REVERT JUMPDEST DUP1 PUSH4 0x8DA5CB5B GT PUSH2 0x115 JUMPI DUP1 PUSH4 0x8DA5CB5B EQ PUSH2 0x49B JUMPI DUP1 PUSH4 0x8E32E421 EQ PUSH2 0x4AC JUMPI DUP1 PUSH4 0x9DD516A5 EQ PUSH2 0x4B5 JUMPI DUP1 PUSH4 0xA0F3A321 EQ PUSH2 0x4C8 JUMPI DUP1 PUSH4 0xA5AB89FF EQ PUSH2 0x4DB JUMPI DUP1 PUSH4 0xA92ABE37 EQ PUSH2 0x4EE JUMPI PUSH1 0x0 DUP1 REVERT JUMPDEST DUP1 PUSH4 0x715018A6 EQ PUSH2 0x45B JUMPI DUP1 PUSH4 0x7D1FEB6F EQ PUSH2 0x463 JUMPI DUP1 PUSH4 0x7E79E8BA EQ PUSH2 0x46B JUMPI DUP1 PUSH4 0x820E93F5 EQ PUSH2 0x473 JUMPI DUP1 PUSH4 0x8BC36C91 EQ PUSH2 0x47B JUMPI PUSH1 0x0 DUP1 REVERT JUMPDEST DUP1 PUSH4 0x3D4A3EB0 GT PUSH2 0x1EA JUMPI DUP1 PUSH4 0x5E9057B5 GT PUSH2 0x1AE JUMPI DUP1 PUSH4 0x5E9057B5 EQ PUSH2 0x3FD JUMPI DUP1 PUSH4 0x6AE08FFA EQ PUSH2 0x410 JUMPI DUP1 PUSH4 0x6C6071AA EQ PUSH2 0x418 JUMPI DUP1 PUSH4 0x6DB2FEB2 EQ PUSH2 0x42D JUMPI DUP1 PUSH4 0x6DF38D67 EQ PUSH2 0x440 JUMPI DUP1 PUSH4 0x707C21AC EQ PUSH2 0x453 JUMPI PUSH1 0x0 DUP1 REVERT JUMPDEST DUP1 PUSH4 0x3D4A3EB0 EQ PUSH2 0x38F JUMPI DUP1 PUSH4 0x4294857F EQ PUSH2 0x3A2 JUMPI DUP1 PUSH4 0x4ADA8076 EQ PUSH2 0x3C4 JUMPI DUP1 PUSH4 0x5A9A49C7 EQ PUSH2 0x3D7 JUMPI DUP1 PUSH4 0x5A9E03CA EQ PUSH2 0x3EA JUMPI PUSH1 0x0 DUP1 REVERT JUMPDEST DUP1 PUSH4 0x20BC4425 GT PUSH2 0x23C JUMPI DUP1 PUSH4 0x20BC4425 EQ PUSH2 0x324 JUMPI DUP1 PUSH4 0x282B065A EQ PUSH2 0x32C JUMPI DUP1 PUSH4 0x2DC974D8 EQ PUSH2 0x341 JUMPI DUP1 PUSH4 0x33358D2D EQ PUSH2 0x354 JUMPI DUP1 PUSH4 0x339B6B39 EQ PUSH2 0x374 JUMPI DUP1 PUSH4 0x38F186C2 EQ PUSH2 0x387 JUMPI PUSH1 0x0 DUP1 REVERT JUMPDEST DUP1 PUSH4 0x6FDDE03 EQ PUSH2 0x279 JUMPI DUP1 PUSH4 0x156E4B02 EQ PUSH2 0x297 JUMPI DUP1 PUSH4 0x163AA631 EQ PUSH2 0x2D8 JUMPI DUP1 PUSH4 0x16F5F7D4 EQ PUSH2 0x30A JUMPI DUP1 PUSH4 0x17D7DE7C EQ PUSH2 0x31C JUMPI JUMPDEST PUSH1 0x0 DUP1 REVERT JUMPDEST PUSH2 0x281 PUSH2 0x5C9 JUMP JUMPDEST PUSH1 0x40 MLOAD PUSH2 0x28E SWAP2 SWAP1 PUSH2 0x1C95 JUMP JUMPDEST PUSH1 0x40 MLOAD DUP1 SWAP2 SUB SWAP1 RETURN JUMPDEST PUSH2 0x2C0 PUSH2 0x2A5 CALLDATASIZE PUSH1 0x4 PUSH2 0x1988 JUMP JUMPDEST PUSH1 0x70 PUSH1 0x20 MSTORE PUSH1 0x0 SWAP1 DUP2 MSTORE PUSH1 0x40 SWAP1 KECCAK256 SLOAD PUSH1 0x1 PUSH1 0x1 PUSH1 0xA0 SHL SUB AND DUP2 JUMP JUMPDEST PUSH1 0x40 MLOAD PUSH1 0x1 PUSH1 0x1 PUSH1 0xA0 SHL SUB SWAP1 SWAP2 AND DUP2 MSTORE PUSH1 0x20 ADD PUSH2 0x28E JUMP JUMPDEST PUSH2 0x2FA PUSH2 0x2E6 CALLDATASIZE PUSH1 0x4 PUSH2 0x1988 JUMP JUMPDEST PUSH1 0x0 SWAP1 DUP2 MSTORE PUSH1 0x6D PUSH1 0x20 MSTORE PUSH1 0x40 SWAP1 KECCAK256 SLOAD ISZERO ISZERO SWAP1 JUMP JUMPDEST PUSH1 0x40 MLOAD SWAP1 ISZERO ISZERO DUP2 MSTORE PUSH1 0x20 ADD PUSH2 0x28E JUMP JUMPDEST PUSH1 0x6A SLOAD JUMPDEST PUSH1 0x40 MLOAD SWAP1 DUP2 MSTORE PUSH1 0x20 ADD PUSH2 0x28E JUMP JUMPDEST PUSH2 0x281 PUSH2 0x657 JUMP JUMPDEST PUSH2 0x281 PUSH2 0x6E9 JUMP JUMPDEST PUSH2 0x33F PUSH2 0x33A CALLDATASIZE PUSH1 0x4 PUSH2 0x19C3 JUMP JUMPDEST PUSH2 0x6F8 JUMP JUMPDEST STOP JUMPDEST PUSH2 0x33F PUSH2 0x34F CALLDATASIZE PUSH1 0x4 PUSH2 0x19C3 JUMP JUMPDEST PUSH2 0x7D1 JUMP JUMPDEST PUSH2 0x30E PUSH2 0x362 CALLDATASIZE PUSH1 0x4 PUSH2 0x1988 JUMP JUMPDEST PUSH1 0x6D PUSH1 0x20 MSTORE PUSH1 0x0 SWAP1 DUP2 MSTORE PUSH1 0x40 SWAP1 KECCAK256 SLOAD DUP2 JUMP JUMPDEST PUSH2 0x2FA PUSH2 0x382 CALLDATASIZE PUSH1 0x4 PUSH2 0x19A1 JUMP JUMPDEST PUSH2 0x82D JUMP JUMPDEST PUSH2 0x281 PUSH2 0x85F JUMP JUMPDEST PUSH2 0x33F PUSH2 0x39D CALLDATASIZE PUSH1 0x4 PUSH2 0x19C3 JUMP JUMPDEST PUSH2 0x86E JUMP JUMPDEST PUSH2 0x2FA PUSH2 0x3B0 CALLDATASIZE PUSH1 0x4 PUSH2 0x1988 JUMP JUMPDEST PUSH1 0x0 SWAP1 DUP2 MSTORE PUSH1 0x6E PUSH1 0x20 MSTORE PUSH1 0x40 SWAP1 KECCAK256 SLOAD ISZERO ISZERO SWAP1 JUMP JUMPDEST PUSH2 0x33F PUSH2 0x3D2 CALLDATASIZE PUSH1 0x4 PUSH2 0x183E JUMP JUMPDEST PUSH2 0x8CA JUMP JUMPDEST PUSH2 0x2FA PUSH2 0x3E5 CALLDATASIZE PUSH1 0x4 PUSH2 0x193B JUMP JUMPDEST PUSH2 0x90E JUMP JUMPDEST PUSH2 0x2FA PUSH2 0x3F8 CALLDATASIZE PUSH1 0x4 PUSH2 0x19A1 JUMP JUMPDEST PUSH2 0x9C2 JUMP JUMPDEST PUSH2 0x33F PUSH2 0x40B CALLDATASIZE PUSH1 0x4 PUSH2 0x19F7 JUMP JUMPDEST PUSH2 0x9F0 JUMP JUMPDEST PUSH2 0x281 PUSH2 0xC30 JUMP JUMPDEST PUSH2 0x420 PUSH2 0xC3D JUMP JUMPDEST PUSH1 0x40 MLOAD PUSH2 0x28E SWAP2 SWAP1 PUSH2 0x1C04 JUMP JUMPDEST PUSH2 0x2FA PUSH2 0x43B CALLDATASIZE PUSH1 0x4 PUSH2 0x1988 JUMP JUMPDEST PUSH2 0xC9E JUMP JUMPDEST PUSH2 0x2FA PUSH2 0x44E CALLDATASIZE PUSH1 0x4 PUSH2 0x1785 JUMP JUMPDEST PUSH2 0xD01 JUMP JUMPDEST PUSH2 0x281 PUSH2 0xD6A JUMP JUMPDEST PUSH2 0x33F PUSH2 0xD77 JUMP JUMPDEST PUSH2 0x33F PUSH2 0xD8B JUMP JUMPDEST PUSH2 0x281 PUSH2 0xE25 JUMP JUMPDEST PUSH2 0x281 PUSH2 0xE34 JUMP JUMPDEST PUSH2 0x30E PUSH2 0x489 CALLDATASIZE PUSH1 0x4 PUSH2 0x1988 JUMP JUMPDEST PUSH1 0x6E PUSH1 0x20 MSTORE PUSH1 0x0 SWAP1 DUP2 MSTORE PUSH1 0x40 SWAP1 KECCAK256 SLOAD DUP2 JUMP JUMPDEST PUSH1 0x33 SLOAD PUSH1 0x1 PUSH1 0x1 PUSH1 0xA0 SHL SUB AND PUSH2 0x2C0 JUMP JUMPDEST PUSH2 0x30E PUSH1 0x6A SLOAD DUP2 JUMP JUMPDEST PUSH2 0x33F PUSH2 0x4C3 CALLDATASIZE PUSH1 0x4 PUSH2 0x187A JUMP JUMPDEST PUSH2 0xE41 JUMP JUMPDEST PUSH2 0x30E PUSH2 0x4D6 CALLDATASIZE PUSH1 0x4 PUSH2 0x1988 JUMP JUMPDEST PUSH2 0xEA0 JUMP JUMPDEST PUSH2 0x33F PUSH2 0x4E9 CALLDATASIZE PUSH1 0x4 PUSH2 0x19C3 JUMP JUMPDEST PUSH2 0xEE1 JUMP JUMPDEST PUSH2 0x33F PUSH2 0x4FC CALLDATASIZE PUSH1 0x4 PUSH2 0x19A1 JUMP JUMPDEST PUSH2 0xF3D JUMP JUMPDEST PUSH2 0x33F PUSH2 0x50F CALLDATASIZE PUSH1 0x4 PUSH2 0x1988 JUMP JUMPDEST PUSH2 0x105A JUMP JUMPDEST PUSH2 0x30E PUSH2 0x522 CALLDATASIZE PUSH1 0x4 PUSH2 0x1988 JUMP JUMPDEST PUSH2 0x10FC JUMP JUMPDEST PUSH2 0x33F PUSH2 0x535 CALLDATASIZE PUSH1 0x4 PUSH2 0x19C3 JUMP JUMPDEST PUSH2 0x113D JUMP JUMPDEST PUSH2 0x33F PUSH2 0x548 CALLDATASIZE PUSH1 0x4 PUSH2 0x17A0 JUMP JUMPDEST PUSH2 0x1199 JUMP JUMPDEST PUSH2 0x30E PUSH2 0x55B CALLDATASIZE PUSH1 0x4 PUSH2 0x1988 JUMP JUMPDEST PUSH2 0x12CF JUMP JUMPDEST PUSH2 0x30E PUSH2 0x56E CALLDATASIZE PUSH1 0x4 PUSH2 0x1988 JUMP JUMPDEST PUSH1 0x6F PUSH1 0x20 MSTORE PUSH1 0x0 SWAP1 DUP2 MSTORE PUSH1 0x40 SWAP1 KECCAK256 SLOAD DUP2 JUMP JUMPDEST PUSH2 0x33F PUSH2 0x58E CALLDATASIZE PUSH1 0x4 PUSH2 0x1988 JUMP JUMPDEST PUSH2 0x1301 JUMP JUMPDEST PUSH2 0x281 PUSH2 0x13B1 JUMP JUMPDEST PUSH2 0x33F PUSH2 0x5A9 CALLDATASIZE PUSH1 0x4 PUSH2 0x1785 JUMP JUMPDEST PUSH2 0x13C0 JUMP JUMPDEST PUSH2 0x281 PUSH2 0x1439 JUMP JUMPDEST PUSH2 0x2C0 PUSH2 0x5C4 CALLDATASIZE PUSH1 0x4 PUSH2 0x1988 JUMP JUMPDEST PUSH2 0x1446 JUMP JUMPDEST PUSH1 0x65 DUP1 SLOAD PUSH2 0x5D6 SWAP1 PUSH2 0x1EA3 JUMP JUMPDEST DUP1 PUSH1 0x1F ADD PUSH1 0x20 DUP1 SWAP2 DIV MUL PUSH1 0x20 ADD PUSH1 0x40 MLOAD SWAP1 DUP2 ADD PUSH1 0x40 MSTORE DUP1 SWAP3 SWAP2 SWAP1 DUP2 DUP2 MSTORE PUSH1 0x20 ADD DUP3 DUP1 SLOAD PUSH2 0x602 SWAP1 PUSH2 0x1EA3 JUMP JUMPDEST DUP1 ISZERO PUSH2 0x64F JUMPI DUP1 PUSH1 0x1F LT PUSH2 0x624 JUMPI PUSH2 0x100 DUP1 DUP4 SLOAD DIV MUL DUP4 MSTORE SWAP2 PUSH1 0x20 ADD SWAP2 PUSH2 0x64F JUMP JUMPDEST DUP3 ADD SWAP2 SWAP1 PUSH1 0x0 MSTORE PUSH1 0x20 PUSH1 0x0 KECCAK256 SWAP1 JUMPDEST DUP2 SLOAD DUP2 MSTORE SWAP1 PUSH1 0x1 ADD SWAP1 PUSH1 0x20 ADD DUP1 DUP4 GT PUSH2 0x632 JUMPI DUP3 SWAP1 SUB PUSH1 0x1F AND DUP3 ADD SWAP2 JUMPDEST POP POP POP POP POP DUP2 JUMP JUMPDEST PUSH1 0x60 PUSH1 0x65 DUP1 SLOAD PUSH2 0x666 SWAP1 PUSH2 0x1EA3 JUMP JUMPDEST DUP1 PUSH1 0x1F ADD PUSH1 0x20 DUP1 SWAP2 DIV MUL PUSH1 0x20 ADD PUSH1 0x40 MLOAD SWAP1 DUP2 ADD PUSH1 0x40 MSTORE DUP1 SWAP3 SWAP2 SWAP1 DUP2 DUP2 MSTORE PUSH1 0x20 ADD DUP3 DUP1 SLOAD PUSH2 0x692 SWAP1 PUSH2 0x1EA3 JUMP JUMPDEST DUP1 ISZERO PUSH2 0x6DF JUMPI DUP1 PUSH1 0x1F LT PUSH2 0x6B4 JUMPI PUSH2 0x100 DUP1 DUP4 SLOAD DIV MUL DUP4 MSTORE SWAP2 PUSH1 0x20 ADD SWAP2 PUSH2 0x6DF JUMP JUMPDEST DUP3 ADD SWAP2 SWAP1 PUSH1 0x0 MSTORE PUSH1 0x20 PUSH1 0x0 KECCAK256 SWAP1 JUMPDEST DUP2 SLOAD DUP2 MSTORE SWAP1 PUSH1 0x1 ADD SWAP1 PUSH1 0x20 ADD DUP1 DUP4 GT PUSH2 0x6C2 JUMPI DUP3 SWAP1 SUB PUSH1 0x1F AND DUP3 ADD SWAP2 JUMPDEST POP POP POP POP POP SWAP1 POP SWAP1 JUMP JUMPDEST PUSH1 0x60 PUSH1 0x69 DUP1 SLOAD PUSH2 0x666 SWAP1 PUSH2 0x1EA3 JUMP JUMPDEST PUSH2 0x700 PUSH2 0x1470 JUMP JUMPDEST TIMESTAMP PUSH1 0x6A SLOAD GT PUSH2 0x70E JUMPI PUSH1 0x0 DUP1 REVERT JUMPDEST DUP1 MLOAD PUSH2 0x721 SWAP1 PUSH1 0x66 SWAP1 PUSH1 0x20 DUP5 ADD SWAP1 PUSH2 0x15EF JUMP JUMPDEST POP PUSH1 0x6B SLOAD PUSH1 0x40 MLOAD PUSH4 0x68C35C4B PUSH1 0xE0 SHL DUP2 MSTORE PUSH1 0x1 PUSH1 0x1 PUSH1 0xA0 SHL SUB SWAP1 SWAP2 AND SWAP1 PUSH4 0x68C35C4B SWAP1 PUSH2 0x754 SWAP1 ADDRESS SWAP1 DUP6 SWAP1 PUSH1 0x4 ADD PUSH2 0x1BE0 JUMP JUMPDEST PUSH1 0x0 PUSH1 0x40 MLOAD DUP1 DUP4 SUB DUP2 PUSH1 0x0 DUP8 DUP1 EXTCODESIZE ISZERO DUP1 ISZERO PUSH2 0x76E JUMPI PUSH1 0x0 DUP1 REVERT JUMPDEST POP GAS CALL ISZERO DUP1 ISZERO PUSH2 0x782 JUMPI RETURNDATASIZE PUSH1 0x0 DUP1 RETURNDATACOPY RETURNDATASIZE PUSH1 0x0 REVERT JUMPDEST POP POP POP POP PUSH32 0x8F522CC919845BF58B76C472A942579FF9D850D67559315C54848C31E0FC2515 PUSH1 0x65 PUSH1 0x66 PUSH1 0x67 PUSH1 0x68 PUSH1 0x69 PUSH1 0x6A SLOAD PUSH1 0x40 MLOAD PUSH2 0x7C6 SWAP7 SWAP6 SWAP5 SWAP4 SWAP3 SWAP2 SWAP1 PUSH2 0x1CA8 JUMP JUMPDEST PUSH1 0x40 MLOAD DUP1 SWAP2 SUB SWAP1 LOG1 POP JUMP JUMPDEST PUSH2 0x7D9 PUSH2 0x1470 JUMP JUMPDEST TIMESTAMP PUSH1 0x6A SLOAD GT PUSH2 0x7E7 JUMPI PUSH1 0x0 DUP1 REVERT JUMPDEST DUP1 MLOAD PUSH2 0x7FA SWAP1 PUSH1 0x67 SWAP1 PUSH1 0x20 DUP5 ADD SWAP1 PUSH2 0x15EF JUMP JUMPDEST POP PUSH1 0x6B SLOAD PUSH1 0x40 MLOAD PUSH4 0x6AC012D5 PUSH1 0xE0 SHL DUP2 MSTORE PUSH1 0x1 PUSH1 0x1 PUSH1 0xA0 SHL SUB SWAP1 SWAP2 AND SWAP1 PUSH4 0x6AC012D5 SWAP1 PUSH2 0x754 SWAP1 ADDRESS SWAP1 DUP6 SWAP1 PUSH1 0x4 ADD PUSH2 0x1BE0 JUMP JUMPDEST PUSH1 0x0 DUP3 DUP2 MSTORE PUSH1 0x6E PUSH1 0x20 MSTORE PUSH1 0x40 DUP2 KECCAK256 SLOAD DUP3 LT DUP1 ISZERO SWAP1 PUSH2 0x858 JUMPI POP PUSH1 0x0 DUP4 DUP2 MSTORE PUSH1 0x6E PUSH1 0x20 MSTORE PUSH1 0x40 SWAP1 KECCAK256 SLOAD ISZERO ISZERO JUMPDEST SWAP4 SWAP3 POP POP POP JUMP JUMPDEST PUSH1 0x60 PUSH1 0x67 DUP1 SLOAD PUSH2 0x666 SWAP1 PUSH2 0x1EA3 JUMP JUMPDEST PUSH2 0x876 PUSH2 0x1470 JUMP JUMPDEST TIMESTAMP PUSH1 0x6A SLOAD GT PUSH2 0x884 JUMPI PUSH1 0x0 DUP1 REVERT JUMPDEST DUP1 MLOAD PUSH2 0x897 SWAP1 PUSH1 0x68 SWAP1 PUSH1 0x20 DUP5 ADD SWAP1 PUSH2 0x15EF JUMP JUMPDEST POP PUSH1 0x6B SLOAD PUSH1 0x40 MLOAD PUSH4 0xDB7CD7FB PUSH1 0xE0 SHL DUP2 MSTORE PUSH1 0x1 PUSH1 0x1 PUSH1 0xA0 SHL SUB SWAP1 SWAP2 AND SWAP1 PUSH4 0xDB7CD7FB SWAP1 PUSH2 0x754 SWAP1 ADDRESS SWAP1 DUP6 SWAP1 PUSH1 0x4 ADD PUSH2 0x1BE0 JUMP JUMPDEST PUSH1 0x0 JUMPDEST DUP2 MLOAD DUP2 LT ISZERO PUSH2 0x90A JUMPI PUSH2 0x8F8 DUP3 DUP3 DUP2 MLOAD DUP2 LT PUSH2 0x8EB JUMPI PUSH2 0x8EB PUSH2 0x1F17 JUMP JUMPDEST PUSH1 0x20 MUL PUSH1 0x20 ADD ADD MLOAD PUSH2 0x105A JUMP JUMPDEST DUP1 PUSH2 0x902 DUP2 PUSH2 0x1ED8 JUMP JUMPDEST SWAP2 POP POP PUSH2 0x8CD JUMP JUMPDEST POP POP JUMP JUMPDEST PUSH1 0x0 DUP3 DUP2 MSTORE PUSH1 0x6D PUSH1 0x20 MSTORE PUSH1 0x40 DUP2 KECCAK256 SLOAD DUP4 SWAP1 PUSH2 0x944 JUMPI PUSH1 0x40 MLOAD PUSH3 0x461BCD PUSH1 0xE5 SHL DUP2 MSTORE PUSH1 0x4 ADD PUSH2 0x93B SWAP1 PUSH2 0x1D1D JUMP JUMPDEST PUSH1 0x40 MLOAD DUP1 SWAP2 SUB SWAP1 REVERT JUMPDEST PUSH1 0x0 DUP5 DUP2 MSTORE PUSH1 0x6E PUSH1 0x20 MSTORE PUSH1 0x40 SWAP1 KECCAK256 SLOAD DUP5 SWAP1 ISZERO PUSH2 0x972 JUMPI PUSH1 0x40 MLOAD PUSH3 0x461BCD PUSH1 0xE5 SHL DUP2 MSTORE PUSH1 0x4 ADD PUSH2 0x93B SWAP1 PUSH2 0x1D6E JUMP JUMPDEST TIMESTAMP PUSH1 0x6A SLOAD GT PUSH2 0x980 JUMPI PUSH1 0x0 DUP1 REVERT JUMPDEST PUSH2 0x989 DUP6 PUSH2 0xC9E JUMP JUMPDEST ISZERO PUSH2 0x993 JUMPI PUSH1 0x0 DUP1 REVERT JUMPDEST PUSH1 0x0 DUP5 DUP2 MSTORE PUSH1 0x6E PUSH1 0x20 MSTORE PUSH1 0x40 SWAP1 KECCAK256 SLOAD ISZERO PUSH2 0x9AC JUMPI PUSH1 0x0 DUP1 REVERT JUMPDEST DUP5 PUSH2 0x9B7 DUP8 DUP7 PUSH2 0x14CA JUMP JUMPDEST EQ SWAP7 SWAP6 POP POP POP POP POP POP JUMP JUMPDEST PUSH1 0x0 DUP3 DUP2 MSTORE PUSH1 0x6D PUSH1 0x20 MSTORE PUSH1 0x40 DUP2 KECCAK256 SLOAD ISZERO DUP1 ISZERO SWAP1 PUSH2 0x858 JUMPI POP POP PUSH1 0x0 SWAP2 DUP3 MSTORE PUSH1 0x6D PUSH1 0x20 MSTORE PUSH1 0x40 SWAP1 SWAP2 KECCAK256 SLOAD GT ISZERO SWAP1 JUMP JUMPDEST PUSH1 0x0 SLOAD PUSH2 0x100 SWAP1 DIV PUSH1 0xFF AND ISZERO DUP1 DUP1 ISZERO PUSH2 0xA10 JUMPI POP PUSH1 0x0 SLOAD PUSH1 0x1 PUSH1 0xFF SWAP1 SWAP2 AND LT JUMPDEST DUP1 PUSH2 0xA2A JUMPI POP ADDRESS EXTCODESIZE ISZERO DUP1 ISZERO PUSH2 0xA2A JUMPI POP PUSH1 0x0 SLOAD PUSH1 0xFF AND PUSH1 0x1 EQ JUMPDEST PUSH2 0xA8D JUMPI PUSH1 0x40 MLOAD PUSH3 0x461BCD PUSH1 0xE5 SHL DUP2 MSTORE PUSH1 0x20 PUSH1 0x4 DUP3 ADD MSTORE PUSH1 0x2E PUSH1 0x24 DUP3 ADD MSTORE PUSH32 0x496E697469616C697A61626C653A20636F6E747261637420697320616C726561 PUSH1 0x44 DUP3 ADD MSTORE PUSH14 0x191E481A5B9A5D1A585B1A5E9959 PUSH1 0x92 SHL PUSH1 0x64 DUP3 ADD MSTORE PUSH1 0x84 ADD PUSH2 0x93B JUMP JUMPDEST PUSH1 0x0 DUP1 SLOAD PUSH1 0xFF NOT AND PUSH1 0x1 OR SWAP1 SSTORE DUP1 ISZERO PUSH2 0xAB0 JUMPI PUSH1 0x0 DUP1 SLOAD PUSH2 0xFF00 NOT AND PUSH2 0x100 OR SWAP1 SSTORE JUMPDEST TIMESTAMP DUP5 GT PUSH2 0xAFF JUMPI PUSH1 0x40 MLOAD PUSH3 0x461BCD PUSH1 0xE5 SHL DUP2 MSTORE PUSH1 0x20 PUSH1 0x4 DUP3 ADD MSTORE PUSH1 0x1E PUSH1 0x24 DUP3 ADD MSTORE PUSH32 0x4572726F723A2065787069726564206461746520686173207061737365640000 PUSH1 0x44 DUP3 ADD MSTORE PUSH1 0x64 ADD PUSH2 0x93B JUMP JUMPDEST PUSH2 0xB07 PUSH2 0x153E JUMP JUMPDEST PUSH2 0xB10 DUP4 PUSH2 0x13C0 JUMP JUMPDEST PUSH1 0x6C DUP1 SLOAD PUSH1 0x1 DUP2 ADD DUP3 SSTORE PUSH1 0x0 SWAP2 SWAP1 SWAP2 MSTORE PUSH32 0x2B4A51AB505FC96A0952EFDA2BA61BCD3078D4C02C39A186EC16F21883FBE016 ADD DUP1 SLOAD PUSH1 0x1 PUSH1 0x1 PUSH1 0xA0 SHL SUB NOT AND PUSH1 0x1 PUSH1 0x1 PUSH1 0xA0 SHL SUB DUP6 AND OR SWAP1 SSTORE DUP9 MLOAD PUSH2 0xB6E SWAP1 PUSH1 0x65 SWAP1 PUSH1 0x20 DUP13 ADD SWAP1 PUSH2 0x15EF JUMP JUMPDEST POP DUP8 MLOAD PUSH2 0xB82 SWAP1 PUSH1 0x66 SWAP1 PUSH1 0x20 DUP12 ADD SWAP1 PUSH2 0x15EF JUMP JUMPDEST POP DUP7 MLOAD PUSH2 0xB96 SWAP1 PUSH1 0x67 SWAP1 PUSH1 0x20 DUP11 ADD SWAP1 PUSH2 0x15EF JUMP JUMPDEST POP DUP6 MLOAD PUSH2 0xBAA SWAP1 PUSH1 0x68 SWAP1 PUSH1 0x20 DUP10 ADD SWAP1 PUSH2 0x15EF JUMP JUMPDEST POP DUP5 MLOAD PUSH2 0xBBE SWAP1 PUSH1 0x69 SWAP1 PUSH1 0x20 DUP9 ADD SWAP1 PUSH2 0x15EF JUMP JUMPDEST POP PUSH1 0x6B DUP1 SLOAD PUSH1 0x1 PUSH1 0x1 PUSH1 0xA0 SHL SUB NOT AND PUSH1 0x1 PUSH1 0x1 PUSH1 0xA0 SHL SUB DUP5 AND OR SWAP1 SSTORE PUSH1 0x6A DUP5 SWAP1 SSTORE DUP1 ISZERO PUSH2 0xC25 JUMPI PUSH1 0x0 DUP1 SLOAD PUSH2 0xFF00 NOT AND SWAP1 SSTORE PUSH1 0x40 MLOAD PUSH1 0x1 DUP2 MSTORE PUSH32 0x7F26B83FF96E1F2B6A682F133852F6798A09C465DA95921460CEFB3847402498 SWAP1 PUSH1 0x20 ADD PUSH1 0x40 MLOAD DUP1 SWAP2 SUB SWAP1 LOG1 JUMPDEST POP POP POP POP POP POP POP POP POP JUMP JUMPDEST PUSH1 0x67 DUP1 SLOAD PUSH2 0x5D6 SWAP1 PUSH2 0x1EA3 JUMP JUMPDEST PUSH1 0x60 PUSH1 0x6C DUP1 SLOAD DUP1 PUSH1 0x20 MUL PUSH1 0x20 ADD PUSH1 0x40 MLOAD SWAP1 DUP2 ADD PUSH1 0x40 MSTORE DUP1 SWAP3 SWAP2 SWAP1 DUP2 DUP2 MSTORE PUSH1 0x20 ADD DUP3 DUP1 SLOAD DUP1 ISZERO PUSH2 0x6DF JUMPI PUSH1 0x20 MUL DUP3 ADD SWAP2 SWAP1 PUSH1 0x0 MSTORE PUSH1 0x20 PUSH1 0x0 KECCAK256 SWAP1 JUMPDEST DUP2 SLOAD PUSH1 0x1 PUSH1 0x1 PUSH1 0xA0 SHL SUB AND DUP2 MSTORE PUSH1 0x1 SWAP1 SWAP2 ADD SWAP1 PUSH1 0x20 ADD DUP1 DUP4 GT PUSH2 0xC77 JUMPI POP POP POP POP POP SWAP1 POP SWAP1 JUMP JUMPDEST PUSH1 0x0 DUP2 DUP2 MSTORE PUSH1 0x6D PUSH1 0x20 MSTORE PUSH1 0x40 DUP2 KECCAK256 SLOAD DUP3 SWAP1 PUSH2 0xCCB JUMPI PUSH1 0x40 MLOAD PUSH3 0x461BCD PUSH1 0xE5 SHL DUP2 MSTORE PUSH1 0x4 ADD PUSH2 0x93B SWAP1 PUSH2 0x1D1D JUMP JUMPDEST PUSH1 0x0 DUP4 DUP2 MSTORE PUSH1 0x6F PUSH1 0x20 MSTORE PUSH1 0x40 SWAP1 KECCAK256 SLOAD ISZERO PUSH2 0xCF5 JUMPI PUSH1 0x0 DUP4 DUP2 MSTORE PUSH1 0x6F PUSH1 0x20 MSTORE PUSH1 0x40 SWAP1 KECCAK256 SLOAD TIMESTAMP GT PUSH2 0xCF8 JUMP JUMPDEST PUSH1 0x0 JUMPDEST SWAP2 POP JUMPDEST POP SWAP2 SWAP1 POP JUMP JUMPDEST PUSH1 0x0 DUP1 DUP1 JUMPDEST PUSH1 0x6C SLOAD DUP2 LT ISZERO PUSH2 0xD63 JUMPI DUP4 PUSH1 0x1 PUSH1 0x1 PUSH1 0xA0 SHL SUB AND PUSH1 0x6C DUP3 DUP2 SLOAD DUP2 LT PUSH2 0xD2D JUMPI PUSH2 0xD2D PUSH2 0x1F17 JUMP JUMPDEST PUSH1 0x0 SWAP2 DUP3 MSTORE PUSH1 0x20 SWAP1 SWAP2 KECCAK256 ADD SLOAD PUSH1 0x1 PUSH1 0x1 PUSH1 0xA0 SHL SUB AND EQ ISZERO PUSH2 0xD51 JUMPI PUSH1 0x1 SWAP2 POP PUSH2 0xD63 JUMP JUMPDEST DUP1 PUSH2 0xD5B DUP2 PUSH2 0x1ED8 JUMP JUMPDEST SWAP2 POP POP PUSH2 0xD06 JUMP JUMPDEST POP SWAP3 SWAP2 POP POP JUMP JUMPDEST PUSH1 0x68 DUP1 SLOAD PUSH2 0x5D6 SWAP1 PUSH2 0x1EA3 JUMP JUMPDEST PUSH2 0xD7F PUSH2 0x1470 JUMP JUMPDEST PUSH2 0xD89 PUSH1 0x0 PUSH2 0x156D JUMP JUMPDEST JUMP JUMPDEST PUSH2 0xD93 PUSH2 0x1470 JUMP JUMPDEST TIMESTAMP PUSH1 0x6A SLOAD GT PUSH2 0xDA1 JUMPI PUSH1 0x0 DUP1 REVERT JUMPDEST PUSH1 0x6C SLOAD ISZERO PUSH2 0xDE1 JUMPI PUSH1 0x6C DUP1 SLOAD DUP1 PUSH2 0xDBA JUMPI PUSH2 0xDBA PUSH2 0x1F01 JUMP JUMPDEST PUSH1 0x0 DUP3 DUP2 MSTORE PUSH1 0x20 SWAP1 KECCAK256 DUP2 ADD PUSH1 0x0 NOT SWAP1 DUP2 ADD DUP1 SLOAD PUSH1 0x1 PUSH1 0x1 PUSH1 0xA0 SHL SUB NOT AND SWAP1 SSTORE ADD SWAP1 SSTORE PUSH2 0xDA1 JUMP JUMPDEST ADDRESS PUSH1 0x1 PUSH1 0x1 PUSH1 0xA0 SHL SUB AND PUSH32 0x5769CAD5059D53ECD481A846D8FB5A548688F2858FC2D53BDF1D79C7AB2BE1BB PUSH1 0x6C PUSH1 0x40 MLOAD PUSH2 0xE1B SWAP2 SWAP1 PUSH2 0x1C51 JUMP JUMPDEST PUSH1 0x40 MLOAD DUP1 SWAP2 SUB SWAP1 LOG2 JUMP JUMPDEST PUSH1 0x60 PUSH1 0x66 DUP1 SLOAD PUSH2 0x666 SWAP1 PUSH2 0x1EA3 JUMP JUMPDEST PUSH1 0x66 DUP1 SLOAD PUSH2 0x5D6 SWAP1 PUSH2 0x1EA3 JUMP JUMPDEST PUSH1 0x0 JUMPDEST DUP3 MLOAD DUP2 LT ISZERO PUSH2 0xE9B JUMPI PUSH2 0xE89 DUP4 DUP3 DUP2 MLOAD DUP2 LT PUSH2 0xE62 JUMPI PUSH2 0xE62 PUSH2 0x1F17 JUMP JUMPDEST PUSH1 0x20 MUL PUSH1 0x20 ADD ADD MLOAD DUP4 DUP4 DUP2 MLOAD DUP2 LT PUSH2 0xE7C JUMPI PUSH2 0xE7C PUSH2 0x1F17 JUMP JUMPDEST PUSH1 0x20 MUL PUSH1 0x20 ADD ADD MLOAD PUSH2 0xF3D JUMP JUMPDEST DUP1 PUSH2 0xE93 DUP2 PUSH2 0x1ED8 JUMP JUMPDEST SWAP2 POP POP PUSH2 0xE44 JUMP JUMPDEST POP POP POP JUMP JUMPDEST PUSH1 0x0 DUP2 DUP2 MSTORE PUSH1 0x6D PUSH1 0x20 MSTORE PUSH1 0x40 DUP2 KECCAK256 SLOAD DUP3 SWAP1 PUSH2 0xECD JUMPI PUSH1 0x40 MLOAD PUSH3 0x461BCD PUSH1 0xE5 SHL DUP2 MSTORE PUSH1 0x4 ADD PUSH2 0x93B SWAP1 PUSH2 0x1D1D JUMP JUMPDEST POP POP PUSH1 0x0 SWAP1 DUP2 MSTORE PUSH1 0x6F PUSH1 0x20 MSTORE PUSH1 0x40 SWAP1 KECCAK256 SLOAD SWAP1 JUMP JUMPDEST PUSH2 0xEE9 PUSH2 0x1470 JUMP JUMPDEST TIMESTAMP PUSH1 0x6A SLOAD GT PUSH2 0xEF7 JUMPI PUSH1 0x0 DUP1 REVERT JUMPDEST DUP1 MLOAD PUSH2 0xF0A SWAP1 PUSH1 0x69 SWAP1 PUSH1 0x20 DUP5 ADD SWAP1 PUSH2 0x15EF JUMP JUMPDEST POP PUSH1 0x6B SLOAD PUSH1 0x40 MLOAD PUSH4 0xCF1BFE05 PUSH1 0xE0 SHL DUP2 MSTORE PUSH1 0x1 PUSH1 0x1 PUSH1 0xA0 SHL SUB SWAP1 SWAP2 AND SWAP1 PUSH4 0xCF1BFE05 SWAP1 PUSH2 0x754 SWAP1 ADDRESS SWAP1 DUP6 SWAP1 PUSH1 0x4 ADD PUSH2 0x1BE0 JUMP JUMPDEST PUSH2 0xF46 CALLER PUSH2 0xD01 JUMP JUMPDEST ISZERO ISZERO PUSH1 0x1 EQ PUSH2 0xF67 JUMPI PUSH1 0x40 MLOAD PUSH3 0x461BCD PUSH1 0xE5 SHL DUP2 MSTORE PUSH1 0x4 ADD PUSH2 0x93B SWAP1 PUSH2 0x1DB5 JUMP JUMPDEST PUSH1 0x0 DUP3 DUP2 MSTORE PUSH1 0x6D PUSH1 0x20 MSTORE PUSH1 0x40 SWAP1 KECCAK256 SLOAD DUP3 SWAP1 ISZERO PUSH2 0xFEB JUMPI PUSH1 0x40 MLOAD PUSH3 0x461BCD PUSH1 0xE5 SHL DUP2 MSTORE PUSH1 0x20 PUSH1 0x4 DUP3 ADD MSTORE PUSH1 0x3A PUSH1 0x24 DUP3 ADD MSTORE PUSH32 0x4572726F723A204F6E6C792068617368657320746861742068617665206E6F74 PUSH1 0x44 DUP3 ADD MSTORE PUSH32 0x206265656E206973737565642063616E20626520697373756564000000000000 PUSH1 0x64 DUP3 ADD MSTORE PUSH1 0x84 ADD PUSH2 0x93B JUMP JUMPDEST TIMESTAMP PUSH1 0x6A SLOAD GT PUSH2 0xFF9 JUMPI PUSH1 0x0 DUP1 REVERT JUMPDEST PUSH1 0x0 DUP4 DUP2 MSTORE PUSH1 0x6D PUSH1 0x20 SWAP1 DUP2 MSTORE PUSH1 0x40 DUP1 DUP4 KECCAK256 NUMBER SWAP1 SSTORE PUSH1 0x6F DUP3 MSTORE DUP1 DUP4 KECCAK256 DUP6 SWAP1 SSTORE PUSH1 0x70 SWAP1 SWAP2 MSTORE DUP1 DUP3 KECCAK256 DUP1 SLOAD PUSH1 0x1 PUSH1 0x1 PUSH1 0xA0 SHL SUB NOT AND CALLER OR SWAP1 SSTORE MLOAD DUP5 SWAP2 PUSH32 0x1A1249F2CAA0445B8391E02413D26F0D409DABE5330CD1D04D3D0801FC42DB3 SWAP2 LOG2 POP POP POP JUMP JUMPDEST PUSH2 0x1063 CALLER PUSH2 0xD01 JUMP JUMPDEST ISZERO ISZERO PUSH1 0x1 EQ PUSH2 0x1084 JUMPI PUSH1 0x40 MLOAD PUSH3 0x461BCD PUSH1 0xE5 SHL DUP2 MSTORE PUSH1 0x4 ADD PUSH2 0x93B SWAP1 PUSH2 0x1DB5 JUMP JUMPDEST PUSH1 0x0 DUP2 DUP2 MSTORE PUSH1 0x6E PUSH1 0x20 MSTORE PUSH1 0x40 SWAP1 KECCAK256 SLOAD DUP2 SWAP1 ISZERO PUSH2 0x10B2 JUMPI PUSH1 0x40 MLOAD PUSH3 0x461BCD PUSH1 0xE5 SHL DUP2 MSTORE PUSH1 0x4 ADD PUSH2 0x93B SWAP1 PUSH2 0x1D6E JUMP JUMPDEST TIMESTAMP PUSH1 0x6A SLOAD GT PUSH2 0x10C0 JUMPI PUSH1 0x0 DUP1 REVERT JUMPDEST PUSH1 0x0 DUP3 DUP2 MSTORE PUSH1 0x6E PUSH1 0x20 MSTORE PUSH1 0x40 DUP1 DUP3 KECCAK256 NUMBER SWAP1 SSTORE MLOAD DUP4 SWAP2 PUSH32 0x7283B5AB9758F7FBA773279E4FD50EA7B136BD1D8371DCAE9C5CE529C55343D7 SWAP2 LOG2 POP POP JUMP JUMPDEST PUSH1 0x0 DUP2 DUP2 MSTORE PUSH1 0x6D PUSH1 0x20 MSTORE PUSH1 0x40 DUP2 KECCAK256 SLOAD DUP3 SWAP1 PUSH2 0x1129 JUMPI PUSH1 0x40 MLOAD PUSH3 0x461BCD PUSH1 0xE5 SHL DUP2 MSTORE PUSH1 0x4 ADD PUSH2 0x93B SWAP1 PUSH2 0x1D1D JUMP JUMPDEST POP POP PUSH1 0x0 SWAP1 DUP2 MSTORE PUSH1 0x6D PUSH1 0x20 MSTORE PUSH1 0x40 SWAP1 KECCAK256 SLOAD SWAP1 JUMP JUMPDEST PUSH2 0x1145 PUSH2 0x1470 JUMP JUMPDEST TIMESTAMP PUSH1 0x6A SLOAD GT PUSH2 0x1153 JUMPI PUSH1 0x0 DUP1 REVERT JUMPDEST DUP1 MLOAD PUSH2 0x1166 SWAP1 PUSH1 0x65 SWAP1 PUSH1 0x20 DUP5 ADD SWAP1 PUSH2 0x15EF JUMP JUMPDEST POP PUSH1 0x6B SLOAD PUSH1 0x40 MLOAD PUSH4 0xC4876C7 PUSH1 0xE2 SHL DUP2 MSTORE PUSH1 0x1 PUSH1 0x1 PUSH1 0xA0 SHL SUB SWAP1 SWAP2 AND SWAP1 PUSH4 0x3121DB1C SWAP1 PUSH2 0x754 SWAP1 ADDRESS SWAP1 DUP6 SWAP1 PUSH1 0x4 ADD PUSH2 0x1BE0 JUMP JUMPDEST PUSH2 0x11A1 PUSH2 0x1470 JUMP JUMPDEST TIMESTAMP PUSH1 0x6A SLOAD GT PUSH2 0x11AF JUMPI PUSH1 0x0 DUP1 REVERT JUMPDEST PUSH1 0x6C SLOAD ISZERO PUSH2 0x11EF JUMPI PUSH1 0x6C DUP1 SLOAD DUP1 PUSH2 0x11C8 JUMPI PUSH2 0x11C8 PUSH2 0x1F01 JUMP JUMPDEST PUSH1 0x0 DUP3 DUP2 MSTORE PUSH1 0x20 SWAP1 KECCAK256 DUP2 ADD PUSH1 0x0 NOT SWAP1 DUP2 ADD DUP1 SLOAD PUSH1 0x1 PUSH1 0x1 PUSH1 0xA0 SHL SUB NOT AND SWAP1 SSTORE ADD SWAP1 SSTORE PUSH2 0x11AF JUMP JUMPDEST PUSH1 0x0 JUMPDEST DUP2 MLOAD DUP2 LT ISZERO PUSH2 0x1289 JUMPI PUSH2 0x121D DUP3 DUP3 DUP2 MLOAD DUP2 LT PUSH2 0x1210 JUMPI PUSH2 0x1210 PUSH2 0x1F17 JUMP JUMPDEST PUSH1 0x20 MUL PUSH1 0x20 ADD ADD MLOAD PUSH2 0xD01 JUMP JUMPDEST ISZERO PUSH2 0x1227 JUMPI PUSH2 0x1277 JUMP JUMPDEST PUSH1 0x6C DUP3 DUP3 DUP2 MLOAD DUP2 LT PUSH2 0x123B JUMPI PUSH2 0x123B PUSH2 0x1F17 JUMP JUMPDEST PUSH1 0x20 SWAP1 DUP2 MUL SWAP2 SWAP1 SWAP2 ADD DUP2 ADD MLOAD DUP3 SLOAD PUSH1 0x1 DUP2 ADD DUP5 SSTORE PUSH1 0x0 SWAP4 DUP5 MSTORE SWAP2 SWAP1 SWAP3 KECCAK256 ADD DUP1 SLOAD PUSH1 0x1 PUSH1 0x1 PUSH1 0xA0 SHL SUB NOT AND PUSH1 0x1 PUSH1 0x1 PUSH1 0xA0 SHL SUB SWAP1 SWAP3 AND SWAP2 SWAP1 SWAP2 OR SWAP1 SSTORE JUMPDEST DUP1 PUSH2 0x1281 DUP2 PUSH2 0x1ED8 JUMP JUMPDEST SWAP2 POP POP PUSH2 0x11F2 JUMP JUMPDEST POP ADDRESS PUSH1 0x1 PUSH1 0x1 PUSH1 0xA0 SHL SUB AND PUSH32 0x5769CAD5059D53ECD481A846D8FB5A548688F2858FC2D53BDF1D79C7AB2BE1BB PUSH1 0x6C PUSH1 0x40 MLOAD PUSH2 0x12C4 SWAP2 SWAP1 PUSH2 0x1C51 JUMP JUMPDEST PUSH1 0x40 MLOAD DUP1 SWAP2 SUB SWAP1 LOG2 POP JUMP JUMPDEST PUSH1 0x0 DUP2 PUSH1 0x40 MLOAD PUSH1 0x20 ADD PUSH2 0x12E4 SWAP2 DUP2 MSTORE PUSH1 0x20 ADD SWAP1 JUMP JUMPDEST PUSH1 0x40 MLOAD PUSH1 0x20 DUP2 DUP4 SUB SUB DUP2 MSTORE SWAP1 PUSH1 0x40 MSTORE DUP1 MLOAD SWAP1 PUSH1 0x20 ADD KECCAK256 SWAP1 POP SWAP2 SWAP1 POP JUMP JUMPDEST PUSH2 0x1309 PUSH2 0x1470 JUMP JUMPDEST PUSH1 0x6B SLOAD PUSH1 0x40 MLOAD PUSH4 0x1FF06121 PUSH1 0xE2 SHL DUP2 MSTORE ADDRESS PUSH1 0x4 DUP3 ADD MSTORE PUSH1 0x24 DUP2 ADD DUP4 SWAP1 MSTORE PUSH1 0x1 PUSH1 0x1 PUSH1 0xA0 SHL SUB SWAP1 SWAP2 AND SWAP1 PUSH4 0x7FC18484 SWAP1 PUSH1 0x44 ADD PUSH1 0x0 PUSH1 0x40 MLOAD DUP1 DUP4 SUB DUP2 PUSH1 0x0 DUP8 DUP1 EXTCODESIZE ISZERO DUP1 ISZERO PUSH2 0x1355 JUMPI PUSH1 0x0 DUP1 REVERT JUMPDEST POP GAS CALL ISZERO DUP1 ISZERO PUSH2 0x1369 JUMPI RETURNDATASIZE PUSH1 0x0 DUP1 RETURNDATACOPY RETURNDATASIZE PUSH1 0x0 REVERT JUMPDEST POP POP POP PUSH1 0x6A DUP3 SWAP1 SSTORE POP PUSH1 0x40 MLOAD PUSH32 0x8F522CC919845BF58B76C472A942579FF9D850D67559315C54848C31E0FC2515 SWAP1 PUSH2 0x7C6 SWAP1 PUSH1 0x65 SWAP1 PUSH1 0x66 SWAP1 PUSH1 0x67 SWAP1 PUSH1 0x68 SWAP1 PUSH1 0x69 SWAP1 DUP9 SWAP1 PUSH2 0x1CA8 JUMP JUMPDEST PUSH1 0x60 PUSH1 0x68 DUP1 SLOAD PUSH2 0x666 SWAP1 PUSH2 0x1EA3 JUMP JUMPDEST PUSH2 0x13C8 PUSH2 0x1470 JUMP JUMPDEST PUSH1 0x1 PUSH1 0x1 PUSH1 0xA0 SHL SUB DUP2 AND PUSH2 0x142D JUMPI PUSH1 0x40 MLOAD PUSH3 0x461BCD PUSH1 0xE5 SHL DUP2 MSTORE PUSH1 0x20 PUSH1 0x4 DUP3 ADD MSTORE PUSH1 0x26 PUSH1 0x24 DUP3 ADD MSTORE PUSH32 0x4F776E61626C653A206E6577206F776E657220697320746865207A65726F2061 PUSH1 0x44 DUP3 ADD MSTORE PUSH6 0x646472657373 PUSH1 0xD0 SHL PUSH1 0x64 DUP3 ADD MSTORE PUSH1 0x84 ADD PUSH2 0x93B JUMP JUMPDEST PUSH2 0x1436 DUP2 PUSH2 0x156D JUMP JUMPDEST POP JUMP JUMPDEST PUSH1 0x69 DUP1 SLOAD PUSH2 0x5D6 SWAP1 PUSH2 0x1EA3 JUMP JUMPDEST PUSH1 0x6C DUP2 DUP2 SLOAD DUP2 LT PUSH2 0x1456 JUMPI PUSH1 0x0 DUP1 REVERT JUMPDEST PUSH1 0x0 SWAP2 DUP3 MSTORE PUSH1 0x20 SWAP1 SWAP2 KECCAK256 ADD SLOAD PUSH1 0x1 PUSH1 0x1 PUSH1 0xA0 SHL SUB AND SWAP1 POP DUP2 JUMP JUMPDEST PUSH1 0x33 SLOAD PUSH1 0x1 PUSH1 0x1 PUSH1 0xA0 SHL SUB AND CALLER EQ PUSH2 0xD89 JUMPI PUSH1 0x40 MLOAD PUSH3 0x461BCD PUSH1 0xE5 SHL DUP2 MSTORE PUSH1 0x20 PUSH1 0x4 DUP3 ADD DUP2 SWAP1 MSTORE PUSH1 0x24 DUP3 ADD MSTORE PUSH32 0x4F776E61626C653A2063616C6C6572206973206E6F7420746865206F776E6572 PUSH1 0x44 DUP3 ADD MSTORE PUSH1 0x64 ADD PUSH2 0x93B JUMP JUMPDEST PUSH1 0x0 DUP2 DUP2 JUMPDEST DUP5 MLOAD DUP2 LT ISZERO PUSH2 0x1536 JUMPI PUSH1 0x0 DUP6 DUP3 DUP2 MLOAD DUP2 LT PUSH2 0x14EC JUMPI PUSH2 0x14EC PUSH2 0x1F17 JUMP JUMPDEST PUSH1 0x20 MUL PUSH1 0x20 ADD ADD MLOAD SWAP1 POP DUP1 DUP4 GT PUSH2 0x1512 JUMPI PUSH1 0x0 DUP4 DUP2 MSTORE PUSH1 0x20 DUP3 SWAP1 MSTORE PUSH1 0x40 SWAP1 KECCAK256 SWAP3 POP PUSH2 0x1523 JUMP JUMPDEST PUSH1 0x0 DUP2 DUP2 MSTORE PUSH1 0x20 DUP5 SWAP1 MSTORE PUSH1 0x40 SWAP1 KECCAK256 SWAP3 POP JUMPDEST POP DUP1 PUSH2 0x152E DUP2 PUSH2 0x1ED8 JUMP JUMPDEST SWAP2 POP POP PUSH2 0x14CF JUMP JUMPDEST POP SWAP4 SWAP3 POP POP POP JUMP JUMPDEST PUSH1 0x0 SLOAD PUSH2 0x100 SWAP1 DIV PUSH1 0xFF AND PUSH2 0x1565 JUMPI PUSH1 0x40 MLOAD PUSH3 0x461BCD PUSH1 0xE5 SHL DUP2 MSTORE PUSH1 0x4 ADD PUSH2 0x93B SWAP1 PUSH2 0x1E05 JUMP JUMPDEST PUSH2 0xD89 PUSH2 0x15BF JUMP JUMPDEST PUSH1 0x33 DUP1 SLOAD PUSH1 0x1 PUSH1 0x1 PUSH1 0xA0 SHL SUB DUP4 DUP2 AND PUSH1 0x1 PUSH1 0x1 PUSH1 0xA0 SHL SUB NOT DUP4 AND DUP2 OR SWAP1 SWAP4 SSTORE PUSH1 0x40 MLOAD SWAP2 AND SWAP2 SWAP1 DUP3 SWAP1 PUSH32 0x8BE0079C531659141344CD1FD0A4F28419497F9722A3DAAFE3B4186F6B6457E0 SWAP1 PUSH1 0x0 SWAP1 LOG3 POP POP JUMP JUMPDEST PUSH1 0x0 SLOAD PUSH2 0x100 SWAP1 DIV PUSH1 0xFF AND PUSH2 0x15E6 JUMPI PUSH1 0x40 MLOAD PUSH3 0x461BCD PUSH1 0xE5 SHL DUP2 MSTORE PUSH1 0x4 ADD PUSH2 0x93B SWAP1 PUSH2 0x1E05 JUMP JUMPDEST PUSH2 0xD89 CALLER PUSH2 0x156D JUMP JUMPDEST DUP3 DUP1 SLOAD PUSH2 0x15FB SWAP1 PUSH2 0x1EA3 JUMP JUMPDEST SWAP1 PUSH1 0x0 MSTORE PUSH1 0x20 PUSH1 0x0 KECCAK256 SWAP1 PUSH1 0x1F ADD PUSH1 0x20 SWAP1 DIV DUP2 ADD SWAP3 DUP3 PUSH2 0x161D JUMPI PUSH1 0x0 DUP6 SSTORE PUSH2 0x1663 JUMP JUMPDEST DUP3 PUSH1 0x1F LT PUSH2 0x1636 JUMPI DUP1 MLOAD PUSH1 0xFF NOT AND DUP4 DUP1 ADD OR DUP6 SSTORE PUSH2 0x1663 JUMP JUMPDEST DUP3 DUP1 ADD PUSH1 0x1 ADD DUP6 SSTORE DUP3 ISZERO PUSH2 0x1663 JUMPI SWAP2 DUP3 ADD JUMPDEST DUP3 DUP2 GT ISZERO PUSH2 0x1663 JUMPI DUP3 MLOAD DUP3 SSTORE SWAP2 PUSH1 0x20 ADD SWAP2 SWAP1 PUSH1 0x1 ADD SWAP1 PUSH2 0x1648 JUMP JUMPDEST POP PUSH2 0x166F SWAP3 SWAP2 POP PUSH2 0x1673 JUMP JUMPDEST POP SWAP1 JUMP JUMPDEST JUMPDEST DUP1 DUP3 GT ISZERO PUSH2 0x166F JUMPI PUSH1 0x0 DUP2 SSTORE PUSH1 0x1 ADD PUSH2 0x1674 JUMP JUMPDEST DUP1 CALLDATALOAD PUSH1 0x1 PUSH1 0x1 PUSH1 0xA0 SHL SUB DUP2 AND DUP2 EQ PUSH2 0x169F JUMPI PUSH1 0x0 DUP1 REVERT JUMPDEST SWAP2 SWAP1 POP JUMP JUMPDEST PUSH1 0x0 DUP3 PUSH1 0x1F DUP4 ADD SLT PUSH2 0x16B5 JUMPI PUSH1 0x0 DUP1 REVERT JUMPDEST DUP2 CALLDATALOAD PUSH1 0x20 PUSH2 0x16CA PUSH2 0x16C5 DUP4 PUSH2 0x1E80 JUMP JUMPDEST PUSH2 0x1E50 JUMP JUMPDEST DUP1 DUP4 DUP3 MSTORE DUP3 DUP3 ADD SWAP2 POP DUP3 DUP7 ADD DUP8 DUP5 DUP7 PUSH1 0x5 SHL DUP10 ADD ADD GT ISZERO PUSH2 0x16EA JUMPI PUSH1 0x0 DUP1 REVERT JUMPDEST PUSH1 0x0 JUMPDEST DUP6 DUP2 LT ISZERO PUSH2 0x1709 JUMPI DUP2 CALLDATALOAD DUP5 MSTORE SWAP3 DUP5 ADD SWAP3 SWAP1 DUP5 ADD SWAP1 PUSH1 0x1 ADD PUSH2 0x16ED JUMP JUMPDEST POP SWAP1 SWAP8 SWAP7 POP POP POP POP POP POP POP JUMP JUMPDEST PUSH1 0x0 DUP3 PUSH1 0x1F DUP4 ADD SLT PUSH2 0x1727 JUMPI PUSH1 0x0 DUP1 REVERT JUMPDEST DUP2 CALLDATALOAD PUSH1 0x1 PUSH1 0x1 PUSH1 0x40 SHL SUB DUP2 GT ISZERO PUSH2 0x1740 JUMPI PUSH2 0x1740 PUSH2 0x1F2D JUMP JUMPDEST PUSH2 0x1753 PUSH1 0x1F DUP3 ADD PUSH1 0x1F NOT AND PUSH1 0x20 ADD PUSH2 0x1E50 JUMP JUMPDEST DUP2 DUP2 MSTORE DUP5 PUSH1 0x20 DUP4 DUP7 ADD ADD GT ISZERO PUSH2 0x1768 JUMPI PUSH1 0x0 DUP1 REVERT JUMPDEST DUP2 PUSH1 0x20 DUP6 ADD PUSH1 0x20 DUP4 ADD CALLDATACOPY PUSH1 0x0 SWAP2 DUP2 ADD PUSH1 0x20 ADD SWAP2 SWAP1 SWAP2 MSTORE SWAP4 SWAP3 POP POP POP JUMP JUMPDEST PUSH1 0x0 PUSH1 0x20 DUP3 DUP5 SUB SLT ISZERO PUSH2 0x1797 JUMPI PUSH1 0x0 DUP1 REVERT JUMPDEST PUSH2 0x858 DUP3 PUSH2 0x1688 JUMP JUMPDEST PUSH1 0x0 PUSH1 0x20 DUP1 DUP4 DUP6 SUB SLT ISZERO PUSH2 0x17B3 JUMPI PUSH1 0x0 DUP1 REVERT JUMPDEST DUP3 CALLDATALOAD PUSH1 0x1 PUSH1 0x1 PUSH1 0x40 SHL SUB DUP2 GT ISZERO PUSH2 0x17C9 JUMPI PUSH1 0x0 DUP1 REVERT JUMPDEST DUP4 ADD PUSH1 0x1F DUP2 ADD DUP6 SGT PUSH2 0x17DA JUMPI PUSH1 0x0 DUP1 REVERT JUMPDEST DUP1 CALLDATALOAD PUSH2 0x17E8 PUSH2 0x16C5 DUP3 PUSH2 0x1E80 JUMP JUMPDEST DUP1 DUP3 DUP3 MSTORE DUP5 DUP3 ADD SWAP2 POP DUP5 DUP5 ADD DUP9 DUP7 DUP6 PUSH1 0x5 SHL DUP8 ADD ADD GT ISZERO PUSH2 0x1808 JUMPI PUSH1 0x0 DUP1 REVERT JUMPDEST PUSH1 0x0 SWAP5 POP JUMPDEST DUP4 DUP6 LT ISZERO PUSH2 0x1832 JUMPI PUSH2 0x181E DUP2 PUSH2 0x1688 JUMP JUMPDEST DUP4 MSTORE PUSH1 0x1 SWAP5 SWAP1 SWAP5 ADD SWAP4 SWAP2 DUP6 ADD SWAP2 DUP6 ADD PUSH2 0x180D JUMP JUMPDEST POP SWAP8 SWAP7 POP POP POP POP POP POP POP JUMP JUMPDEST PUSH1 0x0 PUSH1 0x20 DUP3 DUP5 SUB SLT ISZERO PUSH2 0x1850 JUMPI PUSH1 0x0 DUP1 REVERT JUMPDEST DUP2 CALLDATALOAD PUSH1 0x1 PUSH1 0x1 PUSH1 0x40 SHL SUB DUP2 GT ISZERO PUSH2 0x1866 JUMPI PUSH1 0x0 DUP1 REVERT JUMPDEST PUSH2 0x1872 DUP5 DUP3 DUP6 ADD PUSH2 0x16A4 JUMP JUMPDEST SWAP5 SWAP4 POP POP POP POP JUMP JUMPDEST PUSH1 0x0 DUP1 PUSH1 0x40 DUP4 DUP6 SUB SLT ISZERO PUSH2 0x188D JUMPI PUSH1 0x0 DUP1 REVERT JUMPDEST DUP3 CALLDATALOAD PUSH1 0x1 PUSH1 0x1 PUSH1 0x40 SHL SUB DUP1 DUP3 GT ISZERO PUSH2 0x18A4 JUMPI PUSH1 0x0 DUP1 REVERT JUMPDEST PUSH2 0x18B0 DUP7 DUP4 DUP8 ADD PUSH2 0x16A4 JUMP JUMPDEST SWAP4 POP PUSH1 0x20 SWAP2 POP DUP2 DUP6 ADD CALLDATALOAD DUP2 DUP2 GT ISZERO PUSH2 0x18C7 JUMPI PUSH1 0x0 DUP1 REVERT JUMPDEST DUP6 ADD SWAP1 POP PUSH1 0x1F DUP2 ADD DUP7 SGT PUSH2 0x18DA JUMPI PUSH1 0x0 DUP1 REVERT JUMPDEST DUP1 CALLDATALOAD PUSH2 0x18E8 PUSH2 0x16C5 DUP3 PUSH2 0x1E80 JUMP JUMPDEST DUP1 DUP3 DUP3 MSTORE DUP5 DUP3 ADD SWAP2 POP DUP5 DUP5 ADD DUP10 DUP7 DUP6 PUSH1 0x5 SHL DUP8 ADD ADD GT ISZERO PUSH2 0x1908 JUMPI PUSH1 0x0 DUP1 REVERT JUMPDEST PUSH1 0x0 SWAP5 POP JUMPDEST DUP4 DUP6 LT ISZERO PUSH2 0x192B JUMPI DUP1 CALLDATALOAD DUP4 MSTORE PUSH1 0x1 SWAP5 SWAP1 SWAP5 ADD SWAP4 SWAP2 DUP6 ADD SWAP2 DUP6 ADD PUSH2 0x190D JUMP JUMPDEST POP DUP1 SWAP6 POP POP POP POP POP POP SWAP3 POP SWAP3 SWAP1 POP JUMP JUMPDEST PUSH1 0x0 DUP1 PUSH1 0x0 PUSH1 0x60 DUP5 DUP7 SUB SLT ISZERO PUSH2 0x1950 JUMPI PUSH1 0x0 DUP1 REVERT JUMPDEST DUP4 CALLDATALOAD PUSH1 0x1 PUSH1 0x1 PUSH1 0x40 SHL SUB DUP2 GT ISZERO PUSH2 0x1966 JUMPI PUSH1 0x0 DUP1 REVERT JUMPDEST PUSH2 0x1972 DUP7 DUP3 DUP8 ADD PUSH2 0x16A4 JUMP JUMPDEST SWAP7 PUSH1 0x20 DUP7 ADD CALLDATALOAD SWAP7 POP PUSH1 0x40 SWAP1 SWAP6 ADD CALLDATALOAD SWAP5 SWAP4 POP POP POP POP JUMP JUMPDEST PUSH1 0x0 PUSH1 0x20 DUP3 DUP5 SUB SLT ISZERO PUSH2 0x199A JUMPI PUSH1 0x0 DUP1 REVERT JUMPDEST POP CALLDATALOAD SWAP2 SWAP1 POP JUMP JUMPDEST PUSH1 0x0 DUP1 PUSH1 0x40 DUP4 DUP6 SUB SLT ISZERO PUSH2 0x19B4 JUMPI PUSH1 0x0 DUP1 REVERT JUMPDEST POP POP DUP1 CALLDATALOAD SWAP3 PUSH1 0x20 SWAP1 SWAP2 ADD CALLDATALOAD SWAP2 POP JUMP JUMPDEST PUSH1 0x0 PUSH1 0x20 DUP3 DUP5 SUB SLT ISZERO PUSH2 0x19D5 JUMPI PUSH1 0x0 DUP1 REVERT JUMPDEST DUP2 CALLDATALOAD PUSH1 0x1 PUSH1 0x1 PUSH1 0x40 SHL SUB DUP2 GT ISZERO PUSH2 0x19EB JUMPI PUSH1 0x0 DUP1 REVERT JUMPDEST PUSH2 0x1872 DUP5 DUP3 DUP6 ADD PUSH2 0x1716 JUMP JUMPDEST PUSH1 0x0 DUP1 PUSH1 0x0 DUP1 PUSH1 0x0 DUP1 PUSH1 0x0 DUP1 PUSH2 0x100 DUP10 DUP12 SUB SLT ISZERO PUSH2 0x1A14 JUMPI PUSH1 0x0 DUP1 REVERT JUMPDEST DUP9 CALLDATALOAD PUSH1 0x1 PUSH1 0x1 PUSH1 0x40 SHL SUB DUP1 DUP3 GT ISZERO PUSH2 0x1A2B JUMPI PUSH1 0x0 DUP1 REVERT JUMPDEST PUSH2 0x1A37 DUP13 DUP4 DUP14 ADD PUSH2 0x1716 JUMP JUMPDEST SWAP10 POP PUSH1 0x20 DUP12 ADD CALLDATALOAD SWAP2 POP DUP1 DUP3 GT ISZERO PUSH2 0x1A4D JUMPI PUSH1 0x0 DUP1 REVERT JUMPDEST PUSH2 0x1A59 DUP13 DUP4 DUP14 ADD PUSH2 0x1716 JUMP JUMPDEST SWAP9 POP PUSH1 0x40 DUP12 ADD CALLDATALOAD SWAP2 POP DUP1 DUP3 GT ISZERO PUSH2 0x1A6F JUMPI PUSH1 0x0 DUP1 REVERT JUMPDEST PUSH2 0x1A7B DUP13 DUP4 DUP14 ADD PUSH2 0x1716 JUMP JUMPDEST SWAP8 POP PUSH1 0x60 DUP12 ADD CALLDATALOAD SWAP2 POP DUP1 DUP3 GT ISZERO PUSH2 0x1A91 JUMPI PUSH1 0x0 DUP1 REVERT JUMPDEST PUSH2 0x1A9D DUP13 DUP4 DUP14 ADD PUSH2 0x1716 JUMP JUMPDEST SWAP7 POP PUSH1 0x80 DUP12 ADD CALLDATALOAD SWAP2 POP DUP1 DUP3 GT ISZERO PUSH2 0x1AB3 JUMPI PUSH1 0x0 DUP1 REVERT JUMPDEST POP PUSH2 0x1AC0 DUP12 DUP3 DUP13 ADD PUSH2 0x1716 JUMP JUMPDEST SWAP5 POP POP PUSH1 0xA0 DUP10 ADD CALLDATALOAD SWAP3 POP PUSH2 0x1AD6 PUSH1 0xC0 DUP11 ADD PUSH2 0x1688 JUMP JUMPDEST SWAP2 POP PUSH2 0x1AE4 PUSH1 0xE0 DUP11 ADD PUSH2 0x1688 JUMP JUMPDEST SWAP1 POP SWAP3 SWAP6 SWAP9 POP SWAP3 SWAP6 SWAP9 SWAP1 SWAP4 SWAP7 POP JUMP JUMPDEST PUSH1 0x0 DUP2 MLOAD DUP1 DUP5 MSTORE PUSH1 0x0 JUMPDEST DUP2 DUP2 LT ISZERO PUSH2 0x1B19 JUMPI PUSH1 0x20 DUP2 DUP6 ADD DUP2 ADD MLOAD DUP7 DUP4 ADD DUP3 ADD MSTORE ADD PUSH2 0x1AFD JUMP JUMPDEST DUP2 DUP2 GT ISZERO PUSH2 0x1B2B JUMPI PUSH1 0x0 PUSH1 0x20 DUP4 DUP8 ADD ADD MSTORE JUMPDEST POP PUSH1 0x1F ADD PUSH1 0x1F NOT AND SWAP3 SWAP1 SWAP3 ADD PUSH1 0x20 ADD SWAP3 SWAP2 POP POP JUMP JUMPDEST DUP1 SLOAD PUSH1 0x0 SWAP1 PUSH1 0x1 DUP2 DUP2 SHR SWAP1 DUP1 DUP4 AND DUP1 PUSH2 0x1B5A JUMPI PUSH1 0x7F DUP4 AND SWAP3 POP JUMPDEST PUSH1 0x20 DUP1 DUP5 LT DUP3 EQ ISZERO PUSH2 0x1B7C JUMPI PUSH4 0x4E487B71 PUSH1 0xE0 SHL PUSH1 0x0 MSTORE PUSH1 0x22 PUSH1 0x4 MSTORE PUSH1 0x24 PUSH1 0x0 REVERT JUMPDEST DUP4 DUP9 MSTORE PUSH1 0x20 DUP9 ADD DUP3 DUP1 ISZERO PUSH2 0x1B97 JUMPI PUSH1 0x1 DUP2 EQ PUSH2 0x1BA8 JUMPI PUSH2 0x1BD3 JUMP JUMPDEST PUSH1 0xFF NOT DUP8 AND DUP3 MSTORE DUP3 DUP3 ADD SWAP8 POP PUSH2 0x1BD3 JUMP JUMPDEST PUSH1 0x0 DUP10 DUP2 MSTORE PUSH1 0x20 SWAP1 KECCAK256 PUSH1 0x0 JUMPDEST DUP8 DUP2 LT ISZERO PUSH2 0x1BCD JUMPI DUP2 SLOAD DUP5 DUP3 ADD MSTORE SWAP1 DUP7 ADD SWAP1 DUP5 ADD PUSH2 0x1BB4 JUMP JUMPDEST DUP4 ADD SWAP9 POP POP JUMPDEST POP POP POP POP POP POP POP SWAP3 SWAP2 POP POP JUMP JUMPDEST PUSH1 0x1 PUSH1 0x1 PUSH1 0xA0 SHL SUB DUP4 AND DUP2 MSTORE PUSH1 0x40 PUSH1 0x20 DUP3 ADD DUP2 SWAP1 MSTORE PUSH1 0x0 SWAP1 PUSH2 0x1872 SWAP1 DUP4 ADD DUP5 PUSH2 0x1AF3 JUMP JUMPDEST PUSH1 0x20 DUP1 DUP3 MSTORE DUP3 MLOAD DUP3 DUP3 ADD DUP2 SWAP1 MSTORE PUSH1 0x0 SWAP2 SWAP1 DUP5 DUP3 ADD SWAP1 PUSH1 0x40 DUP6 ADD SWAP1 DUP5 JUMPDEST DUP2 DUP2 LT ISZERO PUSH2 0x1C45 JUMPI DUP4 MLOAD PUSH1 0x1 PUSH1 0x1 PUSH1 0xA0 SHL SUB AND DUP4 MSTORE SWAP3 DUP5 ADD SWAP3 SWAP2 DUP5 ADD SWAP2 PUSH1 0x1 ADD PUSH2 0x1C20 JUMP JUMPDEST POP SWAP1 SWAP7 SWAP6 POP POP POP POP POP POP JUMP JUMPDEST PUSH1 0x20 DUP1 DUP3 MSTORE DUP3 SLOAD DUP3 DUP3 ADD DUP2 SWAP1 MSTORE PUSH1 0x0 DUP5 DUP2 MSTORE DUP3 DUP2 KECCAK256 SWAP1 SWAP3 SWAP2 PUSH1 0x40 DUP6 ADD SWAP1 DUP5 JUMPDEST DUP2 DUP2 LT ISZERO PUSH2 0x1C45 JUMPI DUP4 SLOAD PUSH1 0x1 PUSH1 0x1 PUSH1 0xA0 SHL SUB AND DUP4 MSTORE PUSH1 0x1 SWAP4 DUP5 ADD SWAP4 SWAP3 DUP6 ADD SWAP3 ADD PUSH2 0x1C70 JUMP JUMPDEST PUSH1 0x20 DUP2 MSTORE PUSH1 0x0 PUSH2 0x858 PUSH1 0x20 DUP4 ADD DUP5 PUSH2 0x1AF3 JUMP JUMPDEST PUSH1 0xC0 DUP2 MSTORE PUSH1 0x0 PUSH2 0x1CBB PUSH1 0xC0 DUP4 ADD DUP10 PUSH2 0x1B40 JUMP JUMPDEST DUP3 DUP2 SUB PUSH1 0x20 DUP5 ADD MSTORE PUSH2 0x1CCD DUP2 DUP10 PUSH2 0x1B40 JUMP JUMPDEST SWAP1 POP DUP3 DUP2 SUB PUSH1 0x40 DUP5 ADD MSTORE PUSH2 0x1CE1 DUP2 DUP9 PUSH2 0x1B40 JUMP JUMPDEST SWAP1 POP DUP3 DUP2 SUB PUSH1 0x60 DUP5 ADD MSTORE PUSH2 0x1CF5 DUP2 DUP8 PUSH2 0x1B40 JUMP JUMPDEST SWAP1 POP DUP3 DUP2 SUB PUSH1 0x80 DUP5 ADD MSTORE PUSH2 0x1D09 DUP2 DUP7 PUSH2 0x1B40 JUMP JUMPDEST SWAP2 POP POP DUP3 PUSH1 0xA0 DUP4 ADD MSTORE SWAP8 SWAP7 POP POP POP POP POP POP POP JUMP JUMPDEST PUSH1 0x20 DUP1 DUP3 MSTORE PUSH1 0x31 SWAP1 DUP3 ADD MSTORE PUSH32 0x4572726F723A204F6E6C792069737375656420646F63756D656E742068617368 PUSH1 0x40 DUP3 ADD MSTORE PUSH17 0x195CC818D85B881899481C995D9BDAD959 PUSH1 0x7A SHL PUSH1 0x60 DUP3 ADD MSTORE PUSH1 0x80 ADD SWAP1 JUMP JUMPDEST PUSH1 0x20 DUP1 DUP3 MSTORE PUSH1 0x27 SWAP1 DUP3 ADD MSTORE PUSH32 0x4572726F723A204861736820686173206265656E207265766F6B656420707265 PUSH1 0x40 DUP3 ADD MSTORE PUSH7 0x76696F75736C79 PUSH1 0xC8 SHL PUSH1 0x60 DUP3 ADD MSTORE PUSH1 0x80 ADD SWAP1 JUMP JUMPDEST PUSH1 0x20 DUP1 DUP3 MSTORE PUSH1 0x30 SWAP1 DUP3 ADD MSTORE PUSH32 0x4572726F723A204F6E6C79205075626C69736865722063616E207265766F6B65 PUSH1 0x40 DUP3 ADD MSTORE PUSH16 0x2F697373756520646F63756D656E7473 PUSH1 0x80 SHL PUSH1 0x60 DUP3 ADD MSTORE PUSH1 0x80 ADD SWAP1 JUMP JUMPDEST PUSH1 0x20 DUP1 DUP3 MSTORE PUSH1 0x2B SWAP1 DUP3 ADD MSTORE PUSH32 0x496E697469616C697A61626C653A20636F6E7472616374206973206E6F742069 PUSH1 0x40 DUP3 ADD MSTORE PUSH11 0x6E697469616C697A696E67 PUSH1 0xA8 SHL PUSH1 0x60 DUP3 ADD MSTORE PUSH1 0x80 ADD SWAP1 JUMP JUMPDEST PUSH1 0x40 MLOAD PUSH1 0x1F DUP3 ADD PUSH1 0x1F NOT AND DUP2 ADD PUSH1 0x1 PUSH1 0x1 PUSH1 0x40 SHL SUB DUP2 GT DUP3 DUP3 LT OR ISZERO PUSH2 0x1E78 JUMPI PUSH2 0x1E78 PUSH2 0x1F2D JUMP JUMPDEST PUSH1 0x40 MSTORE SWAP2 SWAP1 POP JUMP JUMPDEST PUSH1 0x0 PUSH1 0x1 PUSH1 0x1 PUSH1 0x40 SHL SUB DUP3 GT ISZERO PUSH2 0x1E99 JUMPI PUSH2 0x1E99 PUSH2 0x1F2D JUMP JUMPDEST POP PUSH1 0x5 SHL PUSH1 0x20 ADD SWAP1 JUMP JUMPDEST PUSH1 0x1 DUP2 DUP2 SHR SWAP1 DUP3 AND DUP1 PUSH2 0x1EB7 JUMPI PUSH1 0x7F DUP3 AND SWAP2 POP JUMPDEST PUSH1 0x20 DUP3 LT DUP2 EQ ISZERO PUSH2 0xCFB JUMPI PUSH4 0x4E487B71 PUSH1 0xE0 SHL PUSH1 0x0 MSTORE PUSH1 0x22 PUSH1 0x4 MSTORE PUSH1 0x24 PUSH1 0x0 REVERT JUMPDEST PUSH1 0x0 PUSH1 0x0 NOT DUP3 EQ ISZERO PUSH2 0x1EFA JUMPI PUSH4 0x4E487B71 PUSH1 0xE0 SHL PUSH1 0x0 MSTORE PUSH1 0x11 PUSH1 0x4 MSTORE PUSH1 0x24 PUSH1 0x0 REVERT JUMPDEST POP PUSH1 0x1 ADD SWAP1 JUMP JUMPDEST PUSH4 0x4E487B71 PUSH1 0xE0 SHL PUSH1 0x0 MSTORE PUSH1 0x31 PUSH1 0x4 MSTORE PUSH1 0x24 PUSH1 0x0 REVERT JUMPDEST PUSH4 0x4E487B71 PUSH1 0xE0 SHL PUSH1 0x0 MSTORE PUSH1 0x32 PUSH1 0x4 MSTORE PUSH1 0x24 PUSH1 0x0 REVERT JUMPDEST PUSH4 0x4E487B71 PUSH1 0xE0 SHL PUSH1 0x0 MSTORE PUSH1 0x41 PUSH1 0x4 MSTORE PUSH1 0x24 PUSH1 0x0 REVERT INVALID LOG2 PUSH5 0x6970667358 0x22 SLT KECCAK256 0xA9 0xE2 0xAF PUSH2 0x2DF5 GAS STATICCALL OR 0xFB DUP13 0xD7 CREATE2 COINBASE 0xD9 SAR 0xAE ADDMOD TIMESTAMP 0x29 CHAINID PUSH16 0x9583DDD9EB1FCE10DB4464736F6C6343 STOP ADDMOD SDIV STOP CALLER "},"methodIdentifiers":{"addPublishers(address[])":"d31a57d6","bulkIssue(bytes32[],uint256[])":"9dd516a5","bulkRevoke(bytes32[])":"4ada8076","documentExpiration(bytes32)":"d5fb36c5","documentIssued(bytes32)":"33358d2d","documentPublisher(bytes32)":"156e4b02","documentRevoked(bytes32)":"8bc36c91","email()":"820e93f5","expiredTime()":"8e32e421","getEmail()":"7e79e8ba","getExpirationDate(bytes32)":"a0f3a321","getExpiredTime()":"16f5f7d4","getHost()":"20bc4425","getIntentDeclaration()":"eb5face7","getIssuedBlock(bytes32)":"bf40b904","getLegalReference()":"38f186c2","getName()":"17d7de7c","getPublishers()":"6c6071aa","host()":"f437bc59","initialize(string,string,string,string,string,uint256,address,address)":"5e9057b5","intentDeclaration()":"707c21ac","isExpired(bytes32)":"6db2feb2","isIssued(bytes32)":"163aa631","isIssuedBefore(bytes32,uint256)":"5a9e03ca","isRevoked(bytes32)":"4294857f","isRevokedBefore(bytes32,uint256)":"339b6b39","issue(bytes32,uint256)":"a92abe37","legalReference()":"6ae08ffa","name()":"06fdde03","owner()":"8da5cb5b","publisherCheck(address)":"6df38d67","publishers(uint256)":"ff060fbd","removeAllPublishers()":"7d1feb6f","renounceOwnership()":"715018a6","revoke(bytes32)":"b75c7dc6","setEmail(string)":"282b065a","setExpiredTime(uint256)":"df8debed","setHost(string)":"a5ab89ff","setIntentDeclaration(string)":"3d4a3eb0","setLegalReference(string)":"2dc974d8","setName(string)":"c47f0027","testHashFunc(bytes32)":"d5e9b377","transferOwnership(address)":"f2fde38b","verify(bytes32[],bytes32,bytes32)":"5a9a49c7"}}}}}