{"contracts/DocumentStore.sol":{"DocumentStore":{"abi":[{"anonymous":false,"inputs":[{"indexed":true,"internalType":"address","name":"thisContract","type":"address"},{"indexed":false,"internalType":"uint256","name":"time","type":"uint256"}],"name":"ContractExpired","type":"event"},{"anonymous":false,"inputs":[{"indexed":false,"internalType":"string","name":"_name","type":"string"},{"indexed":false,"internalType":"string","name":"_email","type":"string"},{"indexed":false,"internalType":"string","name":"_legalReference","type":"string"},{"indexed":false,"internalType":"string","name":"_intentDeclaration","type":"string"},{"indexed":false,"internalType":"string","name":"_host","type":"string"},{"indexed":false,"internalType":"uint256","name":"_time","type":"uint256"}],"name":"ContractInfoChanged","type":"event"},{"anonymous":false,"inputs":[{"indexed":true,"internalType":"bytes32","name":"document","type":"bytes32"}],"name":"DocumentIssued","type":"event"},{"anonymous":false,"inputs":[{"indexed":true,"internalType":"bytes32","name":"document","type":"bytes32"}],"name":"DocumentRevoked","type":"event"},{"anonymous":false,"inputs":[{"indexed":false,"internalType":"uint8","name":"version","type":"uint8"}],"name":"Initialized","type":"event"},{"anonymous":false,"inputs":[{"indexed":true,"internalType":"address","name":"previousOwner","type":"address"},{"indexed":true,"internalType":"address","name":"newOwner","type":"address"}],"name":"OwnershipTransferred","type":"event"},{"anonymous":false,"inputs":[{"indexed":true,"internalType":"address","name":"documentStore","type":"address"},{"indexed":false,"internalType":"address[]","name":"currentPublishers","type":"address[]"}],"name":"PublisherChanged","type":"event"},{"inputs":[{"internalType":"address[]","name":"_newPublishers","type":"address[]"}],"name":"addPublishers","outputs":[],"stateMutability":"nonpayable","type":"function"},{"inputs":[{"internalType":"bytes32[]","name":"documents","type":"bytes32[]"},{"internalType":"uint256[]","name":"_expiredTime","type":"uint256[]"}],"name":"bulkIssue","outputs":[],"stateMutability":"nonpayable","type":"function"},{"inputs":[{"internalType":"bytes32[]","name":"documents","type":"bytes32[]"}],"name":"bulkRevoke","outputs":[],"stateMutability":"nonpayable","type":"function"},{"inputs":[{"internalType":"bytes32","name":"","type":"bytes32"}],"name":"documentExpiration","outputs":[{"internalType":"uint256","name":"","type":"uint256"}],"stateMutability":"view","type":"function"},{"inputs":[{"internalType":"bytes32","name":"","type":"bytes32"}],"name":"documentIssued","outputs":[{"internalType":"uint256","name":"","type":"uint256"}],"stateMutability":"view","type":"function"},{"inputs":[{"internalType":"bytes32","name":"","type":"bytes32"}],"name":"documentPublisher","outputs":[{"internalType":"address","name":"","type":"address"}],"stateMutability":"view","type":"function"},{"inputs":[{"internalType":"bytes32","name":"","type":"bytes32"}],"name":"documentRevoked","outputs":[{"internalType":"uint256","name":"","type":"uint256"}],"stateMutability":"view","type":"function"},{"inputs":[],"name":"email","outputs":[{"internalType":"string","name":"","type":"string"}],"stateMutability":"view","type":"function"},{"inputs":[],"name":"expiredTime","outputs":[{"internalType":"uint256","name":"","type":"uint256"}],"stateMutability":"view","type":"function"},{"inputs":[],"name":"getEmail","outputs":[{"internalType":"string","name":"","type":"string"}],"stateMutability":"view","type":"function"},{"inputs":[{"internalType":"bytes32","name":"document","type":"bytes32"}],"name":"getExpirationDate","outputs":[{"internalType":"uint256","name":"","type":"uint256"}],"stateMutability":"view","type":"function"},{"inputs":[],"name":"getExpiredTime","outputs":[{"internalType":"uint256","name":"","type":"uint256"}],"stateMutability":"view","type":"function"},{"inputs":[],"name":"getHost","outputs":[{"internalType":"string","name":"","type":"string"}],"stateMutability":"view","type":"function"},{"inputs":[],"name":"getIntentDeclaration","outputs":[{"internalType":"string","name":"","type":"string"}],"stateMutability":"view","type":"function"},{"inputs":[{"internalType":"bytes32","name":"document","type":"bytes32"}],"name":"getIssuedBlock","outputs":[{"internalType":"uint256","name":"","type":"uint256"}],"stateMutability":"view","type":"function"},{"inputs":[],"name":"getLegalReference","outputs":[{"internalType":"string","name":"","type":"string"}],"stateMutability":"view","type":"function"},{"inputs":[],"name":"getName","outputs":[{"internalType":"string","name":"","type":"string"}],"stateMutability":"view","type":"function"},{"inputs":[],"name":"getPublishers","outputs":[{"internalType":"address[]","name":"","type":"address[]"}],"stateMutability":"view","type":"function"},{"inputs":[],"name":"host","outputs":[{"internalType":"string","name":"","type":"string"}],"stateMutability":"view","type":"function"},{"inputs":[{"internalType":"string","name":"_name","type":"string"},{"internalType":"string","name":"_email","type":"string"},{"internalType":"string","name":"_legalReference","type":"string"},{"internalType":"string","name":"_intentDeclaration","type":"string"},{"internalType":"string","name":"_host","type":"string"},{"internalType":"uint256","name":"_time","type":"uint256"},{"internalType":"address","name":"_owner","type":"address"},{"internalType":"address","name":"_ownerManager","type":"address"}],"name":"initialize","outputs":[],"stateMutability":"nonpayable","type":"function"},{"inputs":[],"name":"intentDeclaration","outputs":[{"internalType":"string","name":"","type":"string"}],"stateMutability":"view","type":"function"},{"inputs":[{"internalType":"bytes32","name":"document","type":"bytes32"}],"name":"isExpired","outputs":[{"internalType":"bool","name":"","type":"bool"}],"stateMutability":"view","type":"function"},{"inputs":[{"internalType":"bytes32","name":"document","type":"bytes32"}],"name":"isIssued","outputs":[{"internalType":"bool","name":"","type":"bool"}],"stateMutability":"view","type":"function"},{"inputs":[{"internalType":"bytes32","name":"document","type":"bytes32"},{"internalType":"uint256","name":"blockNumber","type":"uint256"}],"name":"isIssuedBefore","outputs":[{"internalType":"bool","name":"","type":"bool"}],"stateMutability":"view","type":"function"},{"inputs":[{"internalType":"bytes32","name":"document","type":"bytes32"}],"name":"isRevoked","outputs":[{"internalType":"bool","name":"","type":"bool"}],"stateMutability":"view","type":"function"},{"inputs":[{"internalType":"bytes32","name":"document","type":"bytes32"},{"internalType":"uint256","name":"blockNumber","type":"uint256"}],"name":"isRevokedBefore","outputs":[{"internalType":"bool","name":"","type":"bool"}],"stateMutability":"view","type":"function"},{"inputs":[{"internalType":"bytes32","name":"document","type":"bytes32"},{"internalType":"uint256","name":"_expiredTime","type":"uint256"}],"name":"issue","outputs":[],"stateMutability":"nonpayable","type":"function"},{"inputs":[],"name":"legalReference","outputs":[{"internalType":"string","name":"","type":"string"}],"stateMutability":"view","type":"function"},{"inputs":[],"name":"name","outputs":[{"internalType":"string","name":"","type":"string"}],"stateMutability":"view","type":"function"},{"inputs":[],"name":"owner","outputs":[{"internalType":"address","name":"","type":"address"}],"stateMutability":"view","type":"function"},{"inputs":[{"internalType":"address","name":"_address","type":"address"}],"name":"publisherCheck","outputs":[{"internalType":"bool","name":"","type":"bool"}],"stateMutability":"view","type":"function"},{"inputs":[{"internalType":"uint256","name":"","type":"uint256"}],"name":"publishers","outputs":[{"internalType":"address","name":"","type":"address"}],"stateMutability":"view","type":"function"},{"inputs":[],"name":"removeAllPublishers","outputs":[],"stateMutability":"nonpayable","type":"function"},{"inputs":[],"name":"renounceOwnership","outputs":[],"stateMutability":"nonpayable","type":"function"},{"inputs":[{"internalType":"bytes32","name":"document","type":"bytes32"}],"name":"revoke","outputs":[],"stateMutability":"nonpayable","type":"function"},{"inputs":[{"internalType":"string","name":"_email","type":"string"}],"name":"setEmail","outputs":[],"stateMutability":"nonpayable","type":"function"},{"inputs":[{"internalType":"uint256","name":"_time","type":"uint256"}],"name":"setExpiredTime","outputs":[],"stateMutability":"nonpayable","type":"function"},{"inputs":[{"internalType":"string","name":"_host","type":"string"}],"name":"setHost","outputs":[],"stateMutability":"nonpayable","type":"function"},{"inputs":[{"internalType":"string","name":"_intentDeclaration","type":"string"}],"name":"setIntentDeclaration","outputs":[],"stateMutability":"nonpayable","type":"function"},{"inputs":[{"internalType":"string","name":"_legalReference","type":"string"}],"name":"setLegalReference","outputs":[],"stateMutability":"nonpayable","type":"function"},{"inputs":[{"internalType":"string","name":"_name","type":"string"}],"name":"setName","outputs":[],"stateMutability":"nonpayable","type":"function"},{"inputs":[{"internalType":"bytes32","name":"a","type":"bytes32"}],"name":"testHashFunc","outputs":[{"internalType":"bytes32","name":"","type":"bytes32"}],"stateMutability":"pure","type":"function"},{"inputs":[{"internalType":"address","name":"newOwner","type":"address"}],"name":"transferOwnership","outputs":[],"stateMutability":"nonpayable","type":"function"},{"inputs":[{"internalType":"bytes32[]","name":"proof","type":"bytes32[]"},{"internalType":"bytes32","name":"root","type":"bytes32"},{"internalType":"bytes32","name":"leaf","type":"bytes32"}],"name":"verify","outputs":[{"internalType":"bool","name":"","type":"bool"}],"stateMutability":"view","type":"function"}],"evm":{"bytecode":{"linkReferences":{},"object":"608060405234801561001057600080fd5b50611ee4806100206000396000f3fe608060405234801561001057600080fd5b50600436106102045760003560e01c806306fdde0314610209578063156e4b0214610227578063163aa6311461026857806316f5f7d41461028b57806317d7de7c1461029d57806320bc4425146102a5578063282b065a146102ad5780632dc974d8146102c257806333358d2d146102d5578063339b6b39146102f557806338f186c2146103085780633d4a3eb0146103105780634294857f146103235780634ada8076146103365780635a9a49c7146103495780635a9e03ca1461035c5780635e9057b51461036f5780636ae08ffa146103825780636c6071aa1461038a5780636db2feb21461039f5780636df38d67146103b2578063707c21ac146103c5578063715018a6146103cd5780637d1feb6f146103d55780637e79e8ba146103dd578063820e93f5146103e55780638bc36c91146103ed5780638da5cb5b1461040d5780638e32e421146104155780639dd516a51461041e578063a0f3a32114610431578063a5ab89ff14610444578063a92abe3714610457578063b75c7dc61461046a578063bf40b9041461047d578063c47f002714610490578063d31a57d6146104a3578063d5e9b377146104b6578063d5fb36c5146104c9578063df8debed146104e9578063eb5face7146104fc578063f2fde38b14610504578063f437bc5914610517578063ff060fbd1461051f575b600080fd5b610211610532565b60405161021e9190611bc0565b60405180910390f35b6102506102353660046118b3565b6070602052600090815260409020546001600160a01b031681565b6040516001600160a01b03909116815260200161021e565b61027b6102763660046118b3565b6105c0565b604051901515815260200161021e565b606a545b60405190815260200161021e565b6102116105d4565b610211610666565b6102c06102bb3660046118ee565b610675565b005b6102c06102d03660046118ee565b61073c565b61028f6102e33660046118b3565b606d6020526000908152604090205481565b61027b6103033660046118cc565b610798565b6102116107ca565b6102c061031e3660046118ee565b6107d9565b61027b6103313660046118b3565b610835565b6102c0610344366004611769565b610849565b61027b610357366004611866565b61088d565b61027b61036a3660046118cc565b61092f565b6102c061037d366004611922565b61095d565b610211610b9d565b610392610baa565b60405161021e9190611b2f565b61027b6103ad3660046118b3565b610c0b565b61027b6103c03660046116b0565b610c69565b610211610cd2565b6102c0610cdf565b6102c0610cf3565b610211610d7b565b610211610d8a565b61028f6103fb3660046118b3565b606e6020526000908152604090205481565b610250610d97565b61028f606a5481565b6102c061042c3660046117a5565b610da6565b61028f61043f3660046118b3565b610e05565b6102c06104523660046118ee565b610e41565b6102c06104653660046118cc565b610e9d565b6102c06104783660046118b3565b610fb0565b61028f61048b3660046118b3565b61104b565b6102c061049e3660046118ee565b611087565b6102c06104b13660046116cb565b6110e3565b61028f6104c43660046118b3565b611207565b61028f6104d73660046118b3565b606f6020526000908152604090205481565b6102c06104f73660046118b3565b611239565b6102116112d7565b6102c06105123660046116b0565b6112e6565b61021161135f565b61025061052d3660046118b3565b61136c565b6065805461053f90611dce565b80601f016020809104026020016040519081016040528092919081815260200182805461056b90611dce565b80156105b85780601f1061058d576101008083540402835291602001916105b8565b820191906000526020600020905b81548152906001019060200180831161059b57829003601f168201915b505050505081565b6000908152606d6020526040902054151590565b6060606580546105e390611dce565b80601f016020809104026020016040519081016040528092919081815260200182805461060f90611dce565b801561065c5780601f106106315761010080835404028352916020019161065c565b820191906000526020600020905b81548152906001019060200180831161063f57829003601f168201915b5050505050905090565b6060606980546105e390611dce565b61067d611396565b42606a541161068b57600080fd5b805161069e90606690602084019061151a565b50606b546040516368c35c4b60e01b81526001600160a01b03909116906368c35c4b906106d19030908590600401611b0b565b600060405180830381600087803b1580156106eb57600080fd5b505af11580156106ff573d6000803e3d6000fd5b50505050600080516020611e8f83398151915260656066606760686069606a5460405161073196959493929190611bd3565b60405180910390a150565b610744611396565b42606a541161075257600080fd5b805161076590606790602084019061151a565b50606b54604051636ac012d560e01b81526001600160a01b0390911690636ac012d5906106d19030908590600401611b0b565b6000828152606e602052604081205482108015906107c357506000838152606e602052604090205415155b9392505050565b6060606780546105e390611dce565b6107e1611396565b42606a54116107ef57600080fd5b805161080290606890602084019061151a565b50606b5460405163db7cd7fb60e01b81526001600160a01b039091169063db7cd7fb906106d19030908590600401611b0b565b6000908152606e6020526040902054151590565b60005b81518110156108895761087782828151811061086a5761086a611e42565b6020026020010151610fb0565b8061088181611e03565b91505061084c565b5050565b600082610899816105c0565b6108be5760405162461bcd60e51b81526004016108b590611c48565b60405180910390fd5b836108c881610835565b156108e55760405162461bcd60e51b81526004016108b590611c99565b42606a54116108f357600080fd5b6108fc85610c0b565b1561090657600080fd5b61090f84610835565b1561091957600080fd5b8461092487866113f5565b149695505050505050565b6000828152606d6020526040812054158015906107c35750506000918252606d602052604090912054111590565b600054610100900460ff161580801561097d5750600054600160ff909116105b806109975750303b158015610997575060005460ff166001145b6109fa5760405162461bcd60e51b815260206004820152602e60248201527f496e697469616c697a61626c653a20636f6e747261637420697320616c72656160448201526d191e481a5b9a5d1a585b1a5e995960921b60648201526084016108b5565b6000805460ff191660011790558015610a1d576000805461ff0019166101001790555b428411610a6c5760405162461bcd60e51b815260206004820152601e60248201527f4572726f723a206578706972656420646174652068617320706173736564000060448201526064016108b5565b610a74611469565b610a7d836112e6565b606c80546001810182556000919091527f2b4a51ab505fc96a0952efda2ba61bcd3078d4c02c39a186ec16f21883fbe0160180546001600160a01b0319166001600160a01b0385161790558851610adb9060659060208c019061151a565b508751610aef9060669060208b019061151a565b508651610b039060679060208a019061151a565b508551610b1790606890602089019061151a565b508451610b2b90606990602088019061151a565b50606b80546001600160a01b0319166001600160a01b038416179055606a8490558015610b92576000805461ff0019169055604051600181527f7f26b83ff96e1f2b6a682f133852f6798a09c465da95921460cefb38474024989060200160405180910390a15b505050505050505050565b6067805461053f90611dce565b6060606c80548060200260200160405190810160405280929190818152602001828054801561065c57602002820191906000526020600020905b81546001600160a01b03168152600190910190602001808311610be4575050505050905090565b600081610c17816105c0565b610c335760405162461bcd60e51b81526004016108b590611c48565b6000838152606f602052604090205415610c5d576000838152606f60205260409020544211610c60565b60005b91505b50919050565b600080805b606c54811015610ccb57836001600160a01b0316606c8281548110610c9557610c95611e42565b6000918252602090912001546001600160a01b03161415610cb95760019150610ccb565b80610cc381611e03565b915050610c6e565b5092915050565b6068805461053f90611dce565b610ce7611396565b610cf16000611498565b565b610cfb611396565b42606a5411610d0957600080fd5b606c5415610d4957606c805480610d2257610d22611e2c565b600082815260209020810160001990810180546001600160a01b0319169055019055610d09565b306001600160a01b0316600080516020611e6f833981519152606c604051610d719190611b7c565b60405180910390a2565b6060606680546105e390611dce565b6066805461053f90611dce565b6033546001600160a01b031690565b60005b8251811015610e0057610dee838281518110610dc757610dc7611e42565b6020026020010151838381518110610de157610de1611e42565b6020026020010151610e9d565b80610df881611e03565b915050610da9565b505050565b600081610e11816105c0565b610e2d5760405162461bcd60e51b81526004016108b590611c48565b50506000908152606f602052604090205490565b610e49611396565b42606a5411610e5757600080fd5b8051610e6a90606990602084019061151a565b50606b5460405163cf1bfe0560e01b81526001600160a01b039091169063cf1bfe05906106d19030908590600401611b0b565b610ea633610c69565b1515600114610ec75760405162461bcd60e51b81526004016108b590611ce0565b81610ed1816105c0565b15610f415760405162461bcd60e51b815260206004820152603a60248201527f4572726f723a204f6e6c792068617368657320746861742068617665206e6f74604482015279081899595b881a5cdcdd59590818d85b881899481a5cdcdd595960321b60648201526084016108b5565b42606a5411610f4f57600080fd5b6000838152606d60209081526040808320439055606f8252808320859055607090915280822080546001600160a01b031916331790555184917f01a1249f2caa0445b8391e02413d26f0d409dabe5330cd1d04d3d0801fc42db391a2505050565b610fb933610c69565b1515600114610fda5760405162461bcd60e51b81526004016108b590611ce0565b80610fe481610835565b156110015760405162461bcd60e51b81526004016108b590611c99565b42606a541161100f57600080fd5b6000828152606e60205260408082204390555183917f7283b5ab9758f7fba773279e4fd50ea7b136bd1d8371dcae9c5ce529c55343d791a25050565b600081611057816105c0565b6110735760405162461bcd60e51b81526004016108b590611c48565b50506000908152606d602052604090205490565b61108f611396565b42606a541161109d57600080fd5b80516110b090606590602084019061151a565b50606b54604051630c4876c760e21b81526001600160a01b0390911690633121db1c906106d19030908590600401611b0b565b6110eb611396565b42606a54116110f957600080fd5b606c541561113957606c80548061111257611112611e2c565b600082815260209020810160001990810180546001600160a01b03191690550190556110f9565b60005b81518110156111d35761116782828151811061115a5761115a611e42565b6020026020010151610c69565b15611171576111c1565b606c82828151811061118557611185611e42565b60209081029190910181015182546001810184556000938452919092200180546001600160a01b0319166001600160a01b039092169190911790555b806111cb81611e03565b91505061113c565b50306001600160a01b0316600080516020611e6f833981519152606c6040516111fc9190611b7c565b60405180910390a250565b60008160405160200161121c91815260200190565b604051602081830303815290604052805190602001209050919050565b611241611396565b606b54604051631ff0612160e21b8152306004820152602481018390526001600160a01b0390911690637fc1848490604401600060405180830381600087803b15801561128d57600080fd5b505af11580156112a1573d6000803e3d6000fd5b505050606a82905550604051600080516020611e8f83398151915290610731906065906066906067906068906069908890611bd3565b6060606880546105e390611dce565b6112ee611396565b6001600160a01b0381166113535760405162461bcd60e51b815260206004820152602660248201527f4f776e61626c653a206e6577206f776e657220697320746865207a65726f206160448201526564647265737360d01b60648201526084016108b5565b61135c81611498565b50565b6069805461053f90611dce565b606c818154811061137c57600080fd5b6000918252602090912001546001600160a01b0316905081565b3361139f610d97565b6001600160a01b031614610cf15760405162461bcd60e51b815260206004820181905260248201527f4f776e61626c653a2063616c6c6572206973206e6f7420746865206f776e657260448201526064016108b5565b600081815b845181101561146157600085828151811061141757611417611e42565b6020026020010151905080831161143d576000838152602082905260409020925061144e565b600081815260208490526040902092505b508061145981611e03565b9150506113fa565b509392505050565b600054610100900460ff166114905760405162461bcd60e51b81526004016108b590611d30565b610cf16114ea565b603380546001600160a01b038381166001600160a01b0319831681179093556040519116919082907f8be0079c531659141344cd1fd0a4f28419497f9722a3daafe3b4186f6b6457e090600090a35050565b600054610100900460ff166115115760405162461bcd60e51b81526004016108b590611d30565b610cf133611498565b82805461152690611dce565b90600052602060002090601f016020900481019282611548576000855561158e565b82601f1061156157805160ff191683800117855561158e565b8280016001018555821561158e579182015b8281111561158e578251825591602001919060010190611573565b5061159a92915061159e565b5090565b5b8082111561159a576000815560010161159f565b80356001600160a01b03811681146115ca57600080fd5b919050565b600082601f8301126115e057600080fd5b813560206115f56115f083611dab565b611d7b565b80838252828201915082860187848660051b890101111561161557600080fd5b60005b8581101561163457813584529284019290840190600101611618565b5090979650505050505050565b600082601f83011261165257600080fd5b81356001600160401b0381111561166b5761166b611e58565b61167e601f8201601f1916602001611d7b565b81815284602083860101111561169357600080fd5b816020850160208301376000918101602001919091529392505050565b6000602082840312156116c257600080fd5b6107c3826115b3565b600060208083850312156116de57600080fd5b82356001600160401b038111156116f457600080fd5b8301601f8101851361170557600080fd5b80356117136115f082611dab565b80828252848201915084840188868560051b870101111561173357600080fd5b600094505b8385101561175d57611749816115b3565b835260019490940193918501918501611738565b50979650505050505050565b60006020828403121561177b57600080fd5b81356001600160401b0381111561179157600080fd5b61179d848285016115cf565b949350505050565b600080604083850312156117b857600080fd5b82356001600160401b03808211156117cf57600080fd5b6117db868387016115cf565b93506020915081850135818111156117f257600080fd5b85019050601f8101861361180557600080fd5b80356118136115f082611dab565b80828252848201915084840189868560051b870101111561183357600080fd5b600094505b83851015611856578035835260019490940193918501918501611838565b5080955050505050509250929050565b60008060006060848603121561187b57600080fd5b83356001600160401b0381111561189157600080fd5b61189d868287016115cf565b9660208601359650604090950135949350505050565b6000602082840312156118c557600080fd5b5035919050565b600080604083850312156118df57600080fd5b50508035926020909101359150565b60006020828403121561190057600080fd5b81356001600160401b0381111561191657600080fd5b61179d84828501611641565b600080600080600080600080610100898b03121561193f57600080fd5b88356001600160401b038082111561195657600080fd5b6119628c838d01611641565b995060208b013591508082111561197857600080fd5b6119848c838d01611641565b985060408b013591508082111561199a57600080fd5b6119a68c838d01611641565b975060608b01359150808211156119bc57600080fd5b6119c88c838d01611641565b965060808b01359150808211156119de57600080fd5b506119eb8b828c01611641565b94505060a08901359250611a0160c08a016115b3565b9150611a0f60e08a016115b3565b90509295985092959890939650565b6000815180845260005b81811015611a4457602081850181015186830182015201611a28565b81811115611a56576000602083870101525b50601f01601f19169290920160200192915050565b8054600090600181811c9080831680611a8557607f831692505b6020808410821415611aa757634e487b7160e01b600052602260045260246000fd5b83885260208801828015611ac25760018114611ad357611afe565b60ff19871682528282019750611afe565b60008981526020902060005b87811015611af857815484820152908601908401611adf565b83019850505b5050505050505092915050565b6001600160a01b038316815260406020820181905260009061179d90830184611a1e565b6020808252825182820181905260009190848201906040850190845b81811015611b705783516001600160a01b031683529284019291840191600101611b4b565b50909695505050505050565b6020808252825482820181905260008481528281209092916040850190845b81811015611b705783546001600160a01b031683526001938401939285019201611b9b565b6020815260006107c36020830184611a1e565b60c081526000611be660c0830189611a6b565b8281036020840152611bf88189611a6b565b90508281036040840152611c0c8188611a6b565b90508281036060840152611c208187611a6b565b90508281036080840152611c348186611a6b565b9150508260a0830152979650505050505050565b60208082526031908201527f4572726f723a204f6e6c792069737375656420646f63756d656e742068617368604082015270195cc818d85b881899481c995d9bdad959607a1b606082015260800190565b60208082526027908201527f4572726f723a204861736820686173206265656e207265766f6b65642070726560408201526676696f75736c7960c81b606082015260800190565b60208082526030908201527f4572726f723a204f6e6c79205075626c69736865722063616e207265766f6b6560408201526f2f697373756520646f63756d656e747360801b606082015260800190565b6020808252602b908201527f496e697469616c697a61626c653a20636f6e7472616374206973206e6f74206960408201526a6e697469616c697a696e6760a81b606082015260800190565b604051601f8201601f191681016001600160401b0381118282101715611da357611da3611e58565b604052919050565b60006001600160401b03821115611dc457611dc4611e58565b5060051b60200190565b600181811c90821680611de257607f821691505b60208210811415610c6357634e487b7160e01b600052602260045260246000fd5b6000600019821415611e2557634e487b7160e01b600052601160045260246000fd5b5060010190565b634e487b7160e01b600052603160045260246000fd5b634e487b7160e01b600052603260045260246000fd5b634e487b7160e01b600052604160045260246000fdfe5769cad5059d53ecd481a846d8fb5a548688f2858fc2d53bdf1d79c7ab2be1bb8f522cc919845bf58b76c472a942579ff9d850d67559315c54848c31e0fc2515a2646970667358221220891e11056af1ddb607a450d82217e703902092d10ba92797f8fcb433d88cde4464736f6c63430008050033","opcodes":"PUSH1 0x80 PUSH1 0x40 MSTORE CALLVALUE DUP1 ISZERO PUSH2 0x10 JUMPI PUSH1 0x0 DUP1 REVERT JUMPDEST POP PUSH2 0x1EE4 DUP1 PUSH2 0x20 PUSH1 0x0 CODECOPY PUSH1 0x0 RETURN INVALID PUSH1 0x80 PUSH1 0x40 MSTORE CALLVALUE DUP1 ISZERO PUSH2 0x10 JUMPI PUSH1 0x0 DUP1 REVERT JUMPDEST POP PUSH1 0x4 CALLDATASIZE LT PUSH2 0x204 JUMPI PUSH1 0x0 CALLDATALOAD PUSH1 0xE0 SHR DUP1 PUSH4 0x6FDDE03 EQ PUSH2 0x209 JUMPI DUP1 PUSH4 0x156E4B02 EQ PUSH2 0x227 JUMPI DUP1 PUSH4 0x163AA631 EQ PUSH2 0x268 JUMPI DUP1 PUSH4 0x16F5F7D4 EQ PUSH2 0x28B JUMPI DUP1 PUSH4 0x17D7DE7C EQ PUSH2 0x29D JUMPI DUP1 PUSH4 0x20BC4425 EQ PUSH2 0x2A5 JUMPI DUP1 PUSH4 0x282B065A EQ PUSH2 0x2AD JUMPI DUP1 PUSH4 0x2DC974D8 EQ PUSH2 0x2C2 JUMPI DUP1 PUSH4 0x33358D2D EQ PUSH2 0x2D5 JUMPI DUP1 PUSH4 0x339B6B39 EQ PUSH2 0x2F5 JUMPI DUP1 PUSH4 0x38F186C2 EQ PUSH2 0x308 JUMPI DUP1 PUSH4 0x3D4A3EB0 EQ PUSH2 0x310 JUMPI DUP1 PUSH4 0x4294857F EQ PUSH2 0x323 JUMPI DUP1 PUSH4 0x4ADA8076 EQ PUSH2 0x336 JUMPI DUP1 PUSH4 0x5A9A49C7 EQ PUSH2 0x349 JUMPI DUP1 PUSH4 0x5A9E03CA EQ PUSH2 0x35C JUMPI DUP1 PUSH4 0x5E9057B5 EQ PUSH2 0x36F JUMPI DUP1 PUSH4 0x6AE08FFA EQ PUSH2 0x382 JUMPI DUP1 PUSH4 0x6C6071AA EQ PUSH2 0x38A JUMPI DUP1 PUSH4 0x6DB2FEB2 EQ PUSH2 0x39F JUMPI DUP1 PUSH4 0x6DF38D67 EQ PUSH2 0x3B2 JUMPI DUP1 PUSH4 0x707C21AC EQ PUSH2 0x3C5 JUMPI DUP1 PUSH4 0x715018A6 EQ PUSH2 0x3CD JUMPI DUP1 PUSH4 0x7D1FEB6F EQ PUSH2 0x3D5 JUMPI DUP1 PUSH4 0x7E79E8BA EQ PUSH2 0x3DD JUMPI DUP1 PUSH4 0x820E93F5 EQ PUSH2 0x3E5 JUMPI DUP1 PUSH4 0x8BC36C91 EQ PUSH2 0x3ED JUMPI DUP1 PUSH4 0x8DA5CB5B EQ PUSH2 0x40D JUMPI DUP1 PUSH4 0x8E32E421 EQ PUSH2 0x415 JUMPI DUP1 PUSH4 0x9DD516A5 EQ PUSH2 0x41E JUMPI DUP1 PUSH4 0xA0F3A321 EQ PUSH2 0x431 JUMPI DUP1 PUSH4 0xA5AB89FF EQ PUSH2 0x444 JUMPI DUP1 PUSH4 0xA92ABE37 EQ PUSH2 0x457 JUMPI DUP1 PUSH4 0xB75C7DC6 EQ PUSH2 0x46A JUMPI DUP1 PUSH4 0xBF40B904 EQ PUSH2 0x47D JUMPI DUP1 PUSH4 0xC47F0027 EQ PUSH2 0x490 JUMPI DUP1 PUSH4 0xD31A57D6 EQ PUSH2 0x4A3 JUMPI DUP1 PUSH4 0xD5E9B377 EQ PUSH2 0x4B6 JUMPI DUP1 PUSH4 0xD5FB36C5 EQ PUSH2 0x4C9 JUMPI DUP1 PUSH4 0xDF8DEBED EQ PUSH2 0x4E9 JUMPI DUP1 PUSH4 0xEB5FACE7 EQ PUSH2 0x4FC JUMPI DUP1 PUSH4 0xF2FDE38B EQ PUSH2 0x504 JUMPI DUP1 PUSH4 0xF437BC59 EQ PUSH2 0x517 JUMPI DUP1 PUSH4 0xFF060FBD EQ PUSH2 0x51F JUMPI JUMPDEST PUSH1 0x0 DUP1 REVERT JUMPDEST PUSH2 0x211 PUSH2 0x532 JUMP JUMPDEST PUSH1 0x40 MLOAD PUSH2 0x21E SWAP2 SWAP1 PUSH2 0x1BC0 JUMP JUMPDEST PUSH1 0x40 MLOAD DUP1 SWAP2 SUB SWAP1 RETURN JUMPDEST PUSH2 0x250 PUSH2 0x235 CALLDATASIZE PUSH1 0x4 PUSH2 0x18B3 JUMP JUMPDEST PUSH1 0x70 PUSH1 0x20 MSTORE PUSH1 0x0 SWAP1 DUP2 MSTORE PUSH1 0x40 SWAP1 KECCAK256 SLOAD PUSH1 0x1 PUSH1 0x1 PUSH1 0xA0 SHL SUB AND DUP2 JUMP JUMPDEST PUSH1 0x40 MLOAD PUSH1 0x1 PUSH1 0x1 PUSH1 0xA0 SHL SUB SWAP1 SWAP2 AND DUP2 MSTORE PUSH1 0x20 ADD PUSH2 0x21E JUMP JUMPDEST PUSH2 0x27B PUSH2 0x276 CALLDATASIZE PUSH1 0x4 PUSH2 0x18B3 JUMP JUMPDEST PUSH2 0x5C0 JUMP JUMPDEST PUSH1 0x40 MLOAD SWAP1 ISZERO ISZERO DUP2 MSTORE PUSH1 0x20 ADD PUSH2 0x21E JUMP JUMPDEST PUSH1 0x6A SLOAD JUMPDEST PUSH1 0x40 MLOAD SWAP1 DUP2 MSTORE PUSH1 0x20 ADD PUSH2 0x21E JUMP JUMPDEST PUSH2 0x211 PUSH2 0x5D4 JUMP JUMPDEST PUSH2 0x211 PUSH2 0x666 JUMP JUMPDEST PUSH2 0x2C0 PUSH2 0x2BB CALLDATASIZE PUSH1 0x4 PUSH2 0x18EE JUMP JUMPDEST PUSH2 0x675 JUMP JUMPDEST STOP JUMPDEST PUSH2 0x2C0 PUSH2 0x2D0 CALLDATASIZE PUSH1 0x4 PUSH2 0x18EE JUMP JUMPDEST PUSH2 0x73C JUMP JUMPDEST PUSH2 0x28F PUSH2 0x2E3 CALLDATASIZE PUSH1 0x4 PUSH2 0x18B3 JUMP JUMPDEST PUSH1 0x6D PUSH1 0x20 MSTORE PUSH1 0x0 SWAP1 DUP2 MSTORE PUSH1 0x40 SWAP1 KECCAK256 SLOAD DUP2 JUMP JUMPDEST PUSH2 0x27B PUSH2 0x303 CALLDATASIZE PUSH1 0x4 PUSH2 0x18CC JUMP JUMPDEST PUSH2 0x798 JUMP JUMPDEST PUSH2 0x211 PUSH2 0x7CA JUMP JUMPDEST PUSH2 0x2C0 PUSH2 0x31E CALLDATASIZE PUSH1 0x4 PUSH2 0x18EE JUMP JUMPDEST PUSH2 0x7D9 JUMP JUMPDEST PUSH2 0x27B PUSH2 0x331 CALLDATASIZE PUSH1 0x4 PUSH2 0x18B3 JUMP JUMPDEST PUSH2 0x835 JUMP JUMPDEST PUSH2 0x2C0 PUSH2 0x344 CALLDATASIZE PUSH1 0x4 PUSH2 0x1769 JUMP JUMPDEST PUSH2 0x849 JUMP JUMPDEST PUSH2 0x27B PUSH2 0x357 CALLDATASIZE PUSH1 0x4 PUSH2 0x1866 JUMP JUMPDEST PUSH2 0x88D JUMP JUMPDEST PUSH2 0x27B PUSH2 0x36A CALLDATASIZE PUSH1 0x4 PUSH2 0x18CC JUMP JUMPDEST PUSH2 0x92F JUMP JUMPDEST PUSH2 0x2C0 PUSH2 0x37D CALLDATASIZE PUSH1 0x4 PUSH2 0x1922 JUMP JUMPDEST PUSH2 0x95D JUMP JUMPDEST PUSH2 0x211 PUSH2 0xB9D JUMP JUMPDEST PUSH2 0x392 PUSH2 0xBAA JUMP JUMPDEST PUSH1 0x40 MLOAD PUSH2 0x21E SWAP2 SWAP1 PUSH2 0x1B2F JUMP JUMPDEST PUSH2 0x27B PUSH2 0x3AD CALLDATASIZE PUSH1 0x4 PUSH2 0x18B3 JUMP JUMPDEST PUSH2 0xC0B JUMP JUMPDEST PUSH2 0x27B PUSH2 0x3C0 CALLDATASIZE PUSH1 0x4 PUSH2 0x16B0 JUMP JUMPDEST PUSH2 0xC69 JUMP JUMPDEST PUSH2 0x211 PUSH2 0xCD2 JUMP JUMPDEST PUSH2 0x2C0 PUSH2 0xCDF JUMP JUMPDEST PUSH2 0x2C0 PUSH2 0xCF3 JUMP JUMPDEST PUSH2 0x211 PUSH2 0xD7B JUMP JUMPDEST PUSH2 0x211 PUSH2 0xD8A JUMP JUMPDEST PUSH2 0x28F PUSH2 0x3FB CALLDATASIZE PUSH1 0x4 PUSH2 0x18B3 JUMP JUMPDEST PUSH1 0x6E PUSH1 0x20 MSTORE PUSH1 0x0 SWAP1 DUP2 MSTORE PUSH1 0x40 SWAP1 KECCAK256 SLOAD DUP2 JUMP JUMPDEST PUSH2 0x250 PUSH2 0xD97 JUMP JUMPDEST PUSH2 0x28F PUSH1 0x6A SLOAD DUP2 JUMP JUMPDEST PUSH2 0x2C0 PUSH2 0x42C CALLDATASIZE PUSH1 0x4 PUSH2 0x17A5 JUMP JUMPDEST PUSH2 0xDA6 JUMP JUMPDEST PUSH2 0x28F PUSH2 0x43F CALLDATASIZE PUSH1 0x4 PUSH2 0x18B3 JUMP JUMPDEST PUSH2 0xE05 JUMP JUMPDEST PUSH2 0x2C0 PUSH2 0x452 CALLDATASIZE PUSH1 0x4 PUSH2 0x18EE JUMP JUMPDEST PUSH2 0xE41 JUMP JUMPDEST PUSH2 0x2C0 PUSH2 0x465 CALLDATASIZE PUSH1 0x4 PUSH2 0x18CC JUMP JUMPDEST PUSH2 0xE9D JUMP JUMPDEST PUSH2 0x2C0 PUSH2 0x478 CALLDATASIZE PUSH1 0x4 PUSH2 0x18B3 JUMP JUMPDEST PUSH2 0xFB0 JUMP JUMPDEST PUSH2 0x28F PUSH2 0x48B CALLDATASIZE PUSH1 0x4 PUSH2 0x18B3 JUMP JUMPDEST PUSH2 0x104B JUMP JUMPDEST PUSH2 0x2C0 PUSH2 0x49E CALLDATASIZE PUSH1 0x4 PUSH2 0x18EE JUMP JUMPDEST PUSH2 0x1087 JUMP JUMPDEST PUSH2 0x2C0 PUSH2 0x4B1 CALLDATASIZE PUSH1 0x4 PUSH2 0x16CB JUMP JUMPDEST PUSH2 0x10E3 JUMP JUMPDEST PUSH2 0x28F PUSH2 0x4C4 CALLDATASIZE PUSH1 0x4 PUSH2 0x18B3 JUMP JUMPDEST PUSH2 0x1207 JUMP JUMPDEST PUSH2 0x28F PUSH2 0x4D7 CALLDATASIZE PUSH1 0x4 PUSH2 0x18B3 JUMP JUMPDEST PUSH1 0x6F PUSH1 0x20 MSTORE PUSH1 0x0 SWAP1 DUP2 MSTORE PUSH1 0x40 SWAP1 KECCAK256 SLOAD DUP2 JUMP JUMPDEST PUSH2 0x2C0 PUSH2 0x4F7 CALLDATASIZE PUSH1 0x4 PUSH2 0x18B3 JUMP JUMPDEST PUSH2 0x1239 JUMP JUMPDEST PUSH2 0x211 PUSH2 0x12D7 JUMP JUMPDEST PUSH2 0x2C0 PUSH2 0x512 CALLDATASIZE PUSH1 0x4 PUSH2 0x16B0 JUMP JUMPDEST PUSH2 0x12E6 JUMP JUMPDEST PUSH2 0x211 PUSH2 0x135F JUMP JUMPDEST PUSH2 0x250 PUSH2 0x52D CALLDATASIZE PUSH1 0x4 PUSH2 0x18B3 JUMP JUMPDEST PUSH2 0x136C JUMP JUMPDEST PUSH1 0x65 DUP1 SLOAD PUSH2 0x53F SWAP1 PUSH2 0x1DCE JUMP JUMPDEST DUP1 PUSH1 0x1F ADD PUSH1 0x20 DUP1 SWAP2 DIV MUL PUSH1 0x20 ADD PUSH1 0x40 MLOAD SWAP1 DUP2 ADD PUSH1 0x40 MSTORE DUP1 SWAP3 SWAP2 SWAP1 DUP2 DUP2 MSTORE PUSH1 0x20 ADD DUP3 DUP1 SLOAD PUSH2 0x56B SWAP1 PUSH2 0x1DCE JUMP JUMPDEST DUP1 ISZERO PUSH2 0x5B8 JUMPI DUP1 PUSH1 0x1F LT PUSH2 0x58D JUMPI PUSH2 0x100 DUP1 DUP4 SLOAD DIV MUL DUP4 MSTORE SWAP2 PUSH1 0x20 ADD SWAP2 PUSH2 0x5B8 JUMP JUMPDEST DUP3 ADD SWAP2 SWAP1 PUSH1 0x0 MSTORE PUSH1 0x20 PUSH1 0x0 KECCAK256 SWAP1 JUMPDEST DUP2 SLOAD DUP2 MSTORE SWAP1 PUSH1 0x1 ADD SWAP1 PUSH1 0x20 ADD DUP1 DUP4 GT PUSH2 0x59B JUMPI DUP3 SWAP1 SUB PUSH1 0x1F AND DUP3 ADD SWAP2 JUMPDEST POP POP POP POP POP DUP2 JUMP JUMPDEST PUSH1 0x0 SWAP1 DUP2 MSTORE PUSH1 0x6D PUSH1 0x20 MSTORE PUSH1 0x40 SWAP1 KECCAK256 SLOAD ISZERO ISZERO SWAP1 JUMP JUMPDEST PUSH1 0x60 PUSH1 0x65 DUP1 SLOAD PUSH2 0x5E3 SWAP1 PUSH2 0x1DCE JUMP JUMPDEST DUP1 PUSH1 0x1F ADD PUSH1 0x20 DUP1 SWAP2 DIV MUL PUSH1 0x20 ADD PUSH1 0x40 MLOAD SWAP1 DUP2 ADD PUSH1 0x40 MSTORE DUP1 SWAP3 SWAP2 SWAP1 DUP2 DUP2 MSTORE PUSH1 0x20 ADD DUP3 DUP1 SLOAD PUSH2 0x60F SWAP1 PUSH2 0x1DCE JUMP JUMPDEST DUP1 ISZERO PUSH2 0x65C JUMPI DUP1 PUSH1 0x1F LT PUSH2 0x631 JUMPI PUSH2 0x100 DUP1 DUP4 SLOAD DIV MUL DUP4 MSTORE SWAP2 PUSH1 0x20 ADD SWAP2 PUSH2 0x65C JUMP JUMPDEST DUP3 ADD SWAP2 SWAP1 PUSH1 0x0 MSTORE PUSH1 0x20 PUSH1 0x0 KECCAK256 SWAP1 JUMPDEST DUP2 SLOAD DUP2 MSTORE SWAP1 PUSH1 0x1 ADD SWAP1 PUSH1 0x20 ADD DUP1 DUP4 GT PUSH2 0x63F JUMPI DUP3 SWAP1 SUB PUSH1 0x1F AND DUP3 ADD SWAP2 JUMPDEST POP POP POP POP POP SWAP1 POP SWAP1 JUMP JUMPDEST PUSH1 0x60 PUSH1 0x69 DUP1 SLOAD PUSH2 0x5E3 SWAP1 PUSH2 0x1DCE JUMP JUMPDEST PUSH2 0x67D PUSH2 0x1396 JUMP JUMPDEST TIMESTAMP PUSH1 0x6A SLOAD GT PUSH2 0x68B JUMPI PUSH1 0x0 DUP1 REVERT JUMPDEST DUP1 MLOAD PUSH2 0x69E SWAP1 PUSH1 0x66 SWAP1 PUSH1 0x20 DUP5 ADD SWAP1 PUSH2 0x151A JUMP JUMPDEST POP PUSH1 0x6B SLOAD PUSH1 0x40 MLOAD PUSH4 0x68C35C4B PUSH1 0xE0 SHL DUP2 MSTORE PUSH1 0x1 PUSH1 0x1 PUSH1 0xA0 SHL SUB SWAP1 SWAP2 AND SWAP1 PUSH4 0x68C35C4B SWAP1 PUSH2 0x6D1 SWAP1 ADDRESS SWAP1 DUP6 SWAP1 PUSH1 0x4 ADD PUSH2 0x1B0B JUMP JUMPDEST PUSH1 0x0 PUSH1 0x40 MLOAD DUP1 DUP4 SUB DUP2 PUSH1 0x0 DUP8 DUP1 EXTCODESIZE ISZERO DUP1 ISZERO PUSH2 0x6EB JUMPI PUSH1 0x0 DUP1 REVERT JUMPDEST POP GAS CALL ISZERO DUP1 ISZERO PUSH2 0x6FF JUMPI RETURNDATASIZE PUSH1 0x0 DUP1 RETURNDATACOPY RETURNDATASIZE PUSH1 0x0 REVERT JUMPDEST POP POP POP POP PUSH1 0x0 DUP1 MLOAD PUSH1 0x20 PUSH2 0x1E8F DUP4 CODECOPY DUP2 MLOAD SWAP2 MSTORE PUSH1 0x65 PUSH1 0x66 PUSH1 0x67 PUSH1 0x68 PUSH1 0x69 PUSH1 0x6A SLOAD PUSH1 0x40 MLOAD PUSH2 0x731 SWAP7 SWAP6 SWAP5 SWAP4 SWAP3 SWAP2 SWAP1 PUSH2 0x1BD3 JUMP JUMPDEST PUSH1 0x40 MLOAD DUP1 SWAP2 SUB SWAP1 LOG1 POP JUMP JUMPDEST PUSH2 0x744 PUSH2 0x1396 JUMP JUMPDEST TIMESTAMP PUSH1 0x6A SLOAD GT PUSH2 0x752 JUMPI PUSH1 0x0 DUP1 REVERT JUMPDEST DUP1 MLOAD PUSH2 0x765 SWAP1 PUSH1 0x67 SWAP1 PUSH1 0x20 DUP5 ADD SWAP1 PUSH2 0x151A JUMP JUMPDEST POP PUSH1 0x6B SLOAD PUSH1 0x40 MLOAD PUSH4 0x6AC012D5 PUSH1 0xE0 SHL DUP2 MSTORE PUSH1 0x1 PUSH1 0x1 PUSH1 0xA0 SHL SUB SWAP1 SWAP2 AND SWAP1 PUSH4 0x6AC012D5 SWAP1 PUSH2 0x6D1 SWAP1 ADDRESS SWAP1 DUP6 SWAP1 PUSH1 0x4 ADD PUSH2 0x1B0B JUMP JUMPDEST PUSH1 0x0 DUP3 DUP2 MSTORE PUSH1 0x6E PUSH1 0x20 MSTORE PUSH1 0x40 DUP2 KECCAK256 SLOAD DUP3 LT DUP1 ISZERO SWAP1 PUSH2 0x7C3 JUMPI POP PUSH1 0x0 DUP4 DUP2 MSTORE PUSH1 0x6E PUSH1 0x20 MSTORE PUSH1 0x40 SWAP1 KECCAK256 SLOAD ISZERO ISZERO JUMPDEST SWAP4 SWAP3 POP POP POP JUMP JUMPDEST PUSH1 0x60 PUSH1 0x67 DUP1 SLOAD PUSH2 0x5E3 SWAP1 PUSH2 0x1DCE JUMP JUMPDEST PUSH2 0x7E1 PUSH2 0x1396 JUMP JUMPDEST TIMESTAMP PUSH1 0x6A SLOAD GT PUSH2 0x7EF JUMPI PUSH1 0x0 DUP1 REVERT JUMPDEST DUP1 MLOAD PUSH2 0x802 SWAP1 PUSH1 0x68 SWAP1 PUSH1 0x20 DUP5 ADD SWAP1 PUSH2 0x151A JUMP JUMPDEST POP PUSH1 0x6B SLOAD PUSH1 0x40 MLOAD PUSH4 0xDB7CD7FB PUSH1 0xE0 SHL DUP2 MSTORE PUSH1 0x1 PUSH1 0x1 PUSH1 0xA0 SHL SUB SWAP1 SWAP2 AND SWAP1 PUSH4 0xDB7CD7FB SWAP1 PUSH2 0x6D1 SWAP1 ADDRESS SWAP1 DUP6 SWAP1 PUSH1 0x4 ADD PUSH2 0x1B0B JUMP JUMPDEST PUSH1 0x0 SWAP1 DUP2 MSTORE PUSH1 0x6E PUSH1 0x20 MSTORE PUSH1 0x40 SWAP1 KECCAK256 SLOAD ISZERO ISZERO SWAP1 JUMP JUMPDEST PUSH1 0x0 JUMPDEST DUP2 MLOAD DUP2 LT ISZERO PUSH2 0x889 JUMPI PUSH2 0x877 DUP3 DUP3 DUP2 MLOAD DUP2 LT PUSH2 0x86A JUMPI PUSH2 0x86A PUSH2 0x1E42 JUMP JUMPDEST PUSH1 0x20 MUL PUSH1 0x20 ADD ADD MLOAD PUSH2 0xFB0 JUMP JUMPDEST DUP1 PUSH2 0x881 DUP2 PUSH2 0x1E03 JUMP JUMPDEST SWAP2 POP POP PUSH2 0x84C JUMP JUMPDEST POP POP JUMP JUMPDEST PUSH1 0x0 DUP3 PUSH2 0x899 DUP2 PUSH2 0x5C0 JUMP JUMPDEST PUSH2 0x8BE JUMPI PUSH1 0x40 MLOAD PUSH3 0x461BCD PUSH1 0xE5 SHL DUP2 MSTORE PUSH1 0x4 ADD PUSH2 0x8B5 SWAP1 PUSH2 0x1C48 JUMP JUMPDEST PUSH1 0x40 MLOAD DUP1 SWAP2 SUB SWAP1 REVERT JUMPDEST DUP4 PUSH2 0x8C8 DUP2 PUSH2 0x835 JUMP JUMPDEST ISZERO PUSH2 0x8E5 JUMPI PUSH1 0x40 MLOAD PUSH3 0x461BCD PUSH1 0xE5 SHL DUP2 MSTORE PUSH1 0x4 ADD PUSH2 0x8B5 SWAP1 PUSH2 0x1C99 JUMP JUMPDEST TIMESTAMP PUSH1 0x6A SLOAD GT PUSH2 0x8F3 JUMPI PUSH1 0x0 DUP1 REVERT JUMPDEST PUSH2 0x8FC DUP6 PUSH2 0xC0B JUMP JUMPDEST ISZERO PUSH2 0x906 JUMPI PUSH1 0x0 DUP1 REVERT JUMPDEST PUSH2 0x90F DUP5 PUSH2 0x835 JUMP JUMPDEST ISZERO PUSH2 0x919 JUMPI PUSH1 0x0 DUP1 REVERT JUMPDEST DUP5 PUSH2 0x924 DUP8 DUP7 PUSH2 0x13F5 JUMP JUMPDEST EQ SWAP7 SWAP6 POP POP POP POP POP POP JUMP JUMPDEST PUSH1 0x0 DUP3 DUP2 MSTORE PUSH1 0x6D PUSH1 0x20 MSTORE PUSH1 0x40 DUP2 KECCAK256 SLOAD ISZERO DUP1 ISZERO SWAP1 PUSH2 0x7C3 JUMPI POP POP PUSH1 0x0 SWAP2 DUP3 MSTORE PUSH1 0x6D PUSH1 0x20 MSTORE PUSH1 0x40 SWAP1 SWAP2 KECCAK256 SLOAD GT ISZERO SWAP1 JUMP JUMPDEST PUSH1 0x0 SLOAD PUSH2 0x100 SWAP1 DIV PUSH1 0xFF AND ISZERO DUP1 DUP1 ISZERO PUSH2 0x97D JUMPI POP PUSH1 0x0 SLOAD PUSH1 0x1 PUSH1 0xFF SWAP1 SWAP2 AND LT JUMPDEST DUP1 PUSH2 0x997 JUMPI POP ADDRESS EXTCODESIZE ISZERO DUP1 ISZERO PUSH2 0x997 JUMPI POP PUSH1 0x0 SLOAD PUSH1 0xFF AND PUSH1 0x1 EQ JUMPDEST PUSH2 0x9FA JUMPI PUSH1 0x40 MLOAD PUSH3 0x461BCD PUSH1 0xE5 SHL DUP2 MSTORE PUSH1 0x20 PUSH1 0x4 DUP3 ADD MSTORE PUSH1 0x2E PUSH1 0x24 DUP3 ADD MSTORE PUSH32 0x496E697469616C697A61626C653A20636F6E747261637420697320616C726561 PUSH1 0x44 DUP3 ADD MSTORE PUSH14 0x191E481A5B9A5D1A585B1A5E9959 PUSH1 0x92 SHL PUSH1 0x64 DUP3 ADD MSTORE PUSH1 0x84 ADD PUSH2 0x8B5 JUMP JUMPDEST PUSH1 0x0 DUP1 SLOAD PUSH1 0xFF NOT AND PUSH1 0x1 OR SWAP1 SSTORE DUP1 ISZERO PUSH2 0xA1D JUMPI PUSH1 0x0 DUP1 SLOAD PUSH2 0xFF00 NOT AND PUSH2 0x100 OR SWAP1 SSTORE JUMPDEST TIMESTAMP DUP5 GT PUSH2 0xA6C JUMPI PUSH1 0x40 MLOAD PUSH3 0x461BCD PUSH1 0xE5 SHL DUP2 MSTORE PUSH1 0x20 PUSH1 0x4 DUP3 ADD MSTORE PUSH1 0x1E PUSH1 0x24 DUP3 ADD MSTORE PUSH32 0x4572726F723A2065787069726564206461746520686173207061737365640000 PUSH1 0x44 DUP3 ADD MSTORE PUSH1 0x64 ADD PUSH2 0x8B5 JUMP JUMPDEST PUSH2 0xA74 PUSH2 0x1469 JUMP JUMPDEST PUSH2 0xA7D DUP4 PUSH2 0x12E6 JUMP JUMPDEST PUSH1 0x6C DUP1 SLOAD PUSH1 0x1 DUP2 ADD DUP3 SSTORE PUSH1 0x0 SWAP2 SWAP1 SWAP2 MSTORE PUSH32 0x2B4A51AB505FC96A0952EFDA2BA61BCD3078D4C02C39A186EC16F21883FBE016 ADD DUP1 SLOAD PUSH1 0x1 PUSH1 0x1 PUSH1 0xA0 SHL SUB NOT AND PUSH1 0x1 PUSH1 0x1 PUSH1 0xA0 SHL SUB DUP6 AND OR SWAP1 SSTORE DUP9 MLOAD PUSH2 0xADB SWAP1 PUSH1 0x65 SWAP1 PUSH1 0x20 DUP13 ADD SWAP1 PUSH2 0x151A JUMP JUMPDEST POP DUP8 MLOAD PUSH2 0xAEF SWAP1 PUSH1 0x66 SWAP1 PUSH1 0x20 DUP12 ADD SWAP1 PUSH2 0x151A JUMP JUMPDEST POP DUP7 MLOAD PUSH2 0xB03 SWAP1 PUSH1 0x67 SWAP1 PUSH1 0x20 DUP11 ADD SWAP1 PUSH2 0x151A JUMP JUMPDEST POP DUP6 MLOAD PUSH2 0xB17 SWAP1 PUSH1 0x68 SWAP1 PUSH1 0x20 DUP10 ADD SWAP1 PUSH2 0x151A JUMP JUMPDEST POP DUP5 MLOAD PUSH2 0xB2B SWAP1 PUSH1 0x69 SWAP1 PUSH1 0x20 DUP9 ADD SWAP1 PUSH2 0x151A JUMP JUMPDEST POP PUSH1 0x6B DUP1 SLOAD PUSH1 0x1 PUSH1 0x1 PUSH1 0xA0 SHL SUB NOT AND PUSH1 0x1 PUSH1 0x1 PUSH1 0xA0 SHL SUB DUP5 AND OR SWAP1 SSTORE PUSH1 0x6A DUP5 SWAP1 SSTORE DUP1 ISZERO PUSH2 0xB92 JUMPI PUSH1 0x0 DUP1 SLOAD PUSH2 0xFF00 NOT AND SWAP1 SSTORE PUSH1 0x40 MLOAD PUSH1 0x1 DUP2 MSTORE PUSH32 0x7F26B83FF96E1F2B6A682F133852F6798A09C465DA95921460CEFB3847402498 SWAP1 PUSH1 0x20 ADD PUSH1 0x40 MLOAD DUP1 SWAP2 SUB SWAP1 LOG1 JUMPDEST POP POP POP POP POP POP POP POP POP JUMP JUMPDEST PUSH1 0x67 DUP1 SLOAD PUSH2 0x53F SWAP1 PUSH2 0x1DCE JUMP JUMPDEST PUSH1 0x60 PUSH1 0x6C DUP1 SLOAD DUP1 PUSH1 0x20 MUL PUSH1 0x20 ADD PUSH1 0x40 MLOAD SWAP1 DUP2 ADD PUSH1 0x40 MSTORE DUP1 SWAP3 SWAP2 SWAP1 DUP2 DUP2 MSTORE PUSH1 0x20 ADD DUP3 DUP1 SLOAD DUP1 ISZERO PUSH2 0x65C JUMPI PUSH1 0x20 MUL DUP3 ADD SWAP2 SWAP1 PUSH1 0x0 MSTORE PUSH1 0x20 PUSH1 0x0 KECCAK256 SWAP1 JUMPDEST DUP2 SLOAD PUSH1 0x1 PUSH1 0x1 PUSH1 0xA0 SHL SUB AND DUP2 MSTORE PUSH1 0x1 SWAP1 SWAP2 ADD SWAP1 PUSH1 0x20 ADD DUP1 DUP4 GT PUSH2 0xBE4 JUMPI POP POP POP POP POP SWAP1 POP SWAP1 JUMP JUMPDEST PUSH1 0x0 DUP2 PUSH2 0xC17 DUP2 PUSH2 0x5C0 JUMP JUMPDEST PUSH2 0xC33 JUMPI PUSH1 0x40 MLOAD PUSH3 0x461BCD PUSH1 0xE5 SHL DUP2 MSTORE PUSH1 0x4 ADD PUSH2 0x8B5 SWAP1 PUSH2 0x1C48 JUMP JUMPDEST PUSH1 0x0 DUP4 DUP2 MSTORE PUSH1 0x6F PUSH1 0x20 MSTORE PUSH1 0x40 SWAP1 KECCAK256 SLOAD ISZERO PUSH2 0xC5D JUMPI PUSH1 0x0 DUP4 DUP2 MSTORE PUSH1 0x6F PUSH1 0x20 MSTORE PUSH1 0x40 SWAP1 KECCAK256 SLOAD TIMESTAMP GT PUSH2 0xC60 JUMP JUMPDEST PUSH1 0x0 JUMPDEST SWAP2 POP JUMPDEST POP SWAP2 SWAP1 POP JUMP JUMPDEST PUSH1 0x0 DUP1 DUP1 JUMPDEST PUSH1 0x6C SLOAD DUP2 LT ISZERO PUSH2 0xCCB JUMPI DUP4 PUSH1 0x1 PUSH1 0x1 PUSH1 0xA0 SHL SUB AND PUSH1 0x6C DUP3 DUP2 SLOAD DUP2 LT PUSH2 0xC95 JUMPI PUSH2 0xC95 PUSH2 0x1E42 JUMP JUMPDEST PUSH1 0x0 SWAP2 DUP3 MSTORE PUSH1 0x20 SWAP1 SWAP2 KECCAK256 ADD SLOAD PUSH1 0x1 PUSH1 0x1 PUSH1 0xA0 SHL SUB AND EQ ISZERO PUSH2 0xCB9 JUMPI PUSH1 0x1 SWAP2 POP PUSH2 0xCCB JUMP JUMPDEST DUP1 PUSH2 0xCC3 DUP2 PUSH2 0x1E03 JUMP JUMPDEST SWAP2 POP POP PUSH2 0xC6E JUMP JUMPDEST POP SWAP3 SWAP2 POP POP JUMP JUMPDEST PUSH1 0x68 DUP1 SLOAD PUSH2 0x53F SWAP1 PUSH2 0x1DCE JUMP JUMPDEST PUSH2 0xCE7 PUSH2 0x1396 JUMP JUMPDEST PUSH2 0xCF1 PUSH1 0x0 PUSH2 0x1498 JUMP JUMPDEST JUMP JUMPDEST PUSH2 0xCFB PUSH2 0x1396 JUMP JUMPDEST TIMESTAMP PUSH1 0x6A SLOAD GT PUSH2 0xD09 JUMPI PUSH1 0x0 DUP1 REVERT JUMPDEST PUSH1 0x6C SLOAD ISZERO PUSH2 0xD49 JUMPI PUSH1 0x6C DUP1 SLOAD DUP1 PUSH2 0xD22 JUMPI PUSH2 0xD22 PUSH2 0x1E2C JUMP JUMPDEST PUSH1 0x0 DUP3 DUP2 MSTORE PUSH1 0x20 SWAP1 KECCAK256 DUP2 ADD PUSH1 0x0 NOT SWAP1 DUP2 ADD DUP1 SLOAD PUSH1 0x1 PUSH1 0x1 PUSH1 0xA0 SHL SUB NOT AND SWAP1 SSTORE ADD SWAP1 SSTORE PUSH2 0xD09 JUMP JUMPDEST ADDRESS PUSH1 0x1 PUSH1 0x1 PUSH1 0xA0 SHL SUB AND PUSH1 0x0 DUP1 MLOAD PUSH1 0x20 PUSH2 0x1E6F DUP4 CODECOPY DUP2 MLOAD SWAP2 MSTORE PUSH1 0x6C PUSH1 0x40 MLOAD PUSH2 0xD71 SWAP2 SWAP1 PUSH2 0x1B7C JUMP JUMPDEST PUSH1 0x40 MLOAD DUP1 SWAP2 SUB SWAP1 LOG2 JUMP JUMPDEST PUSH1 0x60 PUSH1 0x66 DUP1 SLOAD PUSH2 0x5E3 SWAP1 PUSH2 0x1DCE JUMP JUMPDEST PUSH1 0x66 DUP1 SLOAD PUSH2 0x53F SWAP1 PUSH2 0x1DCE JUMP JUMPDEST PUSH1 0x33 SLOAD PUSH1 0x1 PUSH1 0x1 PUSH1 0xA0 SHL SUB AND SWAP1 JUMP JUMPDEST PUSH1 0x0 JUMPDEST DUP3 MLOAD DUP2 LT ISZERO PUSH2 0xE00 JUMPI PUSH2 0xDEE DUP4 DUP3 DUP2 MLOAD DUP2 LT PUSH2 0xDC7 JUMPI PUSH2 0xDC7 PUSH2 0x1E42 JUMP JUMPDEST PUSH1 0x20 MUL PUSH1 0x20 ADD ADD MLOAD DUP4 DUP4 DUP2 MLOAD DUP2 LT PUSH2 0xDE1 JUMPI PUSH2 0xDE1 PUSH2 0x1E42 JUMP JUMPDEST PUSH1 0x20 MUL PUSH1 0x20 ADD ADD MLOAD PUSH2 0xE9D JUMP JUMPDEST DUP1 PUSH2 0xDF8 DUP2 PUSH2 0x1E03 JUMP JUMPDEST SWAP2 POP POP PUSH2 0xDA9 JUMP JUMPDEST POP POP POP JUMP JUMPDEST PUSH1 0x0 DUP2 PUSH2 0xE11 DUP2 PUSH2 0x5C0 JUMP JUMPDEST PUSH2 0xE2D JUMPI PUSH1 0x40 MLOAD PUSH3 0x461BCD PUSH1 0xE5 SHL DUP2 MSTORE PUSH1 0x4 ADD PUSH2 0x8B5 SWAP1 PUSH2 0x1C48 JUMP JUMPDEST POP POP PUSH1 0x0 SWAP1 DUP2 MSTORE PUSH1 0x6F PUSH1 0x20 MSTORE PUSH1 0x40 SWAP1 KECCAK256 SLOAD SWAP1 JUMP JUMPDEST PUSH2 0xE49 PUSH2 0x1396 JUMP JUMPDEST TIMESTAMP PUSH1 0x6A SLOAD GT PUSH2 0xE57 JUMPI PUSH1 0x0 DUP1 REVERT JUMPDEST DUP1 MLOAD PUSH2 0xE6A SWAP1 PUSH1 0x69 SWAP1 PUSH1 0x20 DUP5 ADD SWAP1 PUSH2 0x151A JUMP JUMPDEST POP PUSH1 0x6B SLOAD PUSH1 0x40 MLOAD PUSH4 0xCF1BFE05 PUSH1 0xE0 SHL DUP2 MSTORE PUSH1 0x1 PUSH1 0x1 PUSH1 0xA0 SHL SUB SWAP1 SWAP2 AND SWAP1 PUSH4 0xCF1BFE05 SWAP1 PUSH2 0x6D1 SWAP1 ADDRESS SWAP1 DUP6 SWAP1 PUSH1 0x4 ADD PUSH2 0x1B0B JUMP JUMPDEST PUSH2 0xEA6 CALLER PUSH2 0xC69 JUMP JUMPDEST ISZERO ISZERO PUSH1 0x1 EQ PUSH2 0xEC7 JUMPI PUSH1 0x40 MLOAD PUSH3 0x461BCD PUSH1 0xE5 SHL DUP2 MSTORE PUSH1 0x4 ADD PUSH2 0x8B5 SWAP1 PUSH2 0x1CE0 JUMP JUMPDEST DUP2 PUSH2 0xED1 DUP2 PUSH2 0x5C0 JUMP JUMPDEST ISZERO PUSH2 0xF41 JUMPI PUSH1 0x40 MLOAD PUSH3 0x461BCD PUSH1 0xE5 SHL DUP2 MSTORE PUSH1 0x20 PUSH1 0x4 DUP3 ADD MSTORE PUSH1 0x3A PUSH1 0x24 DUP3 ADD MSTORE PUSH32 0x4572726F723A204F6E6C792068617368657320746861742068617665206E6F74 PUSH1 0x44 DUP3 ADD MSTORE PUSH26 0x81899595B881A5CDCDD59590818D85B881899481A5CDCDD5959 PUSH1 0x32 SHL PUSH1 0x64 DUP3 ADD MSTORE PUSH1 0x84 ADD PUSH2 0x8B5 JUMP JUMPDEST TIMESTAMP PUSH1 0x6A SLOAD GT PUSH2 0xF4F JUMPI PUSH1 0x0 DUP1 REVERT JUMPDEST PUSH1 0x0 DUP4 DUP2 MSTORE PUSH1 0x6D PUSH1 0x20 SWAP1 DUP2 MSTORE PUSH1 0x40 DUP1 DUP4 KECCAK256 NUMBER SWAP1 SSTORE PUSH1 0x6F DUP3 MSTORE DUP1 DUP4 KECCAK256 DUP6 SWAP1 SSTORE PUSH1 0x70 SWAP1 SWAP2 MSTORE DUP1 DUP3 KECCAK256 DUP1 SLOAD PUSH1 0x1 PUSH1 0x1 PUSH1 0xA0 SHL SUB NOT AND CALLER OR SWAP1 SSTORE MLOAD DUP5 SWAP2 PUSH32 0x1A1249F2CAA0445B8391E02413D26F0D409DABE5330CD1D04D3D0801FC42DB3 SWAP2 LOG2 POP POP POP JUMP JUMPDEST PUSH2 0xFB9 CALLER PUSH2 0xC69 JUMP JUMPDEST ISZERO ISZERO PUSH1 0x1 EQ PUSH2 0xFDA JUMPI PUSH1 0x40 MLOAD PUSH3 0x461BCD PUSH1 0xE5 SHL DUP2 MSTORE PUSH1 0x4 ADD PUSH2 0x8B5 SWAP1 PUSH2 0x1CE0 JUMP JUMPDEST DUP1 PUSH2 0xFE4 DUP2 PUSH2 0x835 JUMP JUMPDEST ISZERO PUSH2 0x1001 JUMPI PUSH1 0x40 MLOAD PUSH3 0x461BCD PUSH1 0xE5 SHL DUP2 MSTORE PUSH1 0x4 ADD PUSH2 0x8B5 SWAP1 PUSH2 0x1C99 JUMP JUMPDEST TIMESTAMP PUSH1 0x6A SLOAD GT PUSH2 0x100F JUMPI PUSH1 0x0 DUP1 REVERT JUMPDEST PUSH1 0x0 DUP3 DUP2 MSTORE PUSH1 0x6E PUSH1 0x20 MSTORE PUSH1 0x40 DUP1 DUP3 KECCAK256 NUMBER SWAP1 SSTORE MLOAD DUP4 SWAP2 PUSH32 0x7283B5AB9758F7FBA773279E4FD50EA7B136BD1D8371DCAE9C5CE529C55343D7 SWAP2 LOG2 POP POP JUMP JUMPDEST PUSH1 0x0 DUP2 PUSH2 0x1057 DUP2 PUSH2 0x5C0 JUMP JUMPDEST PUSH2 0x1073 JUMPI PUSH1 0x40 MLOAD PUSH3 0x461BCD PUSH1 0xE5 SHL DUP2 MSTORE PUSH1 0x4 ADD PUSH2 0x8B5 SWAP1 PUSH2 0x1C48 JUMP JUMPDEST POP POP PUSH1 0x0 SWAP1 DUP2 MSTORE PUSH1 0x6D PUSH1 0x20 MSTORE PUSH1 0x40 SWAP1 KECCAK256 SLOAD SWAP1 JUMP JUMPDEST PUSH2 0x108F PUSH2 0x1396 JUMP JUMPDEST TIMESTAMP PUSH1 0x6A SLOAD GT PUSH2 0x109D JUMPI PUSH1 0x0 DUP1 REVERT JUMPDEST DUP1 MLOAD PUSH2 0x10B0 SWAP1 PUSH1 0x65 SWAP1 PUSH1 0x20 DUP5 ADD SWAP1 PUSH2 0x151A JUMP JUMPDEST POP PUSH1 0x6B SLOAD PUSH1 0x40 MLOAD PUSH4 0xC4876C7 PUSH1 0xE2 SHL DUP2 MSTORE PUSH1 0x1 PUSH1 0x1 PUSH1 0xA0 SHL SUB SWAP1 SWAP2 AND SWAP1 PUSH4 0x3121DB1C SWAP1 PUSH2 0x6D1 SWAP1 ADDRESS SWAP1 DUP6 SWAP1 PUSH1 0x4 ADD PUSH2 0x1B0B JUMP JUMPDEST PUSH2 0x10EB PUSH2 0x1396 JUMP JUMPDEST TIMESTAMP PUSH1 0x6A SLOAD GT PUSH2 0x10F9 JUMPI PUSH1 0x0 DUP1 REVERT JUMPDEST PUSH1 0x6C SLOAD ISZERO PUSH2 0x1139 JUMPI PUSH1 0x6C DUP1 SLOAD DUP1 PUSH2 0x1112 JUMPI PUSH2 0x1112 PUSH2 0x1E2C JUMP JUMPDEST PUSH1 0x0 DUP3 DUP2 MSTORE PUSH1 0x20 SWAP1 KECCAK256 DUP2 ADD PUSH1 0x0 NOT SWAP1 DUP2 ADD DUP1 SLOAD PUSH1 0x1 PUSH1 0x1 PUSH1 0xA0 SHL SUB NOT AND SWAP1 SSTORE ADD SWAP1 SSTORE PUSH2 0x10F9 JUMP JUMPDEST PUSH1 0x0 JUMPDEST DUP2 MLOAD DUP2 LT ISZERO PUSH2 0x11D3 JUMPI PUSH2 0x1167 DUP3 DUP3 DUP2 MLOAD DUP2 LT PUSH2 0x115A JUMPI PUSH2 0x115A PUSH2 0x1E42 JUMP JUMPDEST PUSH1 0x20 MUL PUSH1 0x20 ADD ADD MLOAD PUSH2 0xC69 JUMP JUMPDEST ISZERO PUSH2 0x1171 JUMPI PUSH2 0x11C1 JUMP JUMPDEST PUSH1 0x6C DUP3 DUP3 DUP2 MLOAD DUP2 LT PUSH2 0x1185 JUMPI PUSH2 0x1185 PUSH2 0x1E42 JUMP JUMPDEST PUSH1 0x20 SWAP1 DUP2 MUL SWAP2 SWAP1 SWAP2 ADD DUP2 ADD MLOAD DUP3 SLOAD PUSH1 0x1 DUP2 ADD DUP5 SSTORE PUSH1 0x0 SWAP4 DUP5 MSTORE SWAP2 SWAP1 SWAP3 KECCAK256 ADD DUP1 SLOAD PUSH1 0x1 PUSH1 0x1 PUSH1 0xA0 SHL SUB NOT AND PUSH1 0x1 PUSH1 0x1 PUSH1 0xA0 SHL SUB SWAP1 SWAP3 AND SWAP2 SWAP1 SWAP2 OR SWAP1 SSTORE JUMPDEST DUP1 PUSH2 0x11CB DUP2 PUSH2 0x1E03 JUMP JUMPDEST SWAP2 POP POP PUSH2 0x113C JUMP JUMPDEST POP ADDRESS PUSH1 0x1 PUSH1 0x1 PUSH1 0xA0 SHL SUB AND PUSH1 0x0 DUP1 MLOAD PUSH1 0x20 PUSH2 0x1E6F DUP4 CODECOPY DUP2 MLOAD SWAP2 MSTORE PUSH1 0x6C PUSH1 0x40 MLOAD PUSH2 0x11FC SWAP2 SWAP1 PUSH2 0x1B7C JUMP JUMPDEST PUSH1 0x40 MLOAD DUP1 SWAP2 SUB SWAP1 LOG2 POP JUMP JUMPDEST PUSH1 0x0 DUP2 PUSH1 0x40 MLOAD PUSH1 0x20 ADD PUSH2 0x121C SWAP2 DUP2 MSTORE PUSH1 0x20 ADD SWAP1 JUMP JUMPDEST PUSH1 0x40 MLOAD PUSH1 0x20 DUP2 DUP4 SUB SUB DUP2 MSTORE SWAP1 PUSH1 0x40 MSTORE DUP1 MLOAD SWAP1 PUSH1 0x20 ADD KECCAK256 SWAP1 POP SWAP2 SWAP1 POP JUMP JUMPDEST PUSH2 0x1241 PUSH2 0x1396 JUMP JUMPDEST PUSH1 0x6B SLOAD PUSH1 0x40 MLOAD PUSH4 0x1FF06121 PUSH1 0xE2 SHL DUP2 MSTORE ADDRESS PUSH1 0x4 DUP3 ADD MSTORE PUSH1 0x24 DUP2 ADD DUP4 SWAP1 MSTORE PUSH1 0x1 PUSH1 0x1 PUSH1 0xA0 SHL SUB SWAP1 SWAP2 AND SWAP1 PUSH4 0x7FC18484 SWAP1 PUSH1 0x44 ADD PUSH1 0x0 PUSH1 0x40 MLOAD DUP1 DUP4 SUB DUP2 PUSH1 0x0 DUP8 DUP1 EXTCODESIZE ISZERO DUP1 ISZERO PUSH2 0x128D JUMPI PUSH1 0x0 DUP1 REVERT JUMPDEST POP GAS CALL ISZERO DUP1 ISZERO PUSH2 0x12A1 JUMPI RETURNDATASIZE PUSH1 0x0 DUP1 RETURNDATACOPY RETURNDATASIZE PUSH1 0x0 REVERT JUMPDEST POP POP POP PUSH1 0x6A DUP3 SWAP1 SSTORE POP PUSH1 0x40 MLOAD PUSH1 0x0 DUP1 MLOAD PUSH1 0x20 PUSH2 0x1E8F DUP4 CODECOPY DUP2 MLOAD SWAP2 MSTORE SWAP1 PUSH2 0x731 SWAP1 PUSH1 0x65 SWAP1 PUSH1 0x66 SWAP1 PUSH1 0x67 SWAP1 PUSH1 0x68 SWAP1 PUSH1 0x69 SWAP1 DUP9 SWAP1 PUSH2 0x1BD3 JUMP JUMPDEST PUSH1 0x60 PUSH1 0x68 DUP1 SLOAD PUSH2 0x5E3 SWAP1 PUSH2 0x1DCE JUMP JUMPDEST PUSH2 0x12EE PUSH2 0x1396 JUMP JUMPDEST PUSH1 0x1 PUSH1 0x1 PUSH1 0xA0 SHL SUB DUP2 AND PUSH2 0x1353 JUMPI PUSH1 0x40 MLOAD PUSH3 0x461BCD PUSH1 0xE5 SHL DUP2 MSTORE PUSH1 0x20 PUSH1 0x4 DUP3 ADD MSTORE PUSH1 0x26 PUSH1 0x24 DUP3 ADD MSTORE PUSH32 0x4F776E61626C653A206E6577206F776E657220697320746865207A65726F2061 PUSH1 0x44 DUP3 ADD MSTORE PUSH6 0x646472657373 PUSH1 0xD0 SHL PUSH1 0x64 DUP3 ADD MSTORE PUSH1 0x84 ADD PUSH2 0x8B5 JUMP JUMPDEST PUSH2 0x135C DUP2 PUSH2 0x1498 JUMP JUMPDEST POP JUMP JUMPDEST PUSH1 0x69 DUP1 SLOAD PUSH2 0x53F SWAP1 PUSH2 0x1DCE JUMP JUMPDEST PUSH1 0x6C DUP2 DUP2 SLOAD DUP2 LT PUSH2 0x137C JUMPI PUSH1 0x0 DUP1 REVERT JUMPDEST PUSH1 0x0 SWAP2 DUP3 MSTORE PUSH1 0x20 SWAP1 SWAP2 KECCAK256 ADD SLOAD PUSH1 0x1 PUSH1 0x1 PUSH1 0xA0 SHL SUB AND SWAP1 POP DUP2 JUMP JUMPDEST CALLER PUSH2 0x139F PUSH2 0xD97 JUMP JUMPDEST PUSH1 0x1 PUSH1 0x1 PUSH1 0xA0 SHL SUB AND EQ PUSH2 0xCF1 JUMPI PUSH1 0x40 MLOAD PUSH3 0x461BCD PUSH1 0xE5 SHL DUP2 MSTORE PUSH1 0x20 PUSH1 0x4 DUP3 ADD DUP2 SWAP1 MSTORE PUSH1 0x24 DUP3 ADD MSTORE PUSH32 0x4F776E61626C653A2063616C6C6572206973206E6F7420746865206F776E6572 PUSH1 0x44 DUP3 ADD MSTORE PUSH1 0x64 ADD PUSH2 0x8B5 JUMP JUMPDEST PUSH1 0x0 DUP2 DUP2 JUMPDEST DUP5 MLOAD DUP2 LT ISZERO PUSH2 0x1461 JUMPI PUSH1 0x0 DUP6 DUP3 DUP2 MLOAD DUP2 LT PUSH2 0x1417 JUMPI PUSH2 0x1417 PUSH2 0x1E42 JUMP JUMPDEST PUSH1 0x20 MUL PUSH1 0x20 ADD ADD MLOAD SWAP1 POP DUP1 DUP4 GT PUSH2 0x143D JUMPI PUSH1 0x0 DUP4 DUP2 MSTORE PUSH1 0x20 DUP3 SWAP1 MSTORE PUSH1 0x40 SWAP1 KECCAK256 SWAP3 POP PUSH2 0x144E JUMP JUMPDEST PUSH1 0x0 DUP2 DUP2 MSTORE PUSH1 0x20 DUP5 SWAP1 MSTORE PUSH1 0x40 SWAP1 KECCAK256 SWAP3 POP JUMPDEST POP DUP1 PUSH2 0x1459 DUP2 PUSH2 0x1E03 JUMP JUMPDEST SWAP2 POP POP PUSH2 0x13FA JUMP JUMPDEST POP SWAP4 SWAP3 POP POP POP JUMP JUMPDEST PUSH1 0x0 SLOAD PUSH2 0x100 SWAP1 DIV PUSH1 0xFF AND PUSH2 0x1490 JUMPI PUSH1 0x40 MLOAD PUSH3 0x461BCD PUSH1 0xE5 SHL DUP2 MSTORE PUSH1 0x4 ADD PUSH2 0x8B5 SWAP1 PUSH2 0x1D30 JUMP JUMPDEST PUSH2 0xCF1 PUSH2 0x14EA JUMP JUMPDEST PUSH1 0x33 DUP1 SLOAD PUSH1 0x1 PUSH1 0x1 PUSH1 0xA0 SHL SUB DUP4 DUP2 AND PUSH1 0x1 PUSH1 0x1 PUSH1 0xA0 SHL SUB NOT DUP4 AND DUP2 OR SWAP1 SWAP4 SSTORE PUSH1 0x40 MLOAD SWAP2 AND SWAP2 SWAP1 DUP3 SWAP1 PUSH32 0x8BE0079C531659141344CD1FD0A4F28419497F9722A3DAAFE3B4186F6B6457E0 SWAP1 PUSH1 0x0 SWAP1 LOG3 POP POP JUMP JUMPDEST PUSH1 0x0 SLOAD PUSH2 0x100 SWAP1 DIV PUSH1 0xFF AND PUSH2 0x1511 JUMPI PUSH1 0x40 MLOAD PUSH3 0x461BCD PUSH1 0xE5 SHL DUP2 MSTORE PUSH1 0x4 ADD PUSH2 0x8B5 SWAP1 PUSH2 0x1D30 JUMP JUMPDEST PUSH2 0xCF1 CALLER PUSH2 0x1498 JUMP JUMPDEST DUP3 DUP1 SLOAD PUSH2 0x1526 SWAP1 PUSH2 0x1DCE JUMP JUMPDEST SWAP1 PUSH1 0x0 MSTORE PUSH1 0x20 PUSH1 0x0 KECCAK256 SWAP1 PUSH1 0x1F ADD PUSH1 0x20 SWAP1 DIV DUP2 ADD SWAP3 DUP3 PUSH2 0x1548 JUMPI PUSH1 0x0 DUP6 SSTORE PUSH2 0x158E JUMP JUMPDEST DUP3 PUSH1 0x1F LT PUSH2 0x1561 JUMPI DUP1 MLOAD PUSH1 0xFF NOT AND DUP4 DUP1 ADD OR DUP6 SSTORE PUSH2 0x158E JUMP JUMPDEST DUP3 DUP1 ADD PUSH1 0x1 ADD DUP6 SSTORE DUP3 ISZERO PUSH2 0x158E JUMPI SWAP2 DUP3 ADD JUMPDEST DUP3 DUP2 GT ISZERO PUSH2 0x158E JUMPI DUP3 MLOAD DUP3 SSTORE SWAP2 PUSH1 0x20 ADD SWAP2 SWAP1 PUSH1 0x1 ADD SWAP1 PUSH2 0x1573 JUMP JUMPDEST POP PUSH2 0x159A SWAP3 SWAP2 POP PUSH2 0x159E JUMP JUMPDEST POP SWAP1 JUMP JUMPDEST JUMPDEST DUP1 DUP3 GT ISZERO PUSH2 0x159A JUMPI PUSH1 0x0 DUP2 SSTORE PUSH1 0x1 ADD PUSH2 0x159F JUMP JUMPDEST DUP1 CALLDATALOAD PUSH1 0x1 PUSH1 0x1 PUSH1 0xA0 SHL SUB DUP2 AND DUP2 EQ PUSH2 0x15CA JUMPI PUSH1 0x0 DUP1 REVERT JUMPDEST SWAP2 SWAP1 POP JUMP JUMPDEST PUSH1 0x0 DUP3 PUSH1 0x1F DUP4 ADD SLT PUSH2 0x15E0 JUMPI PUSH1 0x0 DUP1 REVERT JUMPDEST DUP2 CALLDATALOAD PUSH1 0x20 PUSH2 0x15F5 PUSH2 0x15F0 DUP4 PUSH2 0x1DAB JUMP JUMPDEST PUSH2 0x1D7B JUMP JUMPDEST DUP1 DUP4 DUP3 MSTORE DUP3 DUP3 ADD SWAP2 POP DUP3 DUP7 ADD DUP8 DUP5 DUP7 PUSH1 0x5 SHL DUP10 ADD ADD GT ISZERO PUSH2 0x1615 JUMPI PUSH1 0x0 DUP1 REVERT JUMPDEST PUSH1 0x0 JUMPDEST DUP6 DUP2 LT ISZERO PUSH2 0x1634 JUMPI DUP2 CALLDATALOAD DUP5 MSTORE SWAP3 DUP5 ADD SWAP3 SWAP1 DUP5 ADD SWAP1 PUSH1 0x1 ADD PUSH2 0x1618 JUMP JUMPDEST POP SWAP1 SWAP8 SWAP7 POP POP POP POP POP POP POP JUMP JUMPDEST PUSH1 0x0 DUP3 PUSH1 0x1F DUP4 ADD SLT PUSH2 0x1652 JUMPI PUSH1 0x0 DUP1 REVERT JUMPDEST DUP2 CALLDATALOAD PUSH1 0x1 PUSH1 0x1 PUSH1 0x40 SHL SUB DUP2 GT ISZERO PUSH2 0x166B JUMPI PUSH2 0x166B PUSH2 0x1E58 JUMP JUMPDEST PUSH2 0x167E PUSH1 0x1F DUP3 ADD PUSH1 0x1F NOT AND PUSH1 0x20 ADD PUSH2 0x1D7B JUMP JUMPDEST DUP2 DUP2 MSTORE DUP5 PUSH1 0x20 DUP4 DUP7 ADD ADD GT ISZERO PUSH2 0x1693 JUMPI PUSH1 0x0 DUP1 REVERT JUMPDEST DUP2 PUSH1 0x20 DUP6 ADD PUSH1 0x20 DUP4 ADD CALLDATACOPY PUSH1 0x0 SWAP2 DUP2 ADD PUSH1 0x20 ADD SWAP2 SWAP1 SWAP2 MSTORE SWAP4 SWAP3 POP POP POP JUMP JUMPDEST PUSH1 0x0 PUSH1 0x20 DUP3 DUP5 SUB SLT ISZERO PUSH2 0x16C2 JUMPI PUSH1 0x0 DUP1 REVERT JUMPDEST PUSH2 0x7C3 DUP3 PUSH2 0x15B3 JUMP JUMPDEST PUSH1 0x0 PUSH1 0x20 DUP1 DUP4 DUP6 SUB SLT ISZERO PUSH2 0x16DE JUMPI PUSH1 0x0 DUP1 REVERT JUMPDEST DUP3 CALLDATALOAD PUSH1 0x1 PUSH1 0x1 PUSH1 0x40 SHL SUB DUP2 GT ISZERO PUSH2 0x16F4 JUMPI PUSH1 0x0 DUP1 REVERT JUMPDEST DUP4 ADD PUSH1 0x1F DUP2 ADD DUP6 SGT PUSH2 0x1705 JUMPI PUSH1 0x0 DUP1 REVERT JUMPDEST DUP1 CALLDATALOAD PUSH2 0x1713 PUSH2 0x15F0 DUP3 PUSH2 0x1DAB JUMP JUMPDEST DUP1 DUP3 DUP3 MSTORE DUP5 DUP3 ADD SWAP2 POP DUP5 DUP5 ADD DUP9 DUP7 DUP6 PUSH1 0x5 SHL DUP8 ADD ADD GT ISZERO PUSH2 0x1733 JUMPI PUSH1 0x0 DUP1 REVERT JUMPDEST PUSH1 0x0 SWAP5 POP JUMPDEST DUP4 DUP6 LT ISZERO PUSH2 0x175D JUMPI PUSH2 0x1749 DUP2 PUSH2 0x15B3 JUMP JUMPDEST DUP4 MSTORE PUSH1 0x1 SWAP5 SWAP1 SWAP5 ADD SWAP4 SWAP2 DUP6 ADD SWAP2 DUP6 ADD PUSH2 0x1738 JUMP JUMPDEST POP SWAP8 SWAP7 POP POP POP POP POP POP POP JUMP JUMPDEST PUSH1 0x0 PUSH1 0x20 DUP3 DUP5 SUB SLT ISZERO PUSH2 0x177B JUMPI PUSH1 0x0 DUP1 REVERT JUMPDEST DUP2 CALLDATALOAD PUSH1 0x1 PUSH1 0x1 PUSH1 0x40 SHL SUB DUP2 GT ISZERO PUSH2 0x1791 JUMPI PUSH1 0x0 DUP1 REVERT JUMPDEST PUSH2 0x179D DUP5 DUP3 DUP6 ADD PUSH2 0x15CF JUMP JUMPDEST SWAP5 SWAP4 POP POP POP POP JUMP JUMPDEST PUSH1 0x0 DUP1 PUSH1 0x40 DUP4 DUP6 SUB SLT ISZERO PUSH2 0x17B8 JUMPI PUSH1 0x0 DUP1 REVERT JUMPDEST DUP3 CALLDATALOAD PUSH1 0x1 PUSH1 0x1 PUSH1 0x40 SHL SUB DUP1 DUP3 GT ISZERO PUSH2 0x17CF JUMPI PUSH1 0x0 DUP1 REVERT JUMPDEST PUSH2 0x17DB DUP7 DUP4 DUP8 ADD PUSH2 0x15CF JUMP JUMPDEST SWAP4 POP PUSH1 0x20 SWAP2 POP DUP2 DUP6 ADD CALLDATALOAD DUP2 DUP2 GT ISZERO PUSH2 0x17F2 JUMPI PUSH1 0x0 DUP1 REVERT JUMPDEST DUP6 ADD SWAP1 POP PUSH1 0x1F DUP2 ADD DUP7 SGT PUSH2 0x1805 JUMPI PUSH1 0x0 DUP1 REVERT JUMPDEST DUP1 CALLDATALOAD PUSH2 0x1813 PUSH2 0x15F0 DUP3 PUSH2 0x1DAB JUMP JUMPDEST DUP1 DUP3 DUP3 MSTORE DUP5 DUP3 ADD SWAP2 POP DUP5 DUP5 ADD DUP10 DUP7 DUP6 PUSH1 0x5 SHL DUP8 ADD ADD GT ISZERO PUSH2 0x1833 JUMPI PUSH1 0x0 DUP1 REVERT JUMPDEST PUSH1 0x0 SWAP5 POP JUMPDEST DUP4 DUP6 LT ISZERO PUSH2 0x1856 JUMPI DUP1 CALLDATALOAD DUP4 MSTORE PUSH1 0x1 SWAP5 SWAP1 SWAP5 ADD SWAP4 SWAP2 DUP6 ADD SWAP2 DUP6 ADD PUSH2 0x1838 JUMP JUMPDEST POP DUP1 SWAP6 POP POP POP POP POP POP SWAP3 POP SWAP3 SWAP1 POP JUMP JUMPDEST PUSH1 0x0 DUP1 PUSH1 0x0 PUSH1 0x60 DUP5 DUP7 SUB SLT ISZERO PUSH2 0x187B JUMPI PUSH1 0x0 DUP1 REVERT JUMPDEST DUP4 CALLDATALOAD PUSH1 0x1 PUSH1 0x1 PUSH1 0x40 SHL SUB DUP2 GT ISZERO PUSH2 0x1891 JUMPI PUSH1 0x0 DUP1 REVERT JUMPDEST PUSH2 0x189D DUP7 DUP3 DUP8 ADD PUSH2 0x15CF JUMP JUMPDEST SWAP7 PUSH1 0x20 DUP7 ADD CALLDATALOAD SWAP7 POP PUSH1 0x40 SWAP1 SWAP6 ADD CALLDATALOAD SWAP5 SWAP4 POP POP POP POP JUMP JUMPDEST PUSH1 0x0 PUSH1 0x20 DUP3 DUP5 SUB SLT ISZERO PUSH2 0x18C5 JUMPI PUSH1 0x0 DUP1 REVERT JUMPDEST POP CALLDATALOAD SWAP2 SWAP1 POP JUMP JUMPDEST PUSH1 0x0 DUP1 PUSH1 0x40 DUP4 DUP6 SUB SLT ISZERO PUSH2 0x18DF JUMPI PUSH1 0x0 DUP1 REVERT JUMPDEST POP POP DUP1 CALLDATALOAD SWAP3 PUSH1 0x20 SWAP1 SWAP2 ADD CALLDATALOAD SWAP2 POP JUMP JUMPDEST PUSH1 0x0 PUSH1 0x20 DUP3 DUP5 SUB SLT ISZERO PUSH2 0x1900 JUMPI PUSH1 0x0 DUP1 REVERT JUMPDEST DUP2 CALLDATALOAD PUSH1 0x1 PUSH1 0x1 PUSH1 0x40 SHL SUB DUP2 GT ISZERO PUSH2 0x1916 JUMPI PUSH1 0x0 DUP1 REVERT JUMPDEST PUSH2 0x179D DUP5 DUP3 DUP6 ADD PUSH2 0x1641 JUMP JUMPDEST PUSH1 0x0 DUP1 PUSH1 0x0 DUP1 PUSH1 0x0 DUP1 PUSH1 0x0 DUP1 PUSH2 0x100 DUP10 DUP12 SUB SLT ISZERO PUSH2 0x193F JUMPI PUSH1 0x0 DUP1 REVERT JUMPDEST DUP9 CALLDATALOAD PUSH1 0x1 PUSH1 0x1 PUSH1 0x40 SHL SUB DUP1 DUP3 GT ISZERO PUSH2 0x1956 JUMPI PUSH1 0x0 DUP1 REVERT JUMPDEST PUSH2 0x1962 DUP13 DUP4 DUP14 ADD PUSH2 0x1641 JUMP JUMPDEST SWAP10 POP PUSH1 0x20 DUP12 ADD CALLDATALOAD SWAP2 POP DUP1 DUP3 GT ISZERO PUSH2 0x1978 JUMPI PUSH1 0x0 DUP1 REVERT JUMPDEST PUSH2 0x1984 DUP13 DUP4 DUP14 ADD PUSH2 0x1641 JUMP JUMPDEST SWAP9 POP PUSH1 0x40 DUP12 ADD CALLDATALOAD SWAP2 POP DUP1 DUP3 GT ISZERO PUSH2 0x199A JUMPI PUSH1 0x0 DUP1 REVERT JUMPDEST PUSH2 0x19A6 DUP13 DUP4 DUP14 ADD PUSH2 0x1641 JUMP JUMPDEST SWAP8 POP PUSH1 0x60 DUP12 ADD CALLDATALOAD SWAP2 POP DUP1 DUP3 GT ISZERO PUSH2 0x19BC JUMPI PUSH1 0x0 DUP1 REVERT JUMPDEST PUSH2 0x19C8 DUP13 DUP4 DUP14 ADD PUSH2 0x1641 JUMP JUMPDEST SWAP7 POP PUSH1 0x80 DUP12 ADD CALLDATALOAD SWAP2 POP DUP1 DUP3 GT ISZERO PUSH2 0x19DE JUMPI PUSH1 0x0 DUP1 REVERT JUMPDEST POP PUSH2 0x19EB DUP12 DUP3 DUP13 ADD PUSH2 0x1641 JUMP JUMPDEST SWAP5 POP POP PUSH1 0xA0 DUP10 ADD CALLDATALOAD SWAP3 POP PUSH2 0x1A01 PUSH1 0xC0 DUP11 ADD PUSH2 0x15B3 JUMP JUMPDEST SWAP2 POP PUSH2 0x1A0F PUSH1 0xE0 DUP11 ADD PUSH2 0x15B3 JUMP JUMPDEST SWAP1 POP SWAP3 SWAP6 SWAP9 POP SWAP3 SWAP6 SWAP9 SWAP1 SWAP4 SWAP7 POP JUMP JUMPDEST PUSH1 0x0 DUP2 MLOAD DUP1 DUP5 MSTORE PUSH1 0x0 JUMPDEST DUP2 DUP2 LT ISZERO PUSH2 0x1A44 JUMPI PUSH1 0x20 DUP2 DUP6 ADD DUP2 ADD MLOAD DUP7 DUP4 ADD DUP3 ADD MSTORE ADD PUSH2 0x1A28 JUMP JUMPDEST DUP2 DUP2 GT ISZERO PUSH2 0x1A56 JUMPI PUSH1 0x0 PUSH1 0x20 DUP4 DUP8 ADD ADD MSTORE JUMPDEST POP PUSH1 0x1F ADD PUSH1 0x1F NOT AND SWAP3 SWAP1 SWAP3 ADD PUSH1 0x20 ADD SWAP3 SWAP2 POP POP JUMP JUMPDEST DUP1 SLOAD PUSH1 0x0 SWAP1 PUSH1 0x1 DUP2 DUP2 SHR SWAP1 DUP1 DUP4 AND DUP1 PUSH2 0x1A85 JUMPI PUSH1 0x7F DUP4 AND SWAP3 POP JUMPDEST PUSH1 0x20 DUP1 DUP5 LT DUP3 EQ ISZERO PUSH2 0x1AA7 JUMPI PUSH4 0x4E487B71 PUSH1 0xE0 SHL PUSH1 0x0 MSTORE PUSH1 0x22 PUSH1 0x4 MSTORE PUSH1 0x24 PUSH1 0x0 REVERT JUMPDEST DUP4 DUP9 MSTORE PUSH1 0x20 DUP9 ADD DUP3 DUP1 ISZERO PUSH2 0x1AC2 JUMPI PUSH1 0x1 DUP2 EQ PUSH2 0x1AD3 JUMPI PUSH2 0x1AFE JUMP JUMPDEST PUSH1 0xFF NOT DUP8 AND DUP3 MSTORE DUP3 DUP3 ADD SWAP8 POP PUSH2 0x1AFE JUMP JUMPDEST PUSH1 0x0 DUP10 DUP2 MSTORE PUSH1 0x20 SWAP1 KECCAK256 PUSH1 0x0 JUMPDEST DUP8 DUP2 LT ISZERO PUSH2 0x1AF8 JUMPI DUP2 SLOAD DUP5 DUP3 ADD MSTORE SWAP1 DUP7 ADD SWAP1 DUP5 ADD PUSH2 0x1ADF JUMP JUMPDEST DUP4 ADD SWAP9 POP POP JUMPDEST POP POP POP POP POP POP POP SWAP3 SWAP2 POP POP JUMP JUMPDEST PUSH1 0x1 PUSH1 0x1 PUSH1 0xA0 SHL SUB DUP4 AND DUP2 MSTORE PUSH1 0x40 PUSH1 0x20 DUP3 ADD DUP2 SWAP1 MSTORE PUSH1 0x0 SWAP1 PUSH2 0x179D SWAP1 DUP4 ADD DUP5 PUSH2 0x1A1E JUMP JUMPDEST PUSH1 0x20 DUP1 DUP3 MSTORE DUP3 MLOAD DUP3 DUP3 ADD DUP2 SWAP1 MSTORE PUSH1 0x0 SWAP2 SWAP1 DUP5 DUP3 ADD SWAP1 PUSH1 0x40 DUP6 ADD SWAP1 DUP5 JUMPDEST DUP2 DUP2 LT ISZERO PUSH2 0x1B70 JUMPI DUP4 MLOAD PUSH1 0x1 PUSH1 0x1 PUSH1 0xA0 SHL SUB AND DUP4 MSTORE SWAP3 DUP5 ADD SWAP3 SWAP2 DUP5 ADD SWAP2 PUSH1 0x1 ADD PUSH2 0x1B4B JUMP JUMPDEST POP SWAP1 SWAP7 SWAP6 POP POP POP POP POP POP JUMP JUMPDEST PUSH1 0x20 DUP1 DUP3 MSTORE DUP3 SLOAD DUP3 DUP3 ADD DUP2 SWAP1 MSTORE PUSH1 0x0 DUP5 DUP2 MSTORE DUP3 DUP2 KECCAK256 SWAP1 SWAP3 SWAP2 PUSH1 0x40 DUP6 ADD SWAP1 DUP5 JUMPDEST DUP2 DUP2 LT ISZERO PUSH2 0x1B70 JUMPI DUP4 SLOAD PUSH1 0x1 PUSH1 0x1 PUSH1 0xA0 SHL SUB AND DUP4 MSTORE PUSH1 0x1 SWAP4 DUP5 ADD SWAP4 SWAP3 DUP6 ADD SWAP3 ADD PUSH2 0x1B9B JUMP JUMPDEST PUSH1 0x20 DUP2 MSTORE PUSH1 0x0 PUSH2 0x7C3 PUSH1 0x20 DUP4 ADD DUP5 PUSH2 0x1A1E JUMP JUMPDEST PUSH1 0xC0 DUP2 MSTORE PUSH1 0x0 PUSH2 0x1BE6 PUSH1 0xC0 DUP4 ADD DUP10 PUSH2 0x1A6B JUMP JUMPDEST DUP3 DUP2 SUB PUSH1 0x20 DUP5 ADD MSTORE PUSH2 0x1BF8 DUP2 DUP10 PUSH2 0x1A6B JUMP JUMPDEST SWAP1 POP DUP3 DUP2 SUB PUSH1 0x40 DUP5 ADD MSTORE PUSH2 0x1C0C DUP2 DUP9 PUSH2 0x1A6B JUMP JUMPDEST SWAP1 POP DUP3 DUP2 SUB PUSH1 0x60 DUP5 ADD MSTORE PUSH2 0x1C20 DUP2 DUP8 PUSH2 0x1A6B JUMP JUMPDEST SWAP1 POP DUP3 DUP2 SUB PUSH1 0x80 DUP5 ADD MSTORE PUSH2 0x1C34 DUP2 DUP7 PUSH2 0x1A6B JUMP JUMPDEST SWAP2 POP POP DUP3 PUSH1 0xA0 DUP4 ADD MSTORE SWAP8 SWAP7 POP POP POP POP POP POP POP JUMP JUMPDEST PUSH1 0x20 DUP1 DUP3 MSTORE PUSH1 0x31 SWAP1 DUP3 ADD MSTORE PUSH32 0x4572726F723A204F6E6C792069737375656420646F63756D656E742068617368 PUSH1 0x40 DUP3 ADD MSTORE PUSH17 0x195CC818D85B881899481C995D9BDAD959 PUSH1 0x7A SHL PUSH1 0x60 DUP3 ADD MSTORE PUSH1 0x80 ADD SWAP1 JUMP JUMPDEST PUSH1 0x20 DUP1 DUP3 MSTORE PUSH1 0x27 SWAP1 DUP3 ADD MSTORE PUSH32 0x4572726F723A204861736820686173206265656E207265766F6B656420707265 PUSH1 0x40 DUP3 ADD MSTORE PUSH7 0x76696F75736C79 PUSH1 0xC8 SHL PUSH1 0x60 DUP3 ADD MSTORE PUSH1 0x80 ADD SWAP1 JUMP JUMPDEST PUSH1 0x20 DUP1 DUP3 MSTORE PUSH1 0x30 SWAP1 DUP3 ADD MSTORE PUSH32 0x4572726F723A204F6E6C79205075626C69736865722063616E207265766F6B65 PUSH1 0x40 DUP3 ADD MSTORE PUSH16 0x2F697373756520646F63756D656E7473 PUSH1 0x80 SHL PUSH1 0x60 DUP3 ADD MSTORE PUSH1 0x80 ADD SWAP1 JUMP JUMPDEST PUSH1 0x20 DUP1 DUP3 MSTORE PUSH1 0x2B SWAP1 DUP3 ADD MSTORE PUSH32 0x496E697469616C697A61626C653A20636F6E7472616374206973206E6F742069 PUSH1 0x40 DUP3 ADD MSTORE PUSH11 0x6E697469616C697A696E67 PUSH1 0xA8 SHL PUSH1 0x60 DUP3 ADD MSTORE PUSH1 0x80 ADD SWAP1 JUMP JUMPDEST PUSH1 0x40 MLOAD PUSH1 0x1F DUP3 ADD PUSH1 0x1F NOT AND DUP2 ADD PUSH1 0x1 PUSH1 0x1 PUSH1 0x40 SHL SUB DUP2 GT DUP3 DUP3 LT OR ISZERO PUSH2 0x1DA3 JUMPI PUSH2 0x1DA3 PUSH2 0x1E58 JUMP JUMPDEST PUSH1 0x40 MSTORE SWAP2 SWAP1 POP JUMP JUMPDEST PUSH1 0x0 PUSH1 0x1 PUSH1 0x1 PUSH1 0x40 SHL SUB DUP3 GT ISZERO PUSH2 0x1DC4 JUMPI PUSH2 0x1DC4 PUSH2 0x1E58 JUMP JUMPDEST POP PUSH1 0x5 SHL PUSH1 0x20 ADD SWAP1 JUMP JUMPDEST PUSH1 0x1 DUP2 DUP2 SHR SWAP1 DUP3 AND DUP1 PUSH2 0x1DE2 JUMPI PUSH1 0x7F DUP3 AND SWAP2 POP JUMPDEST PUSH1 0x20 DUP3 LT DUP2 EQ ISZERO PUSH2 0xC63 JUMPI PUSH4 0x4E487B71 PUSH1 0xE0 SHL PUSH1 0x0 MSTORE PUSH1 0x22 PUSH1 0x4 MSTORE PUSH1 0x24 PUSH1 0x0 REVERT JUMPDEST PUSH1 0x0 PUSH1 0x0 NOT DUP3 EQ ISZERO PUSH2 0x1E25 JUMPI PUSH4 0x4E487B71 PUSH1 0xE0 SHL PUSH1 0x0 MSTORE PUSH1 0x11 PUSH1 0x4 MSTORE PUSH1 0x24 PUSH1 0x0 REVERT JUMPDEST POP PUSH1 0x1 ADD SWAP1 JUMP JUMPDEST PUSH4 0x4E487B71 PUSH1 0xE0 SHL PUSH1 0x0 MSTORE PUSH1 0x31 PUSH1 0x4 MSTORE PUSH1 0x24 PUSH1 0x0 REVERT JUMPDEST PUSH4 0x4E487B71 PUSH1 0xE0 SHL PUSH1 0x0 MSTORE PUSH1 0x32 PUSH1 0x4 MSTORE PUSH1 0x24 PUSH1 0x0 REVERT JUMPDEST PUSH4 0x4E487B71 PUSH1 0xE0 SHL PUSH1 0x0 MSTORE PUSH1 0x41 PUSH1 0x4 MSTORE PUSH1 0x24 PUSH1 0x0 REVERT INVALID JUMPI PUSH10 0xCAD5059D53ECD481A846 0xD8 0xFB GAS SLOAD DUP7 DUP9 CALLCODE DUP6 DUP16 0xC2 0xD5 EXTCODESIZE 0xDF SAR PUSH26 0xC7AB2BE1BB8F522CC919845BF58B76C472A942579FF9D850D675 MSIZE BALANCE 0x5C SLOAD DUP5 DUP13 BALANCE 0xE0 0xFC 0x25 ISZERO LOG2 PUSH5 0x6970667358 0x22 SLT KECCAK256 DUP10 0x1E GT SDIV PUSH11 0xF1DDB607A450D82217E703 SWAP1 KECCAK256 SWAP3 0xD1 SIGNEXTEND 0xA9 0x27 SWAP8 0xF8 0xFC 0xB4 CALLER 0xD8 DUP13 0xDE DIFFICULTY PUSH5 0x736F6C6343 STOP ADDMOD SDIV STOP CALLER "},"methodIdentifiers":{"addPublishers(address[])":"d31a57d6","bulkIssue(bytes32[],uint256[])":"9dd516a5","bulkRevoke(bytes32[])":"4ada8076","documentExpiration(bytes32)":"d5fb36c5","documentIssued(bytes32)":"33358d2d","documentPublisher(bytes32)":"156e4b02","documentRevoked(bytes32)":"8bc36c91","email()":"820e93f5","expiredTime()":"8e32e421","getEmail()":"7e79e8ba","getExpirationDate(bytes32)":"a0f3a321","getExpiredTime()":"16f5f7d4","getHost()":"20bc4425","getIntentDeclaration()":"eb5face7","getIssuedBlock(bytes32)":"bf40b904","getLegalReference()":"38f186c2","getName()":"17d7de7c","getPublishers()":"6c6071aa","host()":"f437bc59","initialize(string,string,string,string,string,uint256,address,address)":"5e9057b5","intentDeclaration()":"707c21ac","isExpired(bytes32)":"6db2feb2","isIssued(bytes32)":"163aa631","isIssuedBefore(bytes32,uint256)":"5a9e03ca","isRevoked(bytes32)":"4294857f","isRevokedBefore(bytes32,uint256)":"339b6b39","issue(bytes32,uint256)":"a92abe37","legalReference()":"6ae08ffa","name()":"06fdde03","owner()":"8da5cb5b","publisherCheck(address)":"6df38d67","publishers(uint256)":"ff060fbd","removeAllPublishers()":"7d1feb6f","renounceOwnership()":"715018a6","revoke(bytes32)":"b75c7dc6","setEmail(string)":"282b065a","setExpiredTime(uint256)":"df8debed","setHost(string)":"a5ab89ff","setIntentDeclaration(string)":"3d4a3eb0","setLegalReference(string)":"2dc974d8","setName(string)":"c47f0027","testHashFunc(bytes32)":"d5e9b377","transferOwnership(address)":"f2fde38b","verify(bytes32[],bytes32,bytes32)":"5a9a49c7"}}}}}