{"contracts/DocumentStore.sol":{"DocumentStore":{"abi":[{"anonymous":false,"inputs":[{"indexed":true,"internalType":"address","name":"thisContract","type":"address"},{"indexed":false,"internalType":"uint256","name":"time","type":"uint256"}],"name":"ContractExpired","type":"event"},{"anonymous":false,"inputs":[{"indexed":false,"internalType":"string","name":"_name","type":"string"},{"indexed":false,"internalType":"string","name":"_email","type":"string"},{"indexed":false,"internalType":"string","name":"_legalReference","type":"string"},{"indexed":false,"internalType":"string","name":"_intentDeclaration","type":"string"},{"indexed":false,"internalType":"string","name":"_host","type":"string"},{"indexed":false,"internalType":"uint256","name":"_time","type":"uint256"}],"name":"ContractInfoChanged","type":"event"},{"anonymous":false,"inputs":[{"indexed":true,"internalType":"bytes32","name":"document","type":"bytes32"}],"name":"DocumentIssued","type":"event"},{"anonymous":false,"inputs":[{"indexed":true,"internalType":"bytes32","name":"document","type":"bytes32"}],"name":"DocumentRevoked","type":"event"},{"anonymous":false,"inputs":[{"indexed":false,"internalType":"uint8","name":"version","type":"uint8"}],"name":"Initialized","type":"event"},{"anonymous":false,"inputs":[{"indexed":true,"internalType":"address","name":"previousOwner","type":"address"},{"indexed":true,"internalType":"address","name":"newOwner","type":"address"}],"name":"OwnershipTransferred","type":"event"},{"anonymous":false,"inputs":[{"indexed":true,"internalType":"address","name":"documentStore","type":"address"},{"indexed":false,"internalType":"address[]","name":"currentPublishers","type":"address[]"}],"name":"PublisherChanged","type":"event"},{"inputs":[{"internalType":"address[]","name":"_newPublishers","type":"address[]"}],"name":"addPublishers","outputs":[],"stateMutability":"nonpayable","type":"function"},{"inputs":[{"internalType":"bytes32[]","name":"documents","type":"bytes32[]"},{"internalType":"uint256[]","name":"_expiredTime","type":"uint256[]"}],"name":"bulkIssue","outputs":[],"stateMutability":"nonpayable","type":"function"},{"inputs":[{"internalType":"bytes32[]","name":"documents","type":"bytes32[]"}],"name":"bulkRevoke","outputs":[],"stateMutability":"nonpayable","type":"function"},{"inputs":[{"internalType":"bytes32","name":"","type":"bytes32"}],"name":"documentExpiration","outputs":[{"internalType":"uint256","name":"","type":"uint256"}],"stateMutability":"view","type":"function"},{"inputs":[{"internalType":"bytes32","name":"","type":"bytes32"}],"name":"documentIssued","outputs":[{"internalType":"uint256","name":"","type":"uint256"}],"stateMutability":"view","type":"function"},{"inputs":[{"internalType":"bytes32","name":"","type":"bytes32"}],"name":"documentPublisher","outputs":[{"internalType":"address","name":"","type":"address"}],"stateMutability":"view","type":"function"},{"inputs":[{"internalType":"bytes32","name":"","type":"bytes32"}],"name":"documentRevoked","outputs":[{"internalType":"uint256","name":"","type":"uint256"}],"stateMutability":"view","type":"function"},{"inputs":[],"name":"email","outputs":[{"internalType":"string","name":"","type":"string"}],"stateMutability":"view","type":"function"},{"inputs":[],"name":"expiredTime","outputs":[{"internalType":"uint256","name":"","type":"uint256"}],"stateMutability":"view","type":"function"},{"inputs":[],"name":"getEmail","outputs":[{"internalType":"string","name":"","type":"string"}],"stateMutability":"view","type":"function"},{"inputs":[{"internalType":"bytes32","name":"document","type":"bytes32"}],"name":"getExpirationDate","outputs":[{"internalType":"uint256","name":"","type":"uint256"}],"stateMutability":"view","type":"function"},{"inputs":[],"name":"getExpiredTime","outputs":[{"internalType":"uint256","name":"","type":"uint256"}],"stateMutability":"view","type":"function"},{"inputs":[],"name":"getHost","outputs":[{"internalType":"string","name":"","type":"string"}],"stateMutability":"view","type":"function"},{"inputs":[],"name":"getIntentDeclaration","outputs":[{"internalType":"string","name":"","type":"string"}],"stateMutability":"view","type":"function"},{"inputs":[{"internalType":"bytes32","name":"document","type":"bytes32"}],"name":"getIssuedBlock","outputs":[{"internalType":"uint256","name":"","type":"uint256"}],"stateMutability":"view","type":"function"},{"inputs":[],"name":"getLegalReference","outputs":[{"internalType":"string","name":"","type":"string"}],"stateMutability":"view","type":"function"},{"inputs":[],"name":"getName","outputs":[{"internalType":"string","name":"","type":"string"}],"stateMutability":"view","type":"function"},{"inputs":[],"name":"getPublishers","outputs":[{"internalType":"address[]","name":"","type":"address[]"}],"stateMutability":"view","type":"function"},{"inputs":[],"name":"host","outputs":[{"internalType":"string","name":"","type":"string"}],"stateMutability":"view","type":"function"},{"inputs":[{"internalType":"string","name":"_name","type":"string"},{"internalType":"string","name":"_email","type":"string"},{"internalType":"string","name":"_legalReference","type":"string"},{"internalType":"string","name":"_intentDeclaration","type":"string"},{"internalType":"string","name":"_host","type":"string"},{"internalType":"uint256","name":"_time","type":"uint256"},{"internalType":"address","name":"_owner","type":"address"},{"internalType":"address","name":"_ownerManager","type":"address"}],"name":"initialize","outputs":[],"stateMutability":"nonpayable","type":"function"},{"inputs":[],"name":"intentDeclaration","outputs":[{"internalType":"string","name":"","type":"string"}],"stateMutability":"view","type":"function"},{"inputs":[{"internalType":"bytes32","name":"document","type":"bytes32"}],"name":"isExpired","outputs":[{"internalType":"bool","name":"","type":"bool"}],"stateMutability":"view","type":"function"},{"inputs":[{"internalType":"bytes32","name":"document","type":"bytes32"}],"name":"isIssued","outputs":[{"internalType":"bool","name":"","type":"bool"}],"stateMutability":"view","type":"function"},{"inputs":[{"internalType":"bytes32","name":"document","type":"bytes32"},{"internalType":"uint256","name":"blockNumber","type":"uint256"}],"name":"isIssuedBefore","outputs":[{"internalType":"bool","name":"","type":"bool"}],"stateMutability":"view","type":"function"},{"inputs":[{"internalType":"bytes32","name":"document","type":"bytes32"}],"name":"isRevoked","outputs":[{"internalType":"bool","name":"","type":"bool"}],"stateMutability":"view","type":"function"},{"inputs":[{"internalType":"bytes32","name":"document","type":"bytes32"},{"internalType":"uint256","name":"blockNumber","type":"uint256"}],"name":"isRevokedBefore","outputs":[{"internalType":"bool","name":"","type":"bool"}],"stateMutability":"view","type":"function"},{"inputs":[{"internalType":"bytes32","name":"document","type":"bytes32"},{"internalType":"uint256","name":"_expiredTime","type":"uint256"}],"name":"issue","outputs":[],"stateMutability":"nonpayable","type":"function"},{"inputs":[],"name":"legalReference","outputs":[{"internalType":"string","name":"","type":"string"}],"stateMutability":"view","type":"function"},{"inputs":[],"name":"name","outputs":[{"internalType":"string","name":"","type":"string"}],"stateMutability":"view","type":"function"},{"inputs":[],"name":"owner","outputs":[{"internalType":"address","name":"","type":"address"}],"stateMutability":"view","type":"function"},{"inputs":[{"internalType":"address","name":"_address","type":"address"}],"name":"publisherCheck","outputs":[{"internalType":"bool","name":"","type":"bool"}],"stateMutability":"view","type":"function"},{"inputs":[{"internalType":"uint256","name":"","type":"uint256"}],"name":"publishers","outputs":[{"internalType":"address","name":"","type":"address"}],"stateMutability":"view","type":"function"},{"inputs":[],"name":"removeAllPublishers","outputs":[],"stateMutability":"nonpayable","type":"function"},{"inputs":[],"name":"renounceOwnership","outputs":[],"stateMutability":"nonpayable","type":"function"},{"inputs":[{"internalType":"bytes32","name":"document","type":"bytes32"}],"name":"revoke","outputs":[],"stateMutability":"nonpayable","type":"function"},{"inputs":[{"internalType":"string","name":"_email","type":"string"}],"name":"setEmail","outputs":[],"stateMutability":"nonpayable","type":"function"},{"inputs":[{"internalType":"uint256","name":"_time","type":"uint256"}],"name":"setExpiredTime","outputs":[],"stateMutability":"nonpayable","type":"function"},{"inputs":[{"internalType":"string","name":"_host","type":"string"}],"name":"setHost","outputs":[],"stateMutability":"nonpayable","type":"function"},{"inputs":[{"internalType":"string","name":"_intentDeclaration","type":"string"}],"name":"setIntentDeclaration","outputs":[],"stateMutability":"nonpayable","type":"function"},{"inputs":[{"internalType":"string","name":"_legalReference","type":"string"}],"name":"setLegalReference","outputs":[],"stateMutability":"nonpayable","type":"function"},{"inputs":[{"internalType":"string","name":"_name","type":"string"}],"name":"setName","outputs":[],"stateMutability":"nonpayable","type":"function"},{"inputs":[{"internalType":"address","name":"newOwner","type":"address"}],"name":"transferOwnership","outputs":[],"stateMutability":"nonpayable","type":"function"},{"inputs":[{"internalType":"bytes32[]","name":"proof","type":"bytes32[]"},{"internalType":"bytes32","name":"root","type":"bytes32"},{"internalType":"bytes32","name":"leaf","type":"bytes32"}],"name":"verify","outputs":[{"internalType":"bool","name":"","type":"bool"}],"stateMutability":"view","type":"function"}],"evm":{"bytecode":{"linkReferences":{},"object":"608060405234801561001057600080fd5b50611ef4806100206000396000f3fe608060405234801561001057600080fd5b50600436106102695760003560e01c8063707c21ac11610151578063a92abe37116100c3578063d5fb36c511610087578063d5fb36c514610542578063df8debed14610562578063eb5face714610575578063f2fde38b1461057d578063f437bc5914610590578063ff060fbd1461059857600080fd5b8063a92abe37146104e3578063b75c7dc6146104f6578063bf40b90414610509578063c47f00271461051c578063d31a57d61461052f57600080fd5b80638bc36c91116101155780638bc36c91146104705780638da5cb5b146104905780638e32e421146104a15780639dd516a5146104aa578063a0f3a321146104bd578063a5ab89ff146104d057600080fd5b8063707c21ac14610448578063715018a6146104505780637d1feb6f146104585780637e79e8ba14610460578063820e93f51461046857600080fd5b806338f186c2116101ea5780635a9e03ca116101ae5780635a9e03ca146103df5780635e9057b5146103f25780636ae08ffa146104055780636c6071aa1461040d5780636db2feb2146104225780636df38d671461043557600080fd5b806338f186c21461037c5780633d4a3eb0146103845780634294857f146103975780634ada8076146103b95780635a9a49c7146103cc57600080fd5b806320bc44251161023157806320bc442514610319578063282b065a146103215780632dc974d81461033657806333358d2d14610349578063339b6b391461036957600080fd5b806306fdde031461026e578063156e4b021461028c578063163aa631146102cd57806316f5f7d4146102ff57806317d7de7c14610311575b600080fd5b6102766105ab565b6040516102839190611c10565b60405180910390f35b6102b561029a366004611903565b6070602052600090815260409020546001600160a01b031681565b6040516001600160a01b039091168152602001610283565b6102ef6102db366004611903565b6000908152606d6020526040902054151590565b6040519015158152602001610283565b606a545b604051908152602001610283565b610276610639565b6102766106cb565b61033461032f36600461193e565b6106da565b005b61033461034436600461193e565b6107b3565b610303610357366004611903565b606d6020526000908152604090205481565b6102ef61037736600461191c565b61080f565b610276610841565b61033461039236600461193e565b610850565b6102ef6103a5366004611903565b6000908152606e6020526040902054151590565b6103346103c73660046117b9565b6108ac565b6102ef6103da3660046118b6565b6108f0565b6102ef6103ed36600461191c565b61098b565b610334610400366004611972565b6109b9565b610276610bf9565b610415610c06565b6040516102839190611b7f565b6102ef610430366004611903565b610c67565b6102ef610443366004611700565b610cae565b610276610d17565b610334610d24565b610334610d38565b610276610dd2565b610276610de1565b61030361047e366004611903565b606e6020526000908152604090205481565b6033546001600160a01b03166102b5565b610303606a5481565b6103346104b83660046117f5565b610dee565b6103036104cb366004611903565b610e4d565b6103346104de36600461193e565b610e8e565b6103346104f136600461191c565b610eea565b610334610504366004611903565b611007565b610303610517366004611903565b6110a9565b61033461052a36600461193e565b6110ea565b61033461053d36600461171b565b611146565b610303610550366004611903565b606f6020526000908152604090205481565b610334610570366004611903565b61127c565b61027661132c565b61033461058b366004611700565b61133b565b6102766113b4565b6102b56105a6366004611903565b6113c1565b606580546105b890611e1e565b80601f01602080910402602001604051908101604052809291908181526020018280546105e490611e1e565b80156106315780601f1061060657610100808354040283529160200191610631565b820191906000526020600020905b81548152906001019060200180831161061457829003601f168201915b505050505081565b60606065805461064890611e1e565b80601f016020809104026020016040519081016040528092919081815260200182805461067490611e1e565b80156106c15780601f10610696576101008083540402835291602001916106c1565b820191906000526020600020905b8154815290600101906020018083116106a457829003601f168201915b5050505050905090565b60606069805461064890611e1e565b6106e26113eb565b42606a54116106f057600080fd5b805161070390606690602084019061156a565b50606b546040516368c35c4b60e01b81526001600160a01b03909116906368c35c4b906107369030908590600401611b5b565b600060405180830381600087803b15801561075057600080fd5b505af1158015610764573d6000803e3d6000fd5b505050507f8f522cc919845bf58b76c472a942579ff9d850d67559315c54848c31e0fc251560656066606760686069606a546040516107a896959493929190611c23565b60405180910390a150565b6107bb6113eb565b42606a54116107c957600080fd5b80516107dc90606790602084019061156a565b50606b54604051636ac012d560e01b81526001600160a01b0390911690636ac012d5906107369030908590600401611b5b565b6000828152606e6020526040812054821080159061083a57506000838152606e602052604090205415155b9392505050565b60606067805461064890611e1e565b6108586113eb565b42606a541161086657600080fd5b805161087990606890602084019061156a565b50606b5460405163db7cd7fb60e01b81526001600160a01b039091169063db7cd7fb906107369030908590600401611b5b565b60005b81518110156108ec576108da8282815181106108cd576108cd611e92565b6020026020010151611007565b806108e481611e53565b9150506108af565b5050565b6000828152606d602052604081205483906109265760405162461bcd60e51b815260040161091d90611c98565b60405180910390fd5b6000848152606e60205260409020548490156109545760405162461bcd60e51b815260040161091d90611ce9565b42606a541161096257600080fd5b61096b85610c67565b1561097557600080fd5b846109808786611445565b149695505050505050565b6000828152606d60205260408120541580159061083a5750506000918252606d602052604090912054111590565b600054610100900460ff16158080156109d95750600054600160ff909116105b806109f35750303b1580156109f3575060005460ff166001145b610a565760405162461bcd60e51b815260206004820152602e60248201527f496e697469616c697a61626c653a20636f6e747261637420697320616c72656160448201526d191e481a5b9a5d1a585b1a5e995960921b606482015260840161091d565b6000805460ff191660011790558015610a79576000805461ff0019166101001790555b428411610ac85760405162461bcd60e51b815260206004820152601e60248201527f4572726f723a2065787069726564206461746520686173207061737365640000604482015260640161091d565b610ad06114b9565b610ad98361133b565b606c80546001810182556000919091527f2b4a51ab505fc96a0952efda2ba61bcd3078d4c02c39a186ec16f21883fbe0160180546001600160a01b0319166001600160a01b0385161790558851610b379060659060208c019061156a565b508751610b4b9060669060208b019061156a565b508651610b5f9060679060208a019061156a565b508551610b7390606890602089019061156a565b508451610b8790606990602088019061156a565b50606b80546001600160a01b0319166001600160a01b038416179055606a8490558015610bee576000805461ff0019169055604051600181527f7f26b83ff96e1f2b6a682f133852f6798a09c465da95921460cefb38474024989060200160405180910390a15b505050505050505050565b606780546105b890611e1e565b6060606c8054806020026020016040519081016040528092919081815260200182805480156106c157602002820191906000526020600020905b81546001600160a01b03168152600190910190602001808311610c40575050505050905090565b6000818152606d60205260408120548290610c945760405162461bcd60e51b815260040161091d90611c98565b6000838152606f6020526040902054421091505b50919050565b600080805b606c54811015610d1057836001600160a01b0316606c8281548110610cda57610cda611e92565b6000918252602090912001546001600160a01b03161415610cfe5760019150610d10565b80610d0881611e53565b915050610cb3565b5092915050565b606880546105b890611e1e565b610d2c6113eb565b610d3660006114e8565b565b610d406113eb565b42606a5411610d4e57600080fd5b606c5415610d8e57606c805480610d6757610d67611e7c565b600082815260209020810160001990810180546001600160a01b0319169055019055610d4e565b306001600160a01b03167f5769cad5059d53ecd481a846d8fb5a548688f2858fc2d53bdf1d79c7ab2be1bb606c604051610dc89190611bcc565b60405180910390a2565b60606066805461064890611e1e565b606680546105b890611e1e565b60005b8251811015610e4857610e36838281518110610e0f57610e0f611e92565b6020026020010151838381518110610e2957610e29611e92565b6020026020010151610eea565b80610e4081611e53565b915050610df1565b505050565b6000818152606d60205260408120548290610e7a5760405162461bcd60e51b815260040161091d90611c98565b50506000908152606f602052604090205490565b610e966113eb565b42606a5411610ea457600080fd5b8051610eb790606990602084019061156a565b50606b5460405163cf1bfe0560e01b81526001600160a01b039091169063cf1bfe05906107369030908590600401611b5b565b610ef333610cae565b1515600114610f145760405162461bcd60e51b815260040161091d90611d30565b6000828152606d6020526040902054829015610f985760405162461bcd60e51b815260206004820152603a60248201527f4572726f723a204f6e6c792068617368657320746861742068617665206e6f7460448201527f206265656e206973737565642063616e20626520697373756564000000000000606482015260840161091d565b42606a5411610fa657600080fd5b6000838152606d60209081526040808320439055606f8252808320859055607090915280822080546001600160a01b031916331790555184917f01a1249f2caa0445b8391e02413d26f0d409dabe5330cd1d04d3d0801fc42db391a2505050565b61101033610cae565b15156001146110315760405162461bcd60e51b815260040161091d90611d30565b6000818152606e602052604090205481901561105f5760405162461bcd60e51b815260040161091d90611ce9565b42606a541161106d57600080fd5b6000828152606e60205260408082204390555183917f7283b5ab9758f7fba773279e4fd50ea7b136bd1d8371dcae9c5ce529c55343d791a25050565b6000818152606d602052604081205482906110d65760405162461bcd60e51b815260040161091d90611c98565b50506000908152606d602052604090205490565b6110f26113eb565b42606a541161110057600080fd5b805161111390606590602084019061156a565b50606b54604051630c4876c760e21b81526001600160a01b0390911690633121db1c906107369030908590600401611b5b565b61114e6113eb565b42606a541161115c57600080fd5b606c541561119c57606c80548061117557611175611e7c565b600082815260209020810160001990810180546001600160a01b031916905501905561115c565b60005b8151811015611236576111ca8282815181106111bd576111bd611e92565b6020026020010151610cae565b156111d457611224565b606c8282815181106111e8576111e8611e92565b60209081029190910181015182546001810184556000938452919092200180546001600160a01b0319166001600160a01b039092169190911790555b8061122e81611e53565b91505061119f565b50306001600160a01b03167f5769cad5059d53ecd481a846d8fb5a548688f2858fc2d53bdf1d79c7ab2be1bb606c6040516112719190611bcc565b60405180910390a250565b6112846113eb565b606b54604051631ff0612160e21b8152306004820152602481018390526001600160a01b0390911690637fc1848490604401600060405180830381600087803b1580156112d057600080fd5b505af11580156112e4573d6000803e3d6000fd5b505050606a829055506040517f8f522cc919845bf58b76c472a942579ff9d850d67559315c54848c31e0fc2515906107a8906065906066906067906068906069908890611c23565b60606068805461064890611e1e565b6113436113eb565b6001600160a01b0381166113a85760405162461bcd60e51b815260206004820152602660248201527f4f776e61626c653a206e6577206f776e657220697320746865207a65726f206160448201526564647265737360d01b606482015260840161091d565b6113b1816114e8565b50565b606980546105b890611e1e565b606c81815481106113d157600080fd5b6000918252602090912001546001600160a01b0316905081565b6033546001600160a01b03163314610d365760405162461bcd60e51b815260206004820181905260248201527f4f776e61626c653a2063616c6c6572206973206e6f7420746865206f776e6572604482015260640161091d565b600081815b84518110156114b157600085828151811061146757611467611e92565b6020026020010151905080831161148d576000838152602082905260409020925061149e565b600081815260208490526040902092505b50806114a981611e53565b91505061144a565b509392505050565b600054610100900460ff166114e05760405162461bcd60e51b815260040161091d90611d80565b610d3661153a565b603380546001600160a01b038381166001600160a01b0319831681179093556040519116919082907f8be0079c531659141344cd1fd0a4f28419497f9722a3daafe3b4186f6b6457e090600090a35050565b600054610100900460ff166115615760405162461bcd60e51b815260040161091d90611d80565b610d36336114e8565b82805461157690611e1e565b90600052602060002090601f01602090048101928261159857600085556115de565b82601f106115b157805160ff19168380011785556115de565b828001600101855582156115de579182015b828111156115de5782518255916020019190600101906115c3565b506115ea9291506115ee565b5090565b5b808211156115ea57600081556001016115ef565b80356001600160a01b038116811461161a57600080fd5b919050565b600082601f83011261163057600080fd5b8135602061164561164083611dfb565b611dcb565b80838252828201915082860187848660051b890101111561166557600080fd5b60005b8581101561168457813584529284019290840190600101611668565b5090979650505050505050565b600082601f8301126116a257600080fd5b81356001600160401b038111156116bb576116bb611ea8565b6116ce601f8201601f1916602001611dcb565b8181528460208386010111156116e357600080fd5b816020850160208301376000918101602001919091529392505050565b60006020828403121561171257600080fd5b61083a82611603565b6000602080838503121561172e57600080fd5b82356001600160401b0381111561174457600080fd5b8301601f8101851361175557600080fd5b803561176361164082611dfb565b80828252848201915084840188868560051b870101111561178357600080fd5b600094505b838510156117ad5761179981611603565b835260019490940193918501918501611788565b50979650505050505050565b6000602082840312156117cb57600080fd5b81356001600160401b038111156117e157600080fd5b6117ed8482850161161f565b949350505050565b6000806040838503121561180857600080fd5b82356001600160401b038082111561181f57600080fd5b61182b8683870161161f565b935060209150818501358181111561184257600080fd5b85019050601f8101861361185557600080fd5b803561186361164082611dfb565b80828252848201915084840189868560051b870101111561188357600080fd5b600094505b838510156118a6578035835260019490940193918501918501611888565b5080955050505050509250929050565b6000806000606084860312156118cb57600080fd5b83356001600160401b038111156118e157600080fd5b6118ed8682870161161f565b9660208601359650604090950135949350505050565b60006020828403121561191557600080fd5b5035919050565b6000806040838503121561192f57600080fd5b50508035926020909101359150565b60006020828403121561195057600080fd5b81356001600160401b0381111561196657600080fd5b6117ed84828501611691565b600080600080600080600080610100898b03121561198f57600080fd5b88356001600160401b03808211156119a657600080fd5b6119b28c838d01611691565b995060208b01359150808211156119c857600080fd5b6119d48c838d01611691565b985060408b01359150808211156119ea57600080fd5b6119f68c838d01611691565b975060608b0135915080821115611a0c57600080fd5b611a188c838d01611691565b965060808b0135915080821115611a2e57600080fd5b50611a3b8b828c01611691565b94505060a08901359250611a5160c08a01611603565b9150611a5f60e08a01611603565b90509295985092959890939650565b6000815180845260005b81811015611a9457602081850181015186830182015201611a78565b81811115611aa6576000602083870101525b50601f01601f19169290920160200192915050565b8054600090600181811c9080831680611ad557607f831692505b6020808410821415611af757634e487b7160e01b600052602260045260246000fd5b83885260208801828015611b125760018114611b2357611b4e565b60ff19871682528282019750611b4e565b60008981526020902060005b87811015611b4857815484820152908601908401611b2f565b83019850505b5050505050505092915050565b6001600160a01b03831681526040602082018190526000906117ed90830184611a6e565b6020808252825182820181905260009190848201906040850190845b81811015611bc05783516001600160a01b031683529284019291840191600101611b9b565b50909695505050505050565b6020808252825482820181905260008481528281209092916040850190845b81811015611bc05783546001600160a01b031683526001938401939285019201611beb565b60208152600061083a6020830184611a6e565b60c081526000611c3660c0830189611abb565b8281036020840152611c488189611abb565b90508281036040840152611c5c8188611abb565b90508281036060840152611c708187611abb565b90508281036080840152611c848186611abb565b9150508260a0830152979650505050505050565b60208082526031908201527f4572726f723a204f6e6c792069737375656420646f63756d656e742068617368604082015270195cc818d85b881899481c995d9bdad959607a1b606082015260800190565b60208082526027908201527f4572726f723a204861736820686173206265656e207265766f6b65642070726560408201526676696f75736c7960c81b606082015260800190565b60208082526030908201527f4572726f723a204f6e6c79205075626c69736865722063616e207265766f6b6560408201526f2f697373756520646f63756d656e747360801b606082015260800190565b6020808252602b908201527f496e697469616c697a61626c653a20636f6e7472616374206973206e6f74206960408201526a6e697469616c697a696e6760a81b606082015260800190565b604051601f8201601f191681016001600160401b0381118282101715611df357611df3611ea8565b604052919050565b60006001600160401b03821115611e1457611e14611ea8565b5060051b60200190565b600181811c90821680611e3257607f821691505b60208210811415610ca857634e487b7160e01b600052602260045260246000fd5b6000600019821415611e7557634e487b7160e01b600052601160045260246000fd5b5060010190565b634e487b7160e01b600052603160045260246000fd5b634e487b7160e01b600052603260045260246000fd5b634e487b7160e01b600052604160045260246000fdfea26469706673582212207e24f154be1e4e517446d1be075c8b25d05f6543aba3f413588eb2b875f4276864736f6c63430008050033","opcodes":"PUSH1 0x80 PUSH1 0x40 MSTORE CALLVALUE DUP1 ISZERO PUSH2 0x10 JUMPI PUSH1 0x0 DUP1 REVERT JUMPDEST POP PUSH2 0x1EF4 DUP1 PUSH2 0x20 PUSH1 0x0 CODECOPY PUSH1 0x0 RETURN INVALID PUSH1 0x80 PUSH1 0x40 MSTORE CALLVALUE DUP1 ISZERO PUSH2 0x10 JUMPI PUSH1 0x0 DUP1 REVERT JUMPDEST POP PUSH1 0x4 CALLDATASIZE LT PUSH2 0x269 JUMPI PUSH1 0x0 CALLDATALOAD PUSH1 0xE0 SHR DUP1 PUSH4 0x707C21AC GT PUSH2 0x151 JUMPI DUP1 PUSH4 0xA92ABE37 GT PUSH2 0xC3 JUMPI DUP1 PUSH4 0xD5FB36C5 GT PUSH2 0x87 JUMPI DUP1 PUSH4 0xD5FB36C5 EQ PUSH2 0x542 JUMPI DUP1 PUSH4 0xDF8DEBED EQ PUSH2 0x562 JUMPI DUP1 PUSH4 0xEB5FACE7 EQ PUSH2 0x575 JUMPI DUP1 PUSH4 0xF2FDE38B EQ PUSH2 0x57D JUMPI DUP1 PUSH4 0xF437BC59 EQ PUSH2 0x590 JUMPI DUP1 PUSH4 0xFF060FBD EQ PUSH2 0x598 JUMPI PUSH1 0x0 DUP1 REVERT JUMPDEST DUP1 PUSH4 0xA92ABE37 EQ PUSH2 0x4E3 JUMPI DUP1 PUSH4 0xB75C7DC6 EQ PUSH2 0x4F6 JUMPI DUP1 PUSH4 0xBF40B904 EQ PUSH2 0x509 JUMPI DUP1 PUSH4 0xC47F0027 EQ PUSH2 0x51C JUMPI DUP1 PUSH4 0xD31A57D6 EQ PUSH2 0x52F JUMPI PUSH1 0x0 DUP1 REVERT JUMPDEST DUP1 PUSH4 0x8BC36C91 GT PUSH2 0x115 JUMPI DUP1 PUSH4 0x8BC36C91 EQ PUSH2 0x470 JUMPI DUP1 PUSH4 0x8DA5CB5B EQ PUSH2 0x490 JUMPI DUP1 PUSH4 0x8E32E421 EQ PUSH2 0x4A1 JUMPI DUP1 PUSH4 0x9DD516A5 EQ PUSH2 0x4AA JUMPI DUP1 PUSH4 0xA0F3A321 EQ PUSH2 0x4BD JUMPI DUP1 PUSH4 0xA5AB89FF EQ PUSH2 0x4D0 JUMPI PUSH1 0x0 DUP1 REVERT JUMPDEST DUP1 PUSH4 0x707C21AC EQ PUSH2 0x448 JUMPI DUP1 PUSH4 0x715018A6 EQ PUSH2 0x450 JUMPI DUP1 PUSH4 0x7D1FEB6F EQ PUSH2 0x458 JUMPI DUP1 PUSH4 0x7E79E8BA EQ PUSH2 0x460 JUMPI DUP1 PUSH4 0x820E93F5 EQ PUSH2 0x468 JUMPI PUSH1 0x0 DUP1 REVERT JUMPDEST DUP1 PUSH4 0x38F186C2 GT PUSH2 0x1EA JUMPI DUP1 PUSH4 0x5A9E03CA GT PUSH2 0x1AE JUMPI DUP1 PUSH4 0x5A9E03CA EQ PUSH2 0x3DF JUMPI DUP1 PUSH4 0x5E9057B5 EQ PUSH2 0x3F2 JUMPI DUP1 PUSH4 0x6AE08FFA EQ PUSH2 0x405 JUMPI DUP1 PUSH4 0x6C6071AA EQ PUSH2 0x40D JUMPI DUP1 PUSH4 0x6DB2FEB2 EQ PUSH2 0x422 JUMPI DUP1 PUSH4 0x6DF38D67 EQ PUSH2 0x435 JUMPI PUSH1 0x0 DUP1 REVERT JUMPDEST DUP1 PUSH4 0x38F186C2 EQ PUSH2 0x37C JUMPI DUP1 PUSH4 0x3D4A3EB0 EQ PUSH2 0x384 JUMPI DUP1 PUSH4 0x4294857F EQ PUSH2 0x397 JUMPI DUP1 PUSH4 0x4ADA8076 EQ PUSH2 0x3B9 JUMPI DUP1 PUSH4 0x5A9A49C7 EQ PUSH2 0x3CC JUMPI PUSH1 0x0 DUP1 REVERT JUMPDEST DUP1 PUSH4 0x20BC4425 GT PUSH2 0x231 JUMPI DUP1 PUSH4 0x20BC4425 EQ PUSH2 0x319 JUMPI DUP1 PUSH4 0x282B065A EQ PUSH2 0x321 JUMPI DUP1 PUSH4 0x2DC974D8 EQ PUSH2 0x336 JUMPI DUP1 PUSH4 0x33358D2D EQ PUSH2 0x349 JUMPI DUP1 PUSH4 0x339B6B39 EQ PUSH2 0x369 JUMPI PUSH1 0x0 DUP1 REVERT JUMPDEST DUP1 PUSH4 0x6FDDE03 EQ PUSH2 0x26E JUMPI DUP1 PUSH4 0x156E4B02 EQ PUSH2 0x28C JUMPI DUP1 PUSH4 0x163AA631 EQ PUSH2 0x2CD JUMPI DUP1 PUSH4 0x16F5F7D4 EQ PUSH2 0x2FF JUMPI DUP1 PUSH4 0x17D7DE7C EQ PUSH2 0x311 JUMPI JUMPDEST PUSH1 0x0 DUP1 REVERT JUMPDEST PUSH2 0x276 PUSH2 0x5AB JUMP JUMPDEST PUSH1 0x40 MLOAD PUSH2 0x283 SWAP2 SWAP1 PUSH2 0x1C10 JUMP JUMPDEST PUSH1 0x40 MLOAD DUP1 SWAP2 SUB SWAP1 RETURN JUMPDEST PUSH2 0x2B5 PUSH2 0x29A CALLDATASIZE PUSH1 0x4 PUSH2 0x1903 JUMP JUMPDEST PUSH1 0x70 PUSH1 0x20 MSTORE PUSH1 0x0 SWAP1 DUP2 MSTORE PUSH1 0x40 SWAP1 KECCAK256 SLOAD PUSH1 0x1 PUSH1 0x1 PUSH1 0xA0 SHL SUB AND DUP2 JUMP JUMPDEST PUSH1 0x40 MLOAD PUSH1 0x1 PUSH1 0x1 PUSH1 0xA0 SHL SUB SWAP1 SWAP2 AND DUP2 MSTORE PUSH1 0x20 ADD PUSH2 0x283 JUMP JUMPDEST PUSH2 0x2EF PUSH2 0x2DB CALLDATASIZE PUSH1 0x4 PUSH2 0x1903 JUMP JUMPDEST PUSH1 0x0 SWAP1 DUP2 MSTORE PUSH1 0x6D PUSH1 0x20 MSTORE PUSH1 0x40 SWAP1 KECCAK256 SLOAD ISZERO ISZERO SWAP1 JUMP JUMPDEST PUSH1 0x40 MLOAD SWAP1 ISZERO ISZERO DUP2 MSTORE PUSH1 0x20 ADD PUSH2 0x283 JUMP JUMPDEST PUSH1 0x6A SLOAD JUMPDEST PUSH1 0x40 MLOAD SWAP1 DUP2 MSTORE PUSH1 0x20 ADD PUSH2 0x283 JUMP JUMPDEST PUSH2 0x276 PUSH2 0x639 JUMP JUMPDEST PUSH2 0x276 PUSH2 0x6CB JUMP JUMPDEST PUSH2 0x334 PUSH2 0x32F CALLDATASIZE PUSH1 0x4 PUSH2 0x193E JUMP JUMPDEST PUSH2 0x6DA JUMP JUMPDEST STOP JUMPDEST PUSH2 0x334 PUSH2 0x344 CALLDATASIZE PUSH1 0x4 PUSH2 0x193E JUMP JUMPDEST PUSH2 0x7B3 JUMP JUMPDEST PUSH2 0x303 PUSH2 0x357 CALLDATASIZE PUSH1 0x4 PUSH2 0x1903 JUMP JUMPDEST PUSH1 0x6D PUSH1 0x20 MSTORE PUSH1 0x0 SWAP1 DUP2 MSTORE PUSH1 0x40 SWAP1 KECCAK256 SLOAD DUP2 JUMP JUMPDEST PUSH2 0x2EF PUSH2 0x377 CALLDATASIZE PUSH1 0x4 PUSH2 0x191C JUMP JUMPDEST PUSH2 0x80F JUMP JUMPDEST PUSH2 0x276 PUSH2 0x841 JUMP JUMPDEST PUSH2 0x334 PUSH2 0x392 CALLDATASIZE PUSH1 0x4 PUSH2 0x193E JUMP JUMPDEST PUSH2 0x850 JUMP JUMPDEST PUSH2 0x2EF PUSH2 0x3A5 CALLDATASIZE PUSH1 0x4 PUSH2 0x1903 JUMP JUMPDEST PUSH1 0x0 SWAP1 DUP2 MSTORE PUSH1 0x6E PUSH1 0x20 MSTORE PUSH1 0x40 SWAP1 KECCAK256 SLOAD ISZERO ISZERO SWAP1 JUMP JUMPDEST PUSH2 0x334 PUSH2 0x3C7 CALLDATASIZE PUSH1 0x4 PUSH2 0x17B9 JUMP JUMPDEST PUSH2 0x8AC JUMP JUMPDEST PUSH2 0x2EF PUSH2 0x3DA CALLDATASIZE PUSH1 0x4 PUSH2 0x18B6 JUMP JUMPDEST PUSH2 0x8F0 JUMP JUMPDEST PUSH2 0x2EF PUSH2 0x3ED CALLDATASIZE PUSH1 0x4 PUSH2 0x191C JUMP JUMPDEST PUSH2 0x98B JUMP JUMPDEST PUSH2 0x334 PUSH2 0x400 CALLDATASIZE PUSH1 0x4 PUSH2 0x1972 JUMP JUMPDEST PUSH2 0x9B9 JUMP JUMPDEST PUSH2 0x276 PUSH2 0xBF9 JUMP JUMPDEST PUSH2 0x415 PUSH2 0xC06 JUMP JUMPDEST PUSH1 0x40 MLOAD PUSH2 0x283 SWAP2 SWAP1 PUSH2 0x1B7F JUMP JUMPDEST PUSH2 0x2EF PUSH2 0x430 CALLDATASIZE PUSH1 0x4 PUSH2 0x1903 JUMP JUMPDEST PUSH2 0xC67 JUMP JUMPDEST PUSH2 0x2EF PUSH2 0x443 CALLDATASIZE PUSH1 0x4 PUSH2 0x1700 JUMP JUMPDEST PUSH2 0xCAE JUMP JUMPDEST PUSH2 0x276 PUSH2 0xD17 JUMP JUMPDEST PUSH2 0x334 PUSH2 0xD24 JUMP JUMPDEST PUSH2 0x334 PUSH2 0xD38 JUMP JUMPDEST PUSH2 0x276 PUSH2 0xDD2 JUMP JUMPDEST PUSH2 0x276 PUSH2 0xDE1 JUMP JUMPDEST PUSH2 0x303 PUSH2 0x47E CALLDATASIZE PUSH1 0x4 PUSH2 0x1903 JUMP JUMPDEST PUSH1 0x6E PUSH1 0x20 MSTORE PUSH1 0x0 SWAP1 DUP2 MSTORE PUSH1 0x40 SWAP1 KECCAK256 SLOAD DUP2 JUMP JUMPDEST PUSH1 0x33 SLOAD PUSH1 0x1 PUSH1 0x1 PUSH1 0xA0 SHL SUB AND PUSH2 0x2B5 JUMP JUMPDEST PUSH2 0x303 PUSH1 0x6A SLOAD DUP2 JUMP JUMPDEST PUSH2 0x334 PUSH2 0x4B8 CALLDATASIZE PUSH1 0x4 PUSH2 0x17F5 JUMP JUMPDEST PUSH2 0xDEE JUMP JUMPDEST PUSH2 0x303 PUSH2 0x4CB CALLDATASIZE PUSH1 0x4 PUSH2 0x1903 JUMP JUMPDEST PUSH2 0xE4D JUMP JUMPDEST PUSH2 0x334 PUSH2 0x4DE CALLDATASIZE PUSH1 0x4 PUSH2 0x193E JUMP JUMPDEST PUSH2 0xE8E JUMP JUMPDEST PUSH2 0x334 PUSH2 0x4F1 CALLDATASIZE PUSH1 0x4 PUSH2 0x191C JUMP JUMPDEST PUSH2 0xEEA JUMP JUMPDEST PUSH2 0x334 PUSH2 0x504 CALLDATASIZE PUSH1 0x4 PUSH2 0x1903 JUMP JUMPDEST PUSH2 0x1007 JUMP JUMPDEST PUSH2 0x303 PUSH2 0x517 CALLDATASIZE PUSH1 0x4 PUSH2 0x1903 JUMP JUMPDEST PUSH2 0x10A9 JUMP JUMPDEST PUSH2 0x334 PUSH2 0x52A CALLDATASIZE PUSH1 0x4 PUSH2 0x193E JUMP JUMPDEST PUSH2 0x10EA JUMP JUMPDEST PUSH2 0x334 PUSH2 0x53D CALLDATASIZE PUSH1 0x4 PUSH2 0x171B JUMP JUMPDEST PUSH2 0x1146 JUMP JUMPDEST PUSH2 0x303 PUSH2 0x550 CALLDATASIZE PUSH1 0x4 PUSH2 0x1903 JUMP JUMPDEST PUSH1 0x6F PUSH1 0x20 MSTORE PUSH1 0x0 SWAP1 DUP2 MSTORE PUSH1 0x40 SWAP1 KECCAK256 SLOAD DUP2 JUMP JUMPDEST PUSH2 0x334 PUSH2 0x570 CALLDATASIZE PUSH1 0x4 PUSH2 0x1903 JUMP JUMPDEST PUSH2 0x127C JUMP JUMPDEST PUSH2 0x276 PUSH2 0x132C JUMP JUMPDEST PUSH2 0x334 PUSH2 0x58B CALLDATASIZE PUSH1 0x4 PUSH2 0x1700 JUMP JUMPDEST PUSH2 0x133B JUMP JUMPDEST PUSH2 0x276 PUSH2 0x13B4 JUMP JUMPDEST PUSH2 0x2B5 PUSH2 0x5A6 CALLDATASIZE PUSH1 0x4 PUSH2 0x1903 JUMP JUMPDEST PUSH2 0x13C1 JUMP JUMPDEST PUSH1 0x65 DUP1 SLOAD PUSH2 0x5B8 SWAP1 PUSH2 0x1E1E JUMP JUMPDEST DUP1 PUSH1 0x1F ADD PUSH1 0x20 DUP1 SWAP2 DIV MUL PUSH1 0x20 ADD PUSH1 0x40 MLOAD SWAP1 DUP2 ADD PUSH1 0x40 MSTORE DUP1 SWAP3 SWAP2 SWAP1 DUP2 DUP2 MSTORE PUSH1 0x20 ADD DUP3 DUP1 SLOAD PUSH2 0x5E4 SWAP1 PUSH2 0x1E1E JUMP JUMPDEST DUP1 ISZERO PUSH2 0x631 JUMPI DUP1 PUSH1 0x1F LT PUSH2 0x606 JUMPI PUSH2 0x100 DUP1 DUP4 SLOAD DIV MUL DUP4 MSTORE SWAP2 PUSH1 0x20 ADD SWAP2 PUSH2 0x631 JUMP JUMPDEST DUP3 ADD SWAP2 SWAP1 PUSH1 0x0 MSTORE PUSH1 0x20 PUSH1 0x0 KECCAK256 SWAP1 JUMPDEST DUP2 SLOAD DUP2 MSTORE SWAP1 PUSH1 0x1 ADD SWAP1 PUSH1 0x20 ADD DUP1 DUP4 GT PUSH2 0x614 JUMPI DUP3 SWAP1 SUB PUSH1 0x1F AND DUP3 ADD SWAP2 JUMPDEST POP POP POP POP POP DUP2 JUMP JUMPDEST PUSH1 0x60 PUSH1 0x65 DUP1 SLOAD PUSH2 0x648 SWAP1 PUSH2 0x1E1E JUMP JUMPDEST DUP1 PUSH1 0x1F ADD PUSH1 0x20 DUP1 SWAP2 DIV MUL PUSH1 0x20 ADD PUSH1 0x40 MLOAD SWAP1 DUP2 ADD PUSH1 0x40 MSTORE DUP1 SWAP3 SWAP2 SWAP1 DUP2 DUP2 MSTORE PUSH1 0x20 ADD DUP3 DUP1 SLOAD PUSH2 0x674 SWAP1 PUSH2 0x1E1E JUMP JUMPDEST DUP1 ISZERO PUSH2 0x6C1 JUMPI DUP1 PUSH1 0x1F LT PUSH2 0x696 JUMPI PUSH2 0x100 DUP1 DUP4 SLOAD DIV MUL DUP4 MSTORE SWAP2 PUSH1 0x20 ADD SWAP2 PUSH2 0x6C1 JUMP JUMPDEST DUP3 ADD SWAP2 SWAP1 PUSH1 0x0 MSTORE PUSH1 0x20 PUSH1 0x0 KECCAK256 SWAP1 JUMPDEST DUP2 SLOAD DUP2 MSTORE SWAP1 PUSH1 0x1 ADD SWAP1 PUSH1 0x20 ADD DUP1 DUP4 GT PUSH2 0x6A4 JUMPI DUP3 SWAP1 SUB PUSH1 0x1F AND DUP3 ADD SWAP2 JUMPDEST POP POP POP POP POP SWAP1 POP SWAP1 JUMP JUMPDEST PUSH1 0x60 PUSH1 0x69 DUP1 SLOAD PUSH2 0x648 SWAP1 PUSH2 0x1E1E JUMP JUMPDEST PUSH2 0x6E2 PUSH2 0x13EB JUMP JUMPDEST TIMESTAMP PUSH1 0x6A SLOAD GT PUSH2 0x6F0 JUMPI PUSH1 0x0 DUP1 REVERT JUMPDEST DUP1 MLOAD PUSH2 0x703 SWAP1 PUSH1 0x66 SWAP1 PUSH1 0x20 DUP5 ADD SWAP1 PUSH2 0x156A JUMP JUMPDEST POP PUSH1 0x6B SLOAD PUSH1 0x40 MLOAD PUSH4 0x68C35C4B PUSH1 0xE0 SHL DUP2 MSTORE PUSH1 0x1 PUSH1 0x1 PUSH1 0xA0 SHL SUB SWAP1 SWAP2 AND SWAP1 PUSH4 0x68C35C4B SWAP1 PUSH2 0x736 SWAP1 ADDRESS SWAP1 DUP6 SWAP1 PUSH1 0x4 ADD PUSH2 0x1B5B JUMP JUMPDEST PUSH1 0x0 PUSH1 0x40 MLOAD DUP1 DUP4 SUB DUP2 PUSH1 0x0 DUP8 DUP1 EXTCODESIZE ISZERO DUP1 ISZERO PUSH2 0x750 JUMPI PUSH1 0x0 DUP1 REVERT JUMPDEST POP GAS CALL ISZERO DUP1 ISZERO PUSH2 0x764 JUMPI RETURNDATASIZE PUSH1 0x0 DUP1 RETURNDATACOPY RETURNDATASIZE PUSH1 0x0 REVERT JUMPDEST POP POP POP POP PUSH32 0x8F522CC919845BF58B76C472A942579FF9D850D67559315C54848C31E0FC2515 PUSH1 0x65 PUSH1 0x66 PUSH1 0x67 PUSH1 0x68 PUSH1 0x69 PUSH1 0x6A SLOAD PUSH1 0x40 MLOAD PUSH2 0x7A8 SWAP7 SWAP6 SWAP5 SWAP4 SWAP3 SWAP2 SWAP1 PUSH2 0x1C23 JUMP JUMPDEST PUSH1 0x40 MLOAD DUP1 SWAP2 SUB SWAP1 LOG1 POP JUMP JUMPDEST PUSH2 0x7BB PUSH2 0x13EB JUMP JUMPDEST TIMESTAMP PUSH1 0x6A SLOAD GT PUSH2 0x7C9 JUMPI PUSH1 0x0 DUP1 REVERT JUMPDEST DUP1 MLOAD PUSH2 0x7DC SWAP1 PUSH1 0x67 SWAP1 PUSH1 0x20 DUP5 ADD SWAP1 PUSH2 0x156A JUMP JUMPDEST POP PUSH1 0x6B SLOAD PUSH1 0x40 MLOAD PUSH4 0x6AC012D5 PUSH1 0xE0 SHL DUP2 MSTORE PUSH1 0x1 PUSH1 0x1 PUSH1 0xA0 SHL SUB SWAP1 SWAP2 AND SWAP1 PUSH4 0x6AC012D5 SWAP1 PUSH2 0x736 SWAP1 ADDRESS SWAP1 DUP6 SWAP1 PUSH1 0x4 ADD PUSH2 0x1B5B JUMP JUMPDEST PUSH1 0x0 DUP3 DUP2 MSTORE PUSH1 0x6E PUSH1 0x20 MSTORE PUSH1 0x40 DUP2 KECCAK256 SLOAD DUP3 LT DUP1 ISZERO SWAP1 PUSH2 0x83A JUMPI POP PUSH1 0x0 DUP4 DUP2 MSTORE PUSH1 0x6E PUSH1 0x20 MSTORE PUSH1 0x40 SWAP1 KECCAK256 SLOAD ISZERO ISZERO JUMPDEST SWAP4 SWAP3 POP POP POP JUMP JUMPDEST PUSH1 0x60 PUSH1 0x67 DUP1 SLOAD PUSH2 0x648 SWAP1 PUSH2 0x1E1E JUMP JUMPDEST PUSH2 0x858 PUSH2 0x13EB JUMP JUMPDEST TIMESTAMP PUSH1 0x6A SLOAD GT PUSH2 0x866 JUMPI PUSH1 0x0 DUP1 REVERT JUMPDEST DUP1 MLOAD PUSH2 0x879 SWAP1 PUSH1 0x68 SWAP1 PUSH1 0x20 DUP5 ADD SWAP1 PUSH2 0x156A JUMP JUMPDEST POP PUSH1 0x6B SLOAD PUSH1 0x40 MLOAD PUSH4 0xDB7CD7FB PUSH1 0xE0 SHL DUP2 MSTORE PUSH1 0x1 PUSH1 0x1 PUSH1 0xA0 SHL SUB SWAP1 SWAP2 AND SWAP1 PUSH4 0xDB7CD7FB SWAP1 PUSH2 0x736 SWAP1 ADDRESS SWAP1 DUP6 SWAP1 PUSH1 0x4 ADD PUSH2 0x1B5B JUMP JUMPDEST PUSH1 0x0 JUMPDEST DUP2 MLOAD DUP2 LT ISZERO PUSH2 0x8EC JUMPI PUSH2 0x8DA DUP3 DUP3 DUP2 MLOAD DUP2 LT PUSH2 0x8CD JUMPI PUSH2 0x8CD PUSH2 0x1E92 JUMP JUMPDEST PUSH1 0x20 MUL PUSH1 0x20 ADD ADD MLOAD PUSH2 0x1007 JUMP JUMPDEST DUP1 PUSH2 0x8E4 DUP2 PUSH2 0x1E53 JUMP JUMPDEST SWAP2 POP POP PUSH2 0x8AF JUMP JUMPDEST POP POP JUMP JUMPDEST PUSH1 0x0 DUP3 DUP2 MSTORE PUSH1 0x6D PUSH1 0x20 MSTORE PUSH1 0x40 DUP2 KECCAK256 SLOAD DUP4 SWAP1 PUSH2 0x926 JUMPI PUSH1 0x40 MLOAD PUSH3 0x461BCD PUSH1 0xE5 SHL DUP2 MSTORE PUSH1 0x4 ADD PUSH2 0x91D SWAP1 PUSH2 0x1C98 JUMP JUMPDEST PUSH1 0x40 MLOAD DUP1 SWAP2 SUB SWAP1 REVERT JUMPDEST PUSH1 0x0 DUP5 DUP2 MSTORE PUSH1 0x6E PUSH1 0x20 MSTORE PUSH1 0x40 SWAP1 KECCAK256 SLOAD DUP5 SWAP1 ISZERO PUSH2 0x954 JUMPI PUSH1 0x40 MLOAD PUSH3 0x461BCD PUSH1 0xE5 SHL DUP2 MSTORE PUSH1 0x4 ADD PUSH2 0x91D SWAP1 PUSH2 0x1CE9 JUMP JUMPDEST TIMESTAMP PUSH1 0x6A SLOAD GT PUSH2 0x962 JUMPI PUSH1 0x0 DUP1 REVERT JUMPDEST PUSH2 0x96B DUP6 PUSH2 0xC67 JUMP JUMPDEST ISZERO PUSH2 0x975 JUMPI PUSH1 0x0 DUP1 REVERT JUMPDEST DUP5 PUSH2 0x980 DUP8 DUP7 PUSH2 0x1445 JUMP JUMPDEST EQ SWAP7 SWAP6 POP POP POP POP POP POP JUMP JUMPDEST PUSH1 0x0 DUP3 DUP2 MSTORE PUSH1 0x6D PUSH1 0x20 MSTORE PUSH1 0x40 DUP2 KECCAK256 SLOAD ISZERO DUP1 ISZERO SWAP1 PUSH2 0x83A JUMPI POP POP PUSH1 0x0 SWAP2 DUP3 MSTORE PUSH1 0x6D PUSH1 0x20 MSTORE PUSH1 0x40 SWAP1 SWAP2 KECCAK256 SLOAD GT ISZERO SWAP1 JUMP JUMPDEST PUSH1 0x0 SLOAD PUSH2 0x100 SWAP1 DIV PUSH1 0xFF AND ISZERO DUP1 DUP1 ISZERO PUSH2 0x9D9 JUMPI POP PUSH1 0x0 SLOAD PUSH1 0x1 PUSH1 0xFF SWAP1 SWAP2 AND LT JUMPDEST DUP1 PUSH2 0x9F3 JUMPI POP ADDRESS EXTCODESIZE ISZERO DUP1 ISZERO PUSH2 0x9F3 JUMPI POP PUSH1 0x0 SLOAD PUSH1 0xFF AND PUSH1 0x1 EQ JUMPDEST PUSH2 0xA56 JUMPI PUSH1 0x40 MLOAD PUSH3 0x461BCD PUSH1 0xE5 SHL DUP2 MSTORE PUSH1 0x20 PUSH1 0x4 DUP3 ADD MSTORE PUSH1 0x2E PUSH1 0x24 DUP3 ADD MSTORE PUSH32 0x496E697469616C697A61626C653A20636F6E747261637420697320616C726561 PUSH1 0x44 DUP3 ADD MSTORE PUSH14 0x191E481A5B9A5D1A585B1A5E9959 PUSH1 0x92 SHL PUSH1 0x64 DUP3 ADD MSTORE PUSH1 0x84 ADD PUSH2 0x91D JUMP JUMPDEST PUSH1 0x0 DUP1 SLOAD PUSH1 0xFF NOT AND PUSH1 0x1 OR SWAP1 SSTORE DUP1 ISZERO PUSH2 0xA79 JUMPI PUSH1 0x0 DUP1 SLOAD PUSH2 0xFF00 NOT AND PUSH2 0x100 OR SWAP1 SSTORE JUMPDEST TIMESTAMP DUP5 GT PUSH2 0xAC8 JUMPI PUSH1 0x40 MLOAD PUSH3 0x461BCD PUSH1 0xE5 SHL DUP2 MSTORE PUSH1 0x20 PUSH1 0x4 DUP3 ADD MSTORE PUSH1 0x1E PUSH1 0x24 DUP3 ADD MSTORE PUSH32 0x4572726F723A2065787069726564206461746520686173207061737365640000 PUSH1 0x44 DUP3 ADD MSTORE PUSH1 0x64 ADD PUSH2 0x91D JUMP JUMPDEST PUSH2 0xAD0 PUSH2 0x14B9 JUMP JUMPDEST PUSH2 0xAD9 DUP4 PUSH2 0x133B JUMP JUMPDEST PUSH1 0x6C DUP1 SLOAD PUSH1 0x1 DUP2 ADD DUP3 SSTORE PUSH1 0x0 SWAP2 SWAP1 SWAP2 MSTORE PUSH32 0x2B4A51AB505FC96A0952EFDA2BA61BCD3078D4C02C39A186EC16F21883FBE016 ADD DUP1 SLOAD PUSH1 0x1 PUSH1 0x1 PUSH1 0xA0 SHL SUB NOT AND PUSH1 0x1 PUSH1 0x1 PUSH1 0xA0 SHL SUB DUP6 AND OR SWAP1 SSTORE DUP9 MLOAD PUSH2 0xB37 SWAP1 PUSH1 0x65 SWAP1 PUSH1 0x20 DUP13 ADD SWAP1 PUSH2 0x156A JUMP JUMPDEST POP DUP8 MLOAD PUSH2 0xB4B SWAP1 PUSH1 0x66 SWAP1 PUSH1 0x20 DUP12 ADD SWAP1 PUSH2 0x156A JUMP JUMPDEST POP DUP7 MLOAD PUSH2 0xB5F SWAP1 PUSH1 0x67 SWAP1 PUSH1 0x20 DUP11 ADD SWAP1 PUSH2 0x156A JUMP JUMPDEST POP DUP6 MLOAD PUSH2 0xB73 SWAP1 PUSH1 0x68 SWAP1 PUSH1 0x20 DUP10 ADD SWAP1 PUSH2 0x156A JUMP JUMPDEST POP DUP5 MLOAD PUSH2 0xB87 SWAP1 PUSH1 0x69 SWAP1 PUSH1 0x20 DUP9 ADD SWAP1 PUSH2 0x156A JUMP JUMPDEST POP PUSH1 0x6B DUP1 SLOAD PUSH1 0x1 PUSH1 0x1 PUSH1 0xA0 SHL SUB NOT AND PUSH1 0x1 PUSH1 0x1 PUSH1 0xA0 SHL SUB DUP5 AND OR SWAP1 SSTORE PUSH1 0x6A DUP5 SWAP1 SSTORE DUP1 ISZERO PUSH2 0xBEE JUMPI PUSH1 0x0 DUP1 SLOAD PUSH2 0xFF00 NOT AND SWAP1 SSTORE PUSH1 0x40 MLOAD PUSH1 0x1 DUP2 MSTORE PUSH32 0x7F26B83FF96E1F2B6A682F133852F6798A09C465DA95921460CEFB3847402498 SWAP1 PUSH1 0x20 ADD PUSH1 0x40 MLOAD DUP1 SWAP2 SUB SWAP1 LOG1 JUMPDEST POP POP POP POP POP POP POP POP POP JUMP JUMPDEST PUSH1 0x67 DUP1 SLOAD PUSH2 0x5B8 SWAP1 PUSH2 0x1E1E JUMP JUMPDEST PUSH1 0x60 PUSH1 0x6C DUP1 SLOAD DUP1 PUSH1 0x20 MUL PUSH1 0x20 ADD PUSH1 0x40 MLOAD SWAP1 DUP2 ADD PUSH1 0x40 MSTORE DUP1 SWAP3 SWAP2 SWAP1 DUP2 DUP2 MSTORE PUSH1 0x20 ADD DUP3 DUP1 SLOAD DUP1 ISZERO PUSH2 0x6C1 JUMPI PUSH1 0x20 MUL DUP3 ADD SWAP2 SWAP1 PUSH1 0x0 MSTORE PUSH1 0x20 PUSH1 0x0 KECCAK256 SWAP1 JUMPDEST DUP2 SLOAD PUSH1 0x1 PUSH1 0x1 PUSH1 0xA0 SHL SUB AND DUP2 MSTORE PUSH1 0x1 SWAP1 SWAP2 ADD SWAP1 PUSH1 0x20 ADD DUP1 DUP4 GT PUSH2 0xC40 JUMPI POP POP POP POP POP SWAP1 POP SWAP1 JUMP JUMPDEST PUSH1 0x0 DUP2 DUP2 MSTORE PUSH1 0x6D PUSH1 0x20 MSTORE PUSH1 0x40 DUP2 KECCAK256 SLOAD DUP3 SWAP1 PUSH2 0xC94 JUMPI PUSH1 0x40 MLOAD PUSH3 0x461BCD PUSH1 0xE5 SHL DUP2 MSTORE PUSH1 0x4 ADD PUSH2 0x91D SWAP1 PUSH2 0x1C98 JUMP JUMPDEST PUSH1 0x0 DUP4 DUP2 MSTORE PUSH1 0x6F PUSH1 0x20 MSTORE PUSH1 0x40 SWAP1 KECCAK256 SLOAD TIMESTAMP LT SWAP2 POP JUMPDEST POP SWAP2 SWAP1 POP JUMP JUMPDEST PUSH1 0x0 DUP1 DUP1 JUMPDEST PUSH1 0x6C SLOAD DUP2 LT ISZERO PUSH2 0xD10 JUMPI DUP4 PUSH1 0x1 PUSH1 0x1 PUSH1 0xA0 SHL SUB AND PUSH1 0x6C DUP3 DUP2 SLOAD DUP2 LT PUSH2 0xCDA JUMPI PUSH2 0xCDA PUSH2 0x1E92 JUMP JUMPDEST PUSH1 0x0 SWAP2 DUP3 MSTORE PUSH1 0x20 SWAP1 SWAP2 KECCAK256 ADD SLOAD PUSH1 0x1 PUSH1 0x1 PUSH1 0xA0 SHL SUB AND EQ ISZERO PUSH2 0xCFE JUMPI PUSH1 0x1 SWAP2 POP PUSH2 0xD10 JUMP JUMPDEST DUP1 PUSH2 0xD08 DUP2 PUSH2 0x1E53 JUMP JUMPDEST SWAP2 POP POP PUSH2 0xCB3 JUMP JUMPDEST POP SWAP3 SWAP2 POP POP JUMP JUMPDEST PUSH1 0x68 DUP1 SLOAD PUSH2 0x5B8 SWAP1 PUSH2 0x1E1E JUMP JUMPDEST PUSH2 0xD2C PUSH2 0x13EB JUMP JUMPDEST PUSH2 0xD36 PUSH1 0x0 PUSH2 0x14E8 JUMP JUMPDEST JUMP JUMPDEST PUSH2 0xD40 PUSH2 0x13EB JUMP JUMPDEST TIMESTAMP PUSH1 0x6A SLOAD GT PUSH2 0xD4E JUMPI PUSH1 0x0 DUP1 REVERT JUMPDEST PUSH1 0x6C SLOAD ISZERO PUSH2 0xD8E JUMPI PUSH1 0x6C DUP1 SLOAD DUP1 PUSH2 0xD67 JUMPI PUSH2 0xD67 PUSH2 0x1E7C JUMP JUMPDEST PUSH1 0x0 DUP3 DUP2 MSTORE PUSH1 0x20 SWAP1 KECCAK256 DUP2 ADD PUSH1 0x0 NOT SWAP1 DUP2 ADD DUP1 SLOAD PUSH1 0x1 PUSH1 0x1 PUSH1 0xA0 SHL SUB NOT AND SWAP1 SSTORE ADD SWAP1 SSTORE PUSH2 0xD4E JUMP JUMPDEST ADDRESS PUSH1 0x1 PUSH1 0x1 PUSH1 0xA0 SHL SUB AND PUSH32 0x5769CAD5059D53ECD481A846D8FB5A548688F2858FC2D53BDF1D79C7AB2BE1BB PUSH1 0x6C PUSH1 0x40 MLOAD PUSH2 0xDC8 SWAP2 SWAP1 PUSH2 0x1BCC JUMP JUMPDEST PUSH1 0x40 MLOAD DUP1 SWAP2 SUB SWAP1 LOG2 JUMP JUMPDEST PUSH1 0x60 PUSH1 0x66 DUP1 SLOAD PUSH2 0x648 SWAP1 PUSH2 0x1E1E JUMP JUMPDEST PUSH1 0x66 DUP1 SLOAD PUSH2 0x5B8 SWAP1 PUSH2 0x1E1E JUMP JUMPDEST PUSH1 0x0 JUMPDEST DUP3 MLOAD DUP2 LT ISZERO PUSH2 0xE48 JUMPI PUSH2 0xE36 DUP4 DUP3 DUP2 MLOAD DUP2 LT PUSH2 0xE0F JUMPI PUSH2 0xE0F PUSH2 0x1E92 JUMP JUMPDEST PUSH1 0x20 MUL PUSH1 0x20 ADD ADD MLOAD DUP4 DUP4 DUP2 MLOAD DUP2 LT PUSH2 0xE29 JUMPI PUSH2 0xE29 PUSH2 0x1E92 JUMP JUMPDEST PUSH1 0x20 MUL PUSH1 0x20 ADD ADD MLOAD PUSH2 0xEEA JUMP JUMPDEST DUP1 PUSH2 0xE40 DUP2 PUSH2 0x1E53 JUMP JUMPDEST SWAP2 POP POP PUSH2 0xDF1 JUMP JUMPDEST POP POP POP JUMP JUMPDEST PUSH1 0x0 DUP2 DUP2 MSTORE PUSH1 0x6D PUSH1 0x20 MSTORE PUSH1 0x40 DUP2 KECCAK256 SLOAD DUP3 SWAP1 PUSH2 0xE7A JUMPI PUSH1 0x40 MLOAD PUSH3 0x461BCD PUSH1 0xE5 SHL DUP2 MSTORE PUSH1 0x4 ADD PUSH2 0x91D SWAP1 PUSH2 0x1C98 JUMP JUMPDEST POP POP PUSH1 0x0 SWAP1 DUP2 MSTORE PUSH1 0x6F PUSH1 0x20 MSTORE PUSH1 0x40 SWAP1 KECCAK256 SLOAD SWAP1 JUMP JUMPDEST PUSH2 0xE96 PUSH2 0x13EB JUMP JUMPDEST TIMESTAMP PUSH1 0x6A SLOAD GT PUSH2 0xEA4 JUMPI PUSH1 0x0 DUP1 REVERT JUMPDEST DUP1 MLOAD PUSH2 0xEB7 SWAP1 PUSH1 0x69 SWAP1 PUSH1 0x20 DUP5 ADD SWAP1 PUSH2 0x156A JUMP JUMPDEST POP PUSH1 0x6B SLOAD PUSH1 0x40 MLOAD PUSH4 0xCF1BFE05 PUSH1 0xE0 SHL DUP2 MSTORE PUSH1 0x1 PUSH1 0x1 PUSH1 0xA0 SHL SUB SWAP1 SWAP2 AND SWAP1 PUSH4 0xCF1BFE05 SWAP1 PUSH2 0x736 SWAP1 ADDRESS SWAP1 DUP6 SWAP1 PUSH1 0x4 ADD PUSH2 0x1B5B JUMP JUMPDEST PUSH2 0xEF3 CALLER PUSH2 0xCAE JUMP JUMPDEST ISZERO ISZERO PUSH1 0x1 EQ PUSH2 0xF14 JUMPI PUSH1 0x40 MLOAD PUSH3 0x461BCD PUSH1 0xE5 SHL DUP2 MSTORE PUSH1 0x4 ADD PUSH2 0x91D SWAP1 PUSH2 0x1D30 JUMP JUMPDEST PUSH1 0x0 DUP3 DUP2 MSTORE PUSH1 0x6D PUSH1 0x20 MSTORE PUSH1 0x40 SWAP1 KECCAK256 SLOAD DUP3 SWAP1 ISZERO PUSH2 0xF98 JUMPI PUSH1 0x40 MLOAD PUSH3 0x461BCD PUSH1 0xE5 SHL DUP2 MSTORE PUSH1 0x20 PUSH1 0x4 DUP3 ADD MSTORE PUSH1 0x3A PUSH1 0x24 DUP3 ADD MSTORE PUSH32 0x4572726F723A204F6E6C792068617368657320746861742068617665206E6F74 PUSH1 0x44 DUP3 ADD MSTORE PUSH32 0x206265656E206973737565642063616E20626520697373756564000000000000 PUSH1 0x64 DUP3 ADD MSTORE PUSH1 0x84 ADD PUSH2 0x91D JUMP JUMPDEST TIMESTAMP PUSH1 0x6A SLOAD GT PUSH2 0xFA6 JUMPI PUSH1 0x0 DUP1 REVERT JUMPDEST PUSH1 0x0 DUP4 DUP2 MSTORE PUSH1 0x6D PUSH1 0x20 SWAP1 DUP2 MSTORE PUSH1 0x40 DUP1 DUP4 KECCAK256 NUMBER SWAP1 SSTORE PUSH1 0x6F DUP3 MSTORE DUP1 DUP4 KECCAK256 DUP6 SWAP1 SSTORE PUSH1 0x70 SWAP1 SWAP2 MSTORE DUP1 DUP3 KECCAK256 DUP1 SLOAD PUSH1 0x1 PUSH1 0x1 PUSH1 0xA0 SHL SUB NOT AND CALLER OR SWAP1 SSTORE MLOAD DUP5 SWAP2 PUSH32 0x1A1249F2CAA0445B8391E02413D26F0D409DABE5330CD1D04D3D0801FC42DB3 SWAP2 LOG2 POP POP POP JUMP JUMPDEST PUSH2 0x1010 CALLER PUSH2 0xCAE JUMP JUMPDEST ISZERO ISZERO PUSH1 0x1 EQ PUSH2 0x1031 JUMPI PUSH1 0x40 MLOAD PUSH3 0x461BCD PUSH1 0xE5 SHL DUP2 MSTORE PUSH1 0x4 ADD PUSH2 0x91D SWAP1 PUSH2 0x1D30 JUMP JUMPDEST PUSH1 0x0 DUP2 DUP2 MSTORE PUSH1 0x6E PUSH1 0x20 MSTORE PUSH1 0x40 SWAP1 KECCAK256 SLOAD DUP2 SWAP1 ISZERO PUSH2 0x105F JUMPI PUSH1 0x40 MLOAD PUSH3 0x461BCD PUSH1 0xE5 SHL DUP2 MSTORE PUSH1 0x4 ADD PUSH2 0x91D SWAP1 PUSH2 0x1CE9 JUMP JUMPDEST TIMESTAMP PUSH1 0x6A SLOAD GT PUSH2 0x106D JUMPI PUSH1 0x0 DUP1 REVERT JUMPDEST PUSH1 0x0 DUP3 DUP2 MSTORE PUSH1 0x6E PUSH1 0x20 MSTORE PUSH1 0x40 DUP1 DUP3 KECCAK256 NUMBER SWAP1 SSTORE MLOAD DUP4 SWAP2 PUSH32 0x7283B5AB9758F7FBA773279E4FD50EA7B136BD1D8371DCAE9C5CE529C55343D7 SWAP2 LOG2 POP POP JUMP JUMPDEST PUSH1 0x0 DUP2 DUP2 MSTORE PUSH1 0x6D PUSH1 0x20 MSTORE PUSH1 0x40 DUP2 KECCAK256 SLOAD DUP3 SWAP1 PUSH2 0x10D6 JUMPI PUSH1 0x40 MLOAD PUSH3 0x461BCD PUSH1 0xE5 SHL DUP2 MSTORE PUSH1 0x4 ADD PUSH2 0x91D SWAP1 PUSH2 0x1C98 JUMP JUMPDEST POP POP PUSH1 0x0 SWAP1 DUP2 MSTORE PUSH1 0x6D PUSH1 0x20 MSTORE PUSH1 0x40 SWAP1 KECCAK256 SLOAD SWAP1 JUMP JUMPDEST PUSH2 0x10F2 PUSH2 0x13EB JUMP JUMPDEST TIMESTAMP PUSH1 0x6A SLOAD GT PUSH2 0x1100 JUMPI PUSH1 0x0 DUP1 REVERT JUMPDEST DUP1 MLOAD PUSH2 0x1113 SWAP1 PUSH1 0x65 SWAP1 PUSH1 0x20 DUP5 ADD SWAP1 PUSH2 0x156A JUMP JUMPDEST POP PUSH1 0x6B SLOAD PUSH1 0x40 MLOAD PUSH4 0xC4876C7 PUSH1 0xE2 SHL DUP2 MSTORE PUSH1 0x1 PUSH1 0x1 PUSH1 0xA0 SHL SUB SWAP1 SWAP2 AND SWAP1 PUSH4 0x3121DB1C SWAP1 PUSH2 0x736 SWAP1 ADDRESS SWAP1 DUP6 SWAP1 PUSH1 0x4 ADD PUSH2 0x1B5B JUMP JUMPDEST PUSH2 0x114E PUSH2 0x13EB JUMP JUMPDEST TIMESTAMP PUSH1 0x6A SLOAD GT PUSH2 0x115C JUMPI PUSH1 0x0 DUP1 REVERT JUMPDEST PUSH1 0x6C SLOAD ISZERO PUSH2 0x119C JUMPI PUSH1 0x6C DUP1 SLOAD DUP1 PUSH2 0x1175 JUMPI PUSH2 0x1175 PUSH2 0x1E7C JUMP JUMPDEST PUSH1 0x0 DUP3 DUP2 MSTORE PUSH1 0x20 SWAP1 KECCAK256 DUP2 ADD PUSH1 0x0 NOT SWAP1 DUP2 ADD DUP1 SLOAD PUSH1 0x1 PUSH1 0x1 PUSH1 0xA0 SHL SUB NOT AND SWAP1 SSTORE ADD SWAP1 SSTORE PUSH2 0x115C JUMP JUMPDEST PUSH1 0x0 JUMPDEST DUP2 MLOAD DUP2 LT ISZERO PUSH2 0x1236 JUMPI PUSH2 0x11CA DUP3 DUP3 DUP2 MLOAD DUP2 LT PUSH2 0x11BD JUMPI PUSH2 0x11BD PUSH2 0x1E92 JUMP JUMPDEST PUSH1 0x20 MUL PUSH1 0x20 ADD ADD MLOAD PUSH2 0xCAE JUMP JUMPDEST ISZERO PUSH2 0x11D4 JUMPI PUSH2 0x1224 JUMP JUMPDEST PUSH1 0x6C DUP3 DUP3 DUP2 MLOAD DUP2 LT PUSH2 0x11E8 JUMPI PUSH2 0x11E8 PUSH2 0x1E92 JUMP JUMPDEST PUSH1 0x20 SWAP1 DUP2 MUL SWAP2 SWAP1 SWAP2 ADD DUP2 ADD MLOAD DUP3 SLOAD PUSH1 0x1 DUP2 ADD DUP5 SSTORE PUSH1 0x0 SWAP4 DUP5 MSTORE SWAP2 SWAP1 SWAP3 KECCAK256 ADD DUP1 SLOAD PUSH1 0x1 PUSH1 0x1 PUSH1 0xA0 SHL SUB NOT AND PUSH1 0x1 PUSH1 0x1 PUSH1 0xA0 SHL SUB SWAP1 SWAP3 AND SWAP2 SWAP1 SWAP2 OR SWAP1 SSTORE JUMPDEST DUP1 PUSH2 0x122E DUP2 PUSH2 0x1E53 JUMP JUMPDEST SWAP2 POP POP PUSH2 0x119F JUMP JUMPDEST POP ADDRESS PUSH1 0x1 PUSH1 0x1 PUSH1 0xA0 SHL SUB AND PUSH32 0x5769CAD5059D53ECD481A846D8FB5A548688F2858FC2D53BDF1D79C7AB2BE1BB PUSH1 0x6C PUSH1 0x40 MLOAD PUSH2 0x1271 SWAP2 SWAP1 PUSH2 0x1BCC JUMP JUMPDEST PUSH1 0x40 MLOAD DUP1 SWAP2 SUB SWAP1 LOG2 POP JUMP JUMPDEST PUSH2 0x1284 PUSH2 0x13EB JUMP JUMPDEST PUSH1 0x6B SLOAD PUSH1 0x40 MLOAD PUSH4 0x1FF06121 PUSH1 0xE2 SHL DUP2 MSTORE ADDRESS PUSH1 0x4 DUP3 ADD MSTORE PUSH1 0x24 DUP2 ADD DUP4 SWAP1 MSTORE PUSH1 0x1 PUSH1 0x1 PUSH1 0xA0 SHL SUB SWAP1 SWAP2 AND SWAP1 PUSH4 0x7FC18484 SWAP1 PUSH1 0x44 ADD PUSH1 0x0 PUSH1 0x40 MLOAD DUP1 DUP4 SUB DUP2 PUSH1 0x0 DUP8 DUP1 EXTCODESIZE ISZERO DUP1 ISZERO PUSH2 0x12D0 JUMPI PUSH1 0x0 DUP1 REVERT JUMPDEST POP GAS CALL ISZERO DUP1 ISZERO PUSH2 0x12E4 JUMPI RETURNDATASIZE PUSH1 0x0 DUP1 RETURNDATACOPY RETURNDATASIZE PUSH1 0x0 REVERT JUMPDEST POP POP POP PUSH1 0x6A DUP3 SWAP1 SSTORE POP PUSH1 0x40 MLOAD PUSH32 0x8F522CC919845BF58B76C472A942579FF9D850D67559315C54848C31E0FC2515 SWAP1 PUSH2 0x7A8 SWAP1 PUSH1 0x65 SWAP1 PUSH1 0x66 SWAP1 PUSH1 0x67 SWAP1 PUSH1 0x68 SWAP1 PUSH1 0x69 SWAP1 DUP9 SWAP1 PUSH2 0x1C23 JUMP JUMPDEST PUSH1 0x60 PUSH1 0x68 DUP1 SLOAD PUSH2 0x648 SWAP1 PUSH2 0x1E1E JUMP JUMPDEST PUSH2 0x1343 PUSH2 0x13EB JUMP JUMPDEST PUSH1 0x1 PUSH1 0x1 PUSH1 0xA0 SHL SUB DUP2 AND PUSH2 0x13A8 JUMPI PUSH1 0x40 MLOAD PUSH3 0x461BCD PUSH1 0xE5 SHL DUP2 MSTORE PUSH1 0x20 PUSH1 0x4 DUP3 ADD MSTORE PUSH1 0x26 PUSH1 0x24 DUP3 ADD MSTORE PUSH32 0x4F776E61626C653A206E6577206F776E657220697320746865207A65726F2061 PUSH1 0x44 DUP3 ADD MSTORE PUSH6 0x646472657373 PUSH1 0xD0 SHL PUSH1 0x64 DUP3 ADD MSTORE PUSH1 0x84 ADD PUSH2 0x91D JUMP JUMPDEST PUSH2 0x13B1 DUP2 PUSH2 0x14E8 JUMP JUMPDEST POP JUMP JUMPDEST PUSH1 0x69 DUP1 SLOAD PUSH2 0x5B8 SWAP1 PUSH2 0x1E1E JUMP JUMPDEST PUSH1 0x6C DUP2 DUP2 SLOAD DUP2 LT PUSH2 0x13D1 JUMPI PUSH1 0x0 DUP1 REVERT JUMPDEST PUSH1 0x0 SWAP2 DUP3 MSTORE PUSH1 0x20 SWAP1 SWAP2 KECCAK256 ADD SLOAD PUSH1 0x1 PUSH1 0x1 PUSH1 0xA0 SHL SUB AND SWAP1 POP DUP2 JUMP JUMPDEST PUSH1 0x33 SLOAD PUSH1 0x1 PUSH1 0x1 PUSH1 0xA0 SHL SUB AND CALLER EQ PUSH2 0xD36 JUMPI PUSH1 0x40 MLOAD PUSH3 0x461BCD PUSH1 0xE5 SHL DUP2 MSTORE PUSH1 0x20 PUSH1 0x4 DUP3 ADD DUP2 SWAP1 MSTORE PUSH1 0x24 DUP3 ADD MSTORE PUSH32 0x4F776E61626C653A2063616C6C6572206973206E6F7420746865206F776E6572 PUSH1 0x44 DUP3 ADD MSTORE PUSH1 0x64 ADD PUSH2 0x91D JUMP JUMPDEST PUSH1 0x0 DUP2 DUP2 JUMPDEST DUP5 MLOAD DUP2 LT ISZERO PUSH2 0x14B1 JUMPI PUSH1 0x0 DUP6 DUP3 DUP2 MLOAD DUP2 LT PUSH2 0x1467 JUMPI PUSH2 0x1467 PUSH2 0x1E92 JUMP JUMPDEST PUSH1 0x20 MUL PUSH1 0x20 ADD ADD MLOAD SWAP1 POP DUP1 DUP4 GT PUSH2 0x148D JUMPI PUSH1 0x0 DUP4 DUP2 MSTORE PUSH1 0x20 DUP3 SWAP1 MSTORE PUSH1 0x40 SWAP1 KECCAK256 SWAP3 POP PUSH2 0x149E JUMP JUMPDEST PUSH1 0x0 DUP2 DUP2 MSTORE PUSH1 0x20 DUP5 SWAP1 MSTORE PUSH1 0x40 SWAP1 KECCAK256 SWAP3 POP JUMPDEST POP DUP1 PUSH2 0x14A9 DUP2 PUSH2 0x1E53 JUMP JUMPDEST SWAP2 POP POP PUSH2 0x144A JUMP JUMPDEST POP SWAP4 SWAP3 POP POP POP JUMP JUMPDEST PUSH1 0x0 SLOAD PUSH2 0x100 SWAP1 DIV PUSH1 0xFF AND PUSH2 0x14E0 JUMPI PUSH1 0x40 MLOAD PUSH3 0x461BCD PUSH1 0xE5 SHL DUP2 MSTORE PUSH1 0x4 ADD PUSH2 0x91D SWAP1 PUSH2 0x1D80 JUMP JUMPDEST PUSH2 0xD36 PUSH2 0x153A JUMP JUMPDEST PUSH1 0x33 DUP1 SLOAD PUSH1 0x1 PUSH1 0x1 PUSH1 0xA0 SHL SUB DUP4 DUP2 AND PUSH1 0x1 PUSH1 0x1 PUSH1 0xA0 SHL SUB NOT DUP4 AND DUP2 OR SWAP1 SWAP4 SSTORE PUSH1 0x40 MLOAD SWAP2 AND SWAP2 SWAP1 DUP3 SWAP1 PUSH32 0x8BE0079C531659141344CD1FD0A4F28419497F9722A3DAAFE3B4186F6B6457E0 SWAP1 PUSH1 0x0 SWAP1 LOG3 POP POP JUMP JUMPDEST PUSH1 0x0 SLOAD PUSH2 0x100 SWAP1 DIV PUSH1 0xFF AND PUSH2 0x1561 JUMPI PUSH1 0x40 MLOAD PUSH3 0x461BCD PUSH1 0xE5 SHL DUP2 MSTORE PUSH1 0x4 ADD PUSH2 0x91D SWAP1 PUSH2 0x1D80 JUMP JUMPDEST PUSH2 0xD36 CALLER PUSH2 0x14E8 JUMP JUMPDEST DUP3 DUP1 SLOAD PUSH2 0x1576 SWAP1 PUSH2 0x1E1E JUMP JUMPDEST SWAP1 PUSH1 0x0 MSTORE PUSH1 0x20 PUSH1 0x0 KECCAK256 SWAP1 PUSH1 0x1F ADD PUSH1 0x20 SWAP1 DIV DUP2 ADD SWAP3 DUP3 PUSH2 0x1598 JUMPI PUSH1 0x0 DUP6 SSTORE PUSH2 0x15DE JUMP JUMPDEST DUP3 PUSH1 0x1F LT PUSH2 0x15B1 JUMPI DUP1 MLOAD PUSH1 0xFF NOT AND DUP4 DUP1 ADD OR DUP6 SSTORE PUSH2 0x15DE JUMP JUMPDEST DUP3 DUP1 ADD PUSH1 0x1 ADD DUP6 SSTORE DUP3 ISZERO PUSH2 0x15DE JUMPI SWAP2 DUP3 ADD JUMPDEST DUP3 DUP2 GT ISZERO PUSH2 0x15DE JUMPI DUP3 MLOAD DUP3 SSTORE SWAP2 PUSH1 0x20 ADD SWAP2 SWAP1 PUSH1 0x1 ADD SWAP1 PUSH2 0x15C3 JUMP JUMPDEST POP PUSH2 0x15EA SWAP3 SWAP2 POP PUSH2 0x15EE JUMP JUMPDEST POP SWAP1 JUMP JUMPDEST JUMPDEST DUP1 DUP3 GT ISZERO PUSH2 0x15EA JUMPI PUSH1 0x0 DUP2 SSTORE PUSH1 0x1 ADD PUSH2 0x15EF JUMP JUMPDEST DUP1 CALLDATALOAD PUSH1 0x1 PUSH1 0x1 PUSH1 0xA0 SHL SUB DUP2 AND DUP2 EQ PUSH2 0x161A JUMPI PUSH1 0x0 DUP1 REVERT JUMPDEST SWAP2 SWAP1 POP JUMP JUMPDEST PUSH1 0x0 DUP3 PUSH1 0x1F DUP4 ADD SLT PUSH2 0x1630 JUMPI PUSH1 0x0 DUP1 REVERT JUMPDEST DUP2 CALLDATALOAD PUSH1 0x20 PUSH2 0x1645 PUSH2 0x1640 DUP4 PUSH2 0x1DFB JUMP JUMPDEST PUSH2 0x1DCB JUMP JUMPDEST DUP1 DUP4 DUP3 MSTORE DUP3 DUP3 ADD SWAP2 POP DUP3 DUP7 ADD DUP8 DUP5 DUP7 PUSH1 0x5 SHL DUP10 ADD ADD GT ISZERO PUSH2 0x1665 JUMPI PUSH1 0x0 DUP1 REVERT JUMPDEST PUSH1 0x0 JUMPDEST DUP6 DUP2 LT ISZERO PUSH2 0x1684 JUMPI DUP2 CALLDATALOAD DUP5 MSTORE SWAP3 DUP5 ADD SWAP3 SWAP1 DUP5 ADD SWAP1 PUSH1 0x1 ADD PUSH2 0x1668 JUMP JUMPDEST POP SWAP1 SWAP8 SWAP7 POP POP POP POP POP POP POP JUMP JUMPDEST PUSH1 0x0 DUP3 PUSH1 0x1F DUP4 ADD SLT PUSH2 0x16A2 JUMPI PUSH1 0x0 DUP1 REVERT JUMPDEST DUP2 CALLDATALOAD PUSH1 0x1 PUSH1 0x1 PUSH1 0x40 SHL SUB DUP2 GT ISZERO PUSH2 0x16BB JUMPI PUSH2 0x16BB PUSH2 0x1EA8 JUMP JUMPDEST PUSH2 0x16CE PUSH1 0x1F DUP3 ADD PUSH1 0x1F NOT AND PUSH1 0x20 ADD PUSH2 0x1DCB JUMP JUMPDEST DUP2 DUP2 MSTORE DUP5 PUSH1 0x20 DUP4 DUP7 ADD ADD GT ISZERO PUSH2 0x16E3 JUMPI PUSH1 0x0 DUP1 REVERT JUMPDEST DUP2 PUSH1 0x20 DUP6 ADD PUSH1 0x20 DUP4 ADD CALLDATACOPY PUSH1 0x0 SWAP2 DUP2 ADD PUSH1 0x20 ADD SWAP2 SWAP1 SWAP2 MSTORE SWAP4 SWAP3 POP POP POP JUMP JUMPDEST PUSH1 0x0 PUSH1 0x20 DUP3 DUP5 SUB SLT ISZERO PUSH2 0x1712 JUMPI PUSH1 0x0 DUP1 REVERT JUMPDEST PUSH2 0x83A DUP3 PUSH2 0x1603 JUMP JUMPDEST PUSH1 0x0 PUSH1 0x20 DUP1 DUP4 DUP6 SUB SLT ISZERO PUSH2 0x172E JUMPI PUSH1 0x0 DUP1 REVERT JUMPDEST DUP3 CALLDATALOAD PUSH1 0x1 PUSH1 0x1 PUSH1 0x40 SHL SUB DUP2 GT ISZERO PUSH2 0x1744 JUMPI PUSH1 0x0 DUP1 REVERT JUMPDEST DUP4 ADD PUSH1 0x1F DUP2 ADD DUP6 SGT PUSH2 0x1755 JUMPI PUSH1 0x0 DUP1 REVERT JUMPDEST DUP1 CALLDATALOAD PUSH2 0x1763 PUSH2 0x1640 DUP3 PUSH2 0x1DFB JUMP JUMPDEST DUP1 DUP3 DUP3 MSTORE DUP5 DUP3 ADD SWAP2 POP DUP5 DUP5 ADD DUP9 DUP7 DUP6 PUSH1 0x5 SHL DUP8 ADD ADD GT ISZERO PUSH2 0x1783 JUMPI PUSH1 0x0 DUP1 REVERT JUMPDEST PUSH1 0x0 SWAP5 POP JUMPDEST DUP4 DUP6 LT ISZERO PUSH2 0x17AD JUMPI PUSH2 0x1799 DUP2 PUSH2 0x1603 JUMP JUMPDEST DUP4 MSTORE PUSH1 0x1 SWAP5 SWAP1 SWAP5 ADD SWAP4 SWAP2 DUP6 ADD SWAP2 DUP6 ADD PUSH2 0x1788 JUMP JUMPDEST POP SWAP8 SWAP7 POP POP POP POP POP POP POP JUMP JUMPDEST PUSH1 0x0 PUSH1 0x20 DUP3 DUP5 SUB SLT ISZERO PUSH2 0x17CB JUMPI PUSH1 0x0 DUP1 REVERT JUMPDEST DUP2 CALLDATALOAD PUSH1 0x1 PUSH1 0x1 PUSH1 0x40 SHL SUB DUP2 GT ISZERO PUSH2 0x17E1 JUMPI PUSH1 0x0 DUP1 REVERT JUMPDEST PUSH2 0x17ED DUP5 DUP3 DUP6 ADD PUSH2 0x161F JUMP JUMPDEST SWAP5 SWAP4 POP POP POP POP JUMP JUMPDEST PUSH1 0x0 DUP1 PUSH1 0x40 DUP4 DUP6 SUB SLT ISZERO PUSH2 0x1808 JUMPI PUSH1 0x0 DUP1 REVERT JUMPDEST DUP3 CALLDATALOAD PUSH1 0x1 PUSH1 0x1 PUSH1 0x40 SHL SUB DUP1 DUP3 GT ISZERO PUSH2 0x181F JUMPI PUSH1 0x0 DUP1 REVERT JUMPDEST PUSH2 0x182B DUP7 DUP4 DUP8 ADD PUSH2 0x161F JUMP JUMPDEST SWAP4 POP PUSH1 0x20 SWAP2 POP DUP2 DUP6 ADD CALLDATALOAD DUP2 DUP2 GT ISZERO PUSH2 0x1842 JUMPI PUSH1 0x0 DUP1 REVERT JUMPDEST DUP6 ADD SWAP1 POP PUSH1 0x1F DUP2 ADD DUP7 SGT PUSH2 0x1855 JUMPI PUSH1 0x0 DUP1 REVERT JUMPDEST DUP1 CALLDATALOAD PUSH2 0x1863 PUSH2 0x1640 DUP3 PUSH2 0x1DFB JUMP JUMPDEST DUP1 DUP3 DUP3 MSTORE DUP5 DUP3 ADD SWAP2 POP DUP5 DUP5 ADD DUP10 DUP7 DUP6 PUSH1 0x5 SHL DUP8 ADD ADD GT ISZERO PUSH2 0x1883 JUMPI PUSH1 0x0 DUP1 REVERT JUMPDEST PUSH1 0x0 SWAP5 POP JUMPDEST DUP4 DUP6 LT ISZERO PUSH2 0x18A6 JUMPI DUP1 CALLDATALOAD DUP4 MSTORE PUSH1 0x1 SWAP5 SWAP1 SWAP5 ADD SWAP4 SWAP2 DUP6 ADD SWAP2 DUP6 ADD PUSH2 0x1888 JUMP JUMPDEST POP DUP1 SWAP6 POP POP POP POP POP POP SWAP3 POP SWAP3 SWAP1 POP JUMP JUMPDEST PUSH1 0x0 DUP1 PUSH1 0x0 PUSH1 0x60 DUP5 DUP7 SUB SLT ISZERO PUSH2 0x18CB JUMPI PUSH1 0x0 DUP1 REVERT JUMPDEST DUP4 CALLDATALOAD PUSH1 0x1 PUSH1 0x1 PUSH1 0x40 SHL SUB DUP2 GT ISZERO PUSH2 0x18E1 JUMPI PUSH1 0x0 DUP1 REVERT JUMPDEST PUSH2 0x18ED DUP7 DUP3 DUP8 ADD PUSH2 0x161F JUMP JUMPDEST SWAP7 PUSH1 0x20 DUP7 ADD CALLDATALOAD SWAP7 POP PUSH1 0x40 SWAP1 SWAP6 ADD CALLDATALOAD SWAP5 SWAP4 POP POP POP POP JUMP JUMPDEST PUSH1 0x0 PUSH1 0x20 DUP3 DUP5 SUB SLT ISZERO PUSH2 0x1915 JUMPI PUSH1 0x0 DUP1 REVERT JUMPDEST POP CALLDATALOAD SWAP2 SWAP1 POP JUMP JUMPDEST PUSH1 0x0 DUP1 PUSH1 0x40 DUP4 DUP6 SUB SLT ISZERO PUSH2 0x192F JUMPI PUSH1 0x0 DUP1 REVERT JUMPDEST POP POP DUP1 CALLDATALOAD SWAP3 PUSH1 0x20 SWAP1 SWAP2 ADD CALLDATALOAD SWAP2 POP JUMP JUMPDEST PUSH1 0x0 PUSH1 0x20 DUP3 DUP5 SUB SLT ISZERO PUSH2 0x1950 JUMPI PUSH1 0x0 DUP1 REVERT JUMPDEST DUP2 CALLDATALOAD PUSH1 0x1 PUSH1 0x1 PUSH1 0x40 SHL SUB DUP2 GT ISZERO PUSH2 0x1966 JUMPI PUSH1 0x0 DUP1 REVERT JUMPDEST PUSH2 0x17ED DUP5 DUP3 DUP6 ADD PUSH2 0x1691 JUMP JUMPDEST PUSH1 0x0 DUP1 PUSH1 0x0 DUP1 PUSH1 0x0 DUP1 PUSH1 0x0 DUP1 PUSH2 0x100 DUP10 DUP12 SUB SLT ISZERO PUSH2 0x198F JUMPI PUSH1 0x0 DUP1 REVERT JUMPDEST DUP9 CALLDATALOAD PUSH1 0x1 PUSH1 0x1 PUSH1 0x40 SHL SUB DUP1 DUP3 GT ISZERO PUSH2 0x19A6 JUMPI PUSH1 0x0 DUP1 REVERT JUMPDEST PUSH2 0x19B2 DUP13 DUP4 DUP14 ADD PUSH2 0x1691 JUMP JUMPDEST SWAP10 POP PUSH1 0x20 DUP12 ADD CALLDATALOAD SWAP2 POP DUP1 DUP3 GT ISZERO PUSH2 0x19C8 JUMPI PUSH1 0x0 DUP1 REVERT JUMPDEST PUSH2 0x19D4 DUP13 DUP4 DUP14 ADD PUSH2 0x1691 JUMP JUMPDEST SWAP9 POP PUSH1 0x40 DUP12 ADD CALLDATALOAD SWAP2 POP DUP1 DUP3 GT ISZERO PUSH2 0x19EA JUMPI PUSH1 0x0 DUP1 REVERT JUMPDEST PUSH2 0x19F6 DUP13 DUP4 DUP14 ADD PUSH2 0x1691 JUMP JUMPDEST SWAP8 POP PUSH1 0x60 DUP12 ADD CALLDATALOAD SWAP2 POP DUP1 DUP3 GT ISZERO PUSH2 0x1A0C JUMPI PUSH1 0x0 DUP1 REVERT JUMPDEST PUSH2 0x1A18 DUP13 DUP4 DUP14 ADD PUSH2 0x1691 JUMP JUMPDEST SWAP7 POP PUSH1 0x80 DUP12 ADD CALLDATALOAD SWAP2 POP DUP1 DUP3 GT ISZERO PUSH2 0x1A2E JUMPI PUSH1 0x0 DUP1 REVERT JUMPDEST POP PUSH2 0x1A3B DUP12 DUP3 DUP13 ADD PUSH2 0x1691 JUMP JUMPDEST SWAP5 POP POP PUSH1 0xA0 DUP10 ADD CALLDATALOAD SWAP3 POP PUSH2 0x1A51 PUSH1 0xC0 DUP11 ADD PUSH2 0x1603 JUMP JUMPDEST SWAP2 POP PUSH2 0x1A5F PUSH1 0xE0 DUP11 ADD PUSH2 0x1603 JUMP JUMPDEST SWAP1 POP SWAP3 SWAP6 SWAP9 POP SWAP3 SWAP6 SWAP9 SWAP1 SWAP4 SWAP7 POP JUMP JUMPDEST PUSH1 0x0 DUP2 MLOAD DUP1 DUP5 MSTORE PUSH1 0x0 JUMPDEST DUP2 DUP2 LT ISZERO PUSH2 0x1A94 JUMPI PUSH1 0x20 DUP2 DUP6 ADD DUP2 ADD MLOAD DUP7 DUP4 ADD DUP3 ADD MSTORE ADD PUSH2 0x1A78 JUMP JUMPDEST DUP2 DUP2 GT ISZERO PUSH2 0x1AA6 JUMPI PUSH1 0x0 PUSH1 0x20 DUP4 DUP8 ADD ADD MSTORE JUMPDEST POP PUSH1 0x1F ADD PUSH1 0x1F NOT AND SWAP3 SWAP1 SWAP3 ADD PUSH1 0x20 ADD SWAP3 SWAP2 POP POP JUMP JUMPDEST DUP1 SLOAD PUSH1 0x0 SWAP1 PUSH1 0x1 DUP2 DUP2 SHR SWAP1 DUP1 DUP4 AND DUP1 PUSH2 0x1AD5 JUMPI PUSH1 0x7F DUP4 AND SWAP3 POP JUMPDEST PUSH1 0x20 DUP1 DUP5 LT DUP3 EQ ISZERO PUSH2 0x1AF7 JUMPI PUSH4 0x4E487B71 PUSH1 0xE0 SHL PUSH1 0x0 MSTORE PUSH1 0x22 PUSH1 0x4 MSTORE PUSH1 0x24 PUSH1 0x0 REVERT JUMPDEST DUP4 DUP9 MSTORE PUSH1 0x20 DUP9 ADD DUP3 DUP1 ISZERO PUSH2 0x1B12 JUMPI PUSH1 0x1 DUP2 EQ PUSH2 0x1B23 JUMPI PUSH2 0x1B4E JUMP JUMPDEST PUSH1 0xFF NOT DUP8 AND DUP3 MSTORE DUP3 DUP3 ADD SWAP8 POP PUSH2 0x1B4E JUMP JUMPDEST PUSH1 0x0 DUP10 DUP2 MSTORE PUSH1 0x20 SWAP1 KECCAK256 PUSH1 0x0 JUMPDEST DUP8 DUP2 LT ISZERO PUSH2 0x1B48 JUMPI DUP2 SLOAD DUP5 DUP3 ADD MSTORE SWAP1 DUP7 ADD SWAP1 DUP5 ADD PUSH2 0x1B2F JUMP JUMPDEST DUP4 ADD SWAP9 POP POP JUMPDEST POP POP POP POP POP POP POP SWAP3 SWAP2 POP POP JUMP JUMPDEST PUSH1 0x1 PUSH1 0x1 PUSH1 0xA0 SHL SUB DUP4 AND DUP2 MSTORE PUSH1 0x40 PUSH1 0x20 DUP3 ADD DUP2 SWAP1 MSTORE PUSH1 0x0 SWAP1 PUSH2 0x17ED SWAP1 DUP4 ADD DUP5 PUSH2 0x1A6E JUMP JUMPDEST PUSH1 0x20 DUP1 DUP3 MSTORE DUP3 MLOAD DUP3 DUP3 ADD DUP2 SWAP1 MSTORE PUSH1 0x0 SWAP2 SWAP1 DUP5 DUP3 ADD SWAP1 PUSH1 0x40 DUP6 ADD SWAP1 DUP5 JUMPDEST DUP2 DUP2 LT ISZERO PUSH2 0x1BC0 JUMPI DUP4 MLOAD PUSH1 0x1 PUSH1 0x1 PUSH1 0xA0 SHL SUB AND DUP4 MSTORE SWAP3 DUP5 ADD SWAP3 SWAP2 DUP5 ADD SWAP2 PUSH1 0x1 ADD PUSH2 0x1B9B JUMP JUMPDEST POP SWAP1 SWAP7 SWAP6 POP POP POP POP POP POP JUMP JUMPDEST PUSH1 0x20 DUP1 DUP3 MSTORE DUP3 SLOAD DUP3 DUP3 ADD DUP2 SWAP1 MSTORE PUSH1 0x0 DUP5 DUP2 MSTORE DUP3 DUP2 KECCAK256 SWAP1 SWAP3 SWAP2 PUSH1 0x40 DUP6 ADD SWAP1 DUP5 JUMPDEST DUP2 DUP2 LT ISZERO PUSH2 0x1BC0 JUMPI DUP4 SLOAD PUSH1 0x1 PUSH1 0x1 PUSH1 0xA0 SHL SUB AND DUP4 MSTORE PUSH1 0x1 SWAP4 DUP5 ADD SWAP4 SWAP3 DUP6 ADD SWAP3 ADD PUSH2 0x1BEB JUMP JUMPDEST PUSH1 0x20 DUP2 MSTORE PUSH1 0x0 PUSH2 0x83A PUSH1 0x20 DUP4 ADD DUP5 PUSH2 0x1A6E JUMP JUMPDEST PUSH1 0xC0 DUP2 MSTORE PUSH1 0x0 PUSH2 0x1C36 PUSH1 0xC0 DUP4 ADD DUP10 PUSH2 0x1ABB JUMP JUMPDEST DUP3 DUP2 SUB PUSH1 0x20 DUP5 ADD MSTORE PUSH2 0x1C48 DUP2 DUP10 PUSH2 0x1ABB JUMP JUMPDEST SWAP1 POP DUP3 DUP2 SUB PUSH1 0x40 DUP5 ADD MSTORE PUSH2 0x1C5C DUP2 DUP9 PUSH2 0x1ABB JUMP JUMPDEST SWAP1 POP DUP3 DUP2 SUB PUSH1 0x60 DUP5 ADD MSTORE PUSH2 0x1C70 DUP2 DUP8 PUSH2 0x1ABB JUMP JUMPDEST SWAP1 POP DUP3 DUP2 SUB PUSH1 0x80 DUP5 ADD MSTORE PUSH2 0x1C84 DUP2 DUP7 PUSH2 0x1ABB JUMP JUMPDEST SWAP2 POP POP DUP3 PUSH1 0xA0 DUP4 ADD MSTORE SWAP8 SWAP7 POP POP POP POP POP POP POP JUMP JUMPDEST PUSH1 0x20 DUP1 DUP3 MSTORE PUSH1 0x31 SWAP1 DUP3 ADD MSTORE PUSH32 0x4572726F723A204F6E6C792069737375656420646F63756D656E742068617368 PUSH1 0x40 DUP3 ADD MSTORE PUSH17 0x195CC818D85B881899481C995D9BDAD959 PUSH1 0x7A SHL PUSH1 0x60 DUP3 ADD MSTORE PUSH1 0x80 ADD SWAP1 JUMP JUMPDEST PUSH1 0x20 DUP1 DUP3 MSTORE PUSH1 0x27 SWAP1 DUP3 ADD MSTORE PUSH32 0x4572726F723A204861736820686173206265656E207265766F6B656420707265 PUSH1 0x40 DUP3 ADD MSTORE PUSH7 0x76696F75736C79 PUSH1 0xC8 SHL PUSH1 0x60 DUP3 ADD MSTORE PUSH1 0x80 ADD SWAP1 JUMP JUMPDEST PUSH1 0x20 DUP1 DUP3 MSTORE PUSH1 0x30 SWAP1 DUP3 ADD MSTORE PUSH32 0x4572726F723A204F6E6C79205075626C69736865722063616E207265766F6B65 PUSH1 0x40 DUP3 ADD MSTORE PUSH16 0x2F697373756520646F63756D656E7473 PUSH1 0x80 SHL PUSH1 0x60 DUP3 ADD MSTORE PUSH1 0x80 ADD SWAP1 JUMP JUMPDEST PUSH1 0x20 DUP1 DUP3 MSTORE PUSH1 0x2B SWAP1 DUP3 ADD MSTORE PUSH32 0x496E697469616C697A61626C653A20636F6E7472616374206973206E6F742069 PUSH1 0x40 DUP3 ADD MSTORE PUSH11 0x6E697469616C697A696E67 PUSH1 0xA8 SHL PUSH1 0x60 DUP3 ADD MSTORE PUSH1 0x80 ADD SWAP1 JUMP JUMPDEST PUSH1 0x40 MLOAD PUSH1 0x1F DUP3 ADD PUSH1 0x1F NOT AND DUP2 ADD PUSH1 0x1 PUSH1 0x1 PUSH1 0x40 SHL SUB DUP2 GT DUP3 DUP3 LT OR ISZERO PUSH2 0x1DF3 JUMPI PUSH2 0x1DF3 PUSH2 0x1EA8 JUMP JUMPDEST PUSH1 0x40 MSTORE SWAP2 SWAP1 POP JUMP JUMPDEST PUSH1 0x0 PUSH1 0x1 PUSH1 0x1 PUSH1 0x40 SHL SUB DUP3 GT ISZERO PUSH2 0x1E14 JUMPI PUSH2 0x1E14 PUSH2 0x1EA8 JUMP JUMPDEST POP PUSH1 0x5 SHL PUSH1 0x20 ADD SWAP1 JUMP JUMPDEST PUSH1 0x1 DUP2 DUP2 SHR SWAP1 DUP3 AND DUP1 PUSH2 0x1E32 JUMPI PUSH1 0x7F DUP3 AND SWAP2 POP JUMPDEST PUSH1 0x20 DUP3 LT DUP2 EQ ISZERO PUSH2 0xCA8 JUMPI PUSH4 0x4E487B71 PUSH1 0xE0 SHL PUSH1 0x0 MSTORE PUSH1 0x22 PUSH1 0x4 MSTORE PUSH1 0x24 PUSH1 0x0 REVERT JUMPDEST PUSH1 0x0 PUSH1 0x0 NOT DUP3 EQ ISZERO PUSH2 0x1E75 JUMPI PUSH4 0x4E487B71 PUSH1 0xE0 SHL PUSH1 0x0 MSTORE PUSH1 0x11 PUSH1 0x4 MSTORE PUSH1 0x24 PUSH1 0x0 REVERT JUMPDEST POP PUSH1 0x1 ADD SWAP1 JUMP JUMPDEST PUSH4 0x4E487B71 PUSH1 0xE0 SHL PUSH1 0x0 MSTORE PUSH1 0x31 PUSH1 0x4 MSTORE PUSH1 0x24 PUSH1 0x0 REVERT JUMPDEST PUSH4 0x4E487B71 PUSH1 0xE0 SHL PUSH1 0x0 MSTORE PUSH1 0x32 PUSH1 0x4 MSTORE PUSH1 0x24 PUSH1 0x0 REVERT JUMPDEST PUSH4 0x4E487B71 PUSH1 0xE0 SHL PUSH1 0x0 MSTORE PUSH1 0x41 PUSH1 0x4 MSTORE PUSH1 0x24 PUSH1 0x0 REVERT INVALID LOG2 PUSH5 0x6970667358 0x22 SLT KECCAK256 PUSH31 0x24F154BE1E4E517446D1BE075C8B25D05F6543ABA3F413588EB2B875F42768 PUSH5 0x736F6C6343 STOP ADDMOD SDIV STOP CALLER "},"methodIdentifiers":{"addPublishers(address[])":"d31a57d6","bulkIssue(bytes32[],uint256[])":"9dd516a5","bulkRevoke(bytes32[])":"4ada8076","documentExpiration(bytes32)":"d5fb36c5","documentIssued(bytes32)":"33358d2d","documentPublisher(bytes32)":"156e4b02","documentRevoked(bytes32)":"8bc36c91","email()":"820e93f5","expiredTime()":"8e32e421","getEmail()":"7e79e8ba","getExpirationDate(bytes32)":"a0f3a321","getExpiredTime()":"16f5f7d4","getHost()":"20bc4425","getIntentDeclaration()":"eb5face7","getIssuedBlock(bytes32)":"bf40b904","getLegalReference()":"38f186c2","getName()":"17d7de7c","getPublishers()":"6c6071aa","host()":"f437bc59","initialize(string,string,string,string,string,uint256,address,address)":"5e9057b5","intentDeclaration()":"707c21ac","isExpired(bytes32)":"6db2feb2","isIssued(bytes32)":"163aa631","isIssuedBefore(bytes32,uint256)":"5a9e03ca","isRevoked(bytes32)":"4294857f","isRevokedBefore(bytes32,uint256)":"339b6b39","issue(bytes32,uint256)":"a92abe37","legalReference()":"6ae08ffa","name()":"06fdde03","owner()":"8da5cb5b","publisherCheck(address)":"6df38d67","publishers(uint256)":"ff060fbd","removeAllPublishers()":"7d1feb6f","renounceOwnership()":"715018a6","revoke(bytes32)":"b75c7dc6","setEmail(string)":"282b065a","setExpiredTime(uint256)":"df8debed","setHost(string)":"a5ab89ff","setIntentDeclaration(string)":"3d4a3eb0","setLegalReference(string)":"2dc974d8","setName(string)":"c47f0027","transferOwnership(address)":"f2fde38b","verify(bytes32[],bytes32,bytes32)":"5a9a49c7"}}}}}