{
  "_format": "hh-sol-artifact-1",
  "contractName": "DocumentStore",
  "sourceName": "contracts/DocumentStore.sol",
  "abi": [
    {
      "anonymous": false,
      "inputs": [
        {
          "indexed": true,
          "internalType": "address",
          "name": "thisContract",
          "type": "address"
        },
        {
          "indexed": false,
          "internalType": "uint256",
          "name": "time",
          "type": "uint256"
        }
      ],
      "name": "ContractExpired",
      "type": "event"
    },
    {
      "anonymous": false,
      "inputs": [
        {
          "indexed": false,
          "internalType": "string",
          "name": "_name",
          "type": "string"
        },
        {
          "indexed": false,
          "internalType": "string",
          "name": "_email",
          "type": "string"
        },
        {
          "indexed": false,
          "internalType": "string",
          "name": "_legalReference",
          "type": "string"
        },
        {
          "indexed": false,
          "internalType": "string",
          "name": "_intentDeclaration",
          "type": "string"
        },
        {
          "indexed": false,
          "internalType": "string",
          "name": "_host",
          "type": "string"
        },
        {
          "indexed": false,
          "internalType": "uint256",
          "name": "_time",
          "type": "uint256"
        }
      ],
      "name": "ContractInfoChanged",
      "type": "event"
    },
    {
      "anonymous": false,
      "inputs": [
        {
          "indexed": true,
          "internalType": "bytes32",
          "name": "document",
          "type": "bytes32"
        }
      ],
      "name": "DocumentIssued",
      "type": "event"
    },
    {
      "anonymous": false,
      "inputs": [
        {
          "indexed": true,
          "internalType": "bytes32",
          "name": "document",
          "type": "bytes32"
        }
      ],
      "name": "DocumentRevoked",
      "type": "event"
    },
    {
      "anonymous": false,
      "inputs": [
        {
          "indexed": false,
          "internalType": "uint8",
          "name": "version",
          "type": "uint8"
        }
      ],
      "name": "Initialized",
      "type": "event"
    },
    {
      "anonymous": false,
      "inputs": [
        {
          "indexed": true,
          "internalType": "address",
          "name": "previousOwner",
          "type": "address"
        },
        {
          "indexed": true,
          "internalType": "address",
          "name": "newOwner",
          "type": "address"
        }
      ],
      "name": "OwnershipTransferred",
      "type": "event"
    },
    {
      "anonymous": false,
      "inputs": [
        {
          "indexed": true,
          "internalType": "address",
          "name": "documentStore",
          "type": "address"
        },
        {
          "indexed": false,
          "internalType": "address[]",
          "name": "currentPublishers",
          "type": "address[]"
        }
      ],
      "name": "PublisherChanged",
      "type": "event"
    },
    {
      "inputs": [
        {
          "internalType": "address[]",
          "name": "_newPublishers",
          "type": "address[]"
        }
      ],
      "name": "addPublishers",
      "outputs": [],
      "stateMutability": "nonpayable",
      "type": "function"
    },
    {
      "inputs": [
        {
          "internalType": "bytes32[]",
          "name": "documents",
          "type": "bytes32[]"
        },
        {
          "internalType": "uint256[]",
          "name": "_expiredTime",
          "type": "uint256[]"
        }
      ],
      "name": "bulkIssue",
      "outputs": [],
      "stateMutability": "nonpayable",
      "type": "function"
    },
    {
      "inputs": [
        {
          "internalType": "bytes32[]",
          "name": "documents",
          "type": "bytes32[]"
        }
      ],
      "name": "bulkRevoke",
      "outputs": [],
      "stateMutability": "nonpayable",
      "type": "function"
    },
    {
      "inputs": [
        {
          "internalType": "bytes32",
          "name": "",
          "type": "bytes32"
        }
      ],
      "name": "documentExpiration",
      "outputs": [
        {
          "internalType": "uint256",
          "name": "",
          "type": "uint256"
        }
      ],
      "stateMutability": "view",
      "type": "function"
    },
    {
      "inputs": [
        {
          "internalType": "bytes32",
          "name": "",
          "type": "bytes32"
        }
      ],
      "name": "documentIssued",
      "outputs": [
        {
          "internalType": "uint256",
          "name": "",
          "type": "uint256"
        }
      ],
      "stateMutability": "view",
      "type": "function"
    },
    {
      "inputs": [
        {
          "internalType": "bytes32",
          "name": "",
          "type": "bytes32"
        }
      ],
      "name": "documentPublisher",
      "outputs": [
        {
          "internalType": "address",
          "name": "",
          "type": "address"
        }
      ],
      "stateMutability": "view",
      "type": "function"
    },
    {
      "inputs": [
        {
          "internalType": "bytes32",
          "name": "",
          "type": "bytes32"
        }
      ],
      "name": "documentRevoked",
      "outputs": [
        {
          "internalType": "uint256",
          "name": "",
          "type": "uint256"
        }
      ],
      "stateMutability": "view",
      "type": "function"
    },
    {
      "inputs": [],
      "name": "email",
      "outputs": [
        {
          "internalType": "string",
          "name": "",
          "type": "string"
        }
      ],
      "stateMutability": "view",
      "type": "function"
    },
    {
      "inputs": [],
      "name": "expiredTime",
      "outputs": [
        {
          "internalType": "uint256",
          "name": "",
          "type": "uint256"
        }
      ],
      "stateMutability": "view",
      "type": "function"
    },
    {
      "inputs": [],
      "name": "getEmail",
      "outputs": [
        {
          "internalType": "string",
          "name": "",
          "type": "string"
        }
      ],
      "stateMutability": "view",
      "type": "function"
    },
    {
      "inputs": [
        {
          "internalType": "bytes32",
          "name": "document",
          "type": "bytes32"
        }
      ],
      "name": "getExpirationDate",
      "outputs": [
        {
          "internalType": "uint256",
          "name": "",
          "type": "uint256"
        }
      ],
      "stateMutability": "view",
      "type": "function"
    },
    {
      "inputs": [],
      "name": "getExpiredTime",
      "outputs": [
        {
          "internalType": "uint256",
          "name": "",
          "type": "uint256"
        }
      ],
      "stateMutability": "view",
      "type": "function"
    },
    {
      "inputs": [],
      "name": "getHost",
      "outputs": [
        {
          "internalType": "string",
          "name": "",
          "type": "string"
        }
      ],
      "stateMutability": "view",
      "type": "function"
    },
    {
      "inputs": [],
      "name": "getIntentDeclaration",
      "outputs": [
        {
          "internalType": "string",
          "name": "",
          "type": "string"
        }
      ],
      "stateMutability": "view",
      "type": "function"
    },
    {
      "inputs": [
        {
          "internalType": "bytes32",
          "name": "document",
          "type": "bytes32"
        }
      ],
      "name": "getIssuedBlock",
      "outputs": [
        {
          "internalType": "uint256",
          "name": "",
          "type": "uint256"
        }
      ],
      "stateMutability": "view",
      "type": "function"
    },
    {
      "inputs": [],
      "name": "getLegalReference",
      "outputs": [
        {
          "internalType": "string",
          "name": "",
          "type": "string"
        }
      ],
      "stateMutability": "view",
      "type": "function"
    },
    {
      "inputs": [],
      "name": "getName",
      "outputs": [
        {
          "internalType": "string",
          "name": "",
          "type": "string"
        }
      ],
      "stateMutability": "view",
      "type": "function"
    },
    {
      "inputs": [],
      "name": "getPublishers",
      "outputs": [
        {
          "internalType": "address[]",
          "name": "",
          "type": "address[]"
        }
      ],
      "stateMutability": "view",
      "type": "function"
    },
    {
      "inputs": [],
      "name": "host",
      "outputs": [
        {
          "internalType": "string",
          "name": "",
          "type": "string"
        }
      ],
      "stateMutability": "view",
      "type": "function"
    },
    {
      "inputs": [
        {
          "internalType": "string",
          "name": "_name",
          "type": "string"
        },
        {
          "internalType": "string",
          "name": "_email",
          "type": "string"
        },
        {
          "internalType": "string",
          "name": "_legalReference",
          "type": "string"
        },
        {
          "internalType": "string",
          "name": "_intentDeclaration",
          "type": "string"
        },
        {
          "internalType": "string",
          "name": "_host",
          "type": "string"
        },
        {
          "internalType": "uint256",
          "name": "_time",
          "type": "uint256"
        },
        {
          "internalType": "address",
          "name": "_owner",
          "type": "address"
        },
        {
          "internalType": "address",
          "name": "_ownerManager",
          "type": "address"
        }
      ],
      "name": "initialize",
      "outputs": [],
      "stateMutability": "nonpayable",
      "type": "function"
    },
    {
      "inputs": [],
      "name": "intentDeclaration",
      "outputs": [
        {
          "internalType": "string",
          "name": "",
          "type": "string"
        }
      ],
      "stateMutability": "view",
      "type": "function"
    },
    {
      "inputs": [
        {
          "internalType": "bytes32",
          "name": "document",
          "type": "bytes32"
        }
      ],
      "name": "isExpired",
      "outputs": [
        {
          "internalType": "bool",
          "name": "",
          "type": "bool"
        }
      ],
      "stateMutability": "view",
      "type": "function"
    },
    {
      "inputs": [
        {
          "internalType": "bytes32",
          "name": "document",
          "type": "bytes32"
        }
      ],
      "name": "isIssued",
      "outputs": [
        {
          "internalType": "bool",
          "name": "",
          "type": "bool"
        }
      ],
      "stateMutability": "view",
      "type": "function"
    },
    {
      "inputs": [
        {
          "internalType": "bytes32",
          "name": "document",
          "type": "bytes32"
        },
        {
          "internalType": "uint256",
          "name": "blockNumber",
          "type": "uint256"
        }
      ],
      "name": "isIssuedBefore",
      "outputs": [
        {
          "internalType": "bool",
          "name": "",
          "type": "bool"
        }
      ],
      "stateMutability": "view",
      "type": "function"
    },
    {
      "inputs": [
        {
          "internalType": "bytes32",
          "name": "document",
          "type": "bytes32"
        }
      ],
      "name": "isRevoked",
      "outputs": [
        {
          "internalType": "bool",
          "name": "",
          "type": "bool"
        }
      ],
      "stateMutability": "view",
      "type": "function"
    },
    {
      "inputs": [
        {
          "internalType": "bytes32",
          "name": "document",
          "type": "bytes32"
        },
        {
          "internalType": "uint256",
          "name": "blockNumber",
          "type": "uint256"
        }
      ],
      "name": "isRevokedBefore",
      "outputs": [
        {
          "internalType": "bool",
          "name": "",
          "type": "bool"
        }
      ],
      "stateMutability": "view",
      "type": "function"
    },
    {
      "inputs": [
        {
          "internalType": "bytes32",
          "name": "document",
          "type": "bytes32"
        },
        {
          "internalType": "uint256",
          "name": "_expiredTime",
          "type": "uint256"
        }
      ],
      "name": "issue",
      "outputs": [],
      "stateMutability": "nonpayable",
      "type": "function"
    },
    {
      "inputs": [],
      "name": "legalReference",
      "outputs": [
        {
          "internalType": "string",
          "name": "",
          "type": "string"
        }
      ],
      "stateMutability": "view",
      "type": "function"
    },
    {
      "inputs": [],
      "name": "name",
      "outputs": [
        {
          "internalType": "string",
          "name": "",
          "type": "string"
        }
      ],
      "stateMutability": "view",
      "type": "function"
    },
    {
      "inputs": [],
      "name": "owner",
      "outputs": [
        {
          "internalType": "address",
          "name": "",
          "type": "address"
        }
      ],
      "stateMutability": "view",
      "type": "function"
    },
    {
      "inputs": [
        {
          "internalType": "address",
          "name": "_address",
          "type": "address"
        }
      ],
      "name": "publisherCheck",
      "outputs": [
        {
          "internalType": "bool",
          "name": "",
          "type": "bool"
        }
      ],
      "stateMutability": "view",
      "type": "function"
    },
    {
      "inputs": [
        {
          "internalType": "uint256",
          "name": "",
          "type": "uint256"
        }
      ],
      "name": "publishers",
      "outputs": [
        {
          "internalType": "address",
          "name": "",
          "type": "address"
        }
      ],
      "stateMutability": "view",
      "type": "function"
    },
    {
      "inputs": [],
      "name": "removeAllPublishers",
      "outputs": [],
      "stateMutability": "nonpayable",
      "type": "function"
    },
    {
      "inputs": [],
      "name": "renounceOwnership",
      "outputs": [],
      "stateMutability": "nonpayable",
      "type": "function"
    },
    {
      "inputs": [
        {
          "internalType": "bytes32",
          "name": "document",
          "type": "bytes32"
        }
      ],
      "name": "revoke",
      "outputs": [],
      "stateMutability": "nonpayable",
      "type": "function"
    },
    {
      "inputs": [
        {
          "internalType": "string",
          "name": "_email",
          "type": "string"
        }
      ],
      "name": "setEmail",
      "outputs": [],
      "stateMutability": "nonpayable",
      "type": "function"
    },
    {
      "inputs": [
        {
          "internalType": "uint256",
          "name": "_time",
          "type": "uint256"
        }
      ],
      "name": "setExpiredTime",
      "outputs": [],
      "stateMutability": "nonpayable",
      "type": "function"
    },
    {
      "inputs": [
        {
          "internalType": "string",
          "name": "_host",
          "type": "string"
        }
      ],
      "name": "setHost",
      "outputs": [],
      "stateMutability": "nonpayable",
      "type": "function"
    },
    {
      "inputs": [
        {
          "internalType": "string",
          "name": "_intentDeclaration",
          "type": "string"
        }
      ],
      "name": "setIntentDeclaration",
      "outputs": [],
      "stateMutability": "nonpayable",
      "type": "function"
    },
    {
      "inputs": [
        {
          "internalType": "string",
          "name": "_legalReference",
          "type": "string"
        }
      ],
      "name": "setLegalReference",
      "outputs": [],
      "stateMutability": "nonpayable",
      "type": "function"
    },
    {
      "inputs": [
        {
          "internalType": "string",
          "name": "_name",
          "type": "string"
        }
      ],
      "name": "setName",
      "outputs": [],
      "stateMutability": "nonpayable",
      "type": "function"
    },
    {
      "inputs": [
        {
          "internalType": "bytes32",
          "name": "a",
          "type": "bytes32"
        }
      ],
      "name": "testHashFunc",
      "outputs": [
        {
          "internalType": "bytes32",
          "name": "",
          "type": "bytes32"
        }
      ],
      "stateMutability": "pure",
      "type": "function"
    },
    {
      "inputs": [
        {
          "internalType": "address",
          "name": "newOwner",
          "type": "address"
        }
      ],
      "name": "transferOwnership",
      "outputs": [],
      "stateMutability": "nonpayable",
      "type": "function"
    },
    {
      "inputs": [
        {
          "internalType": "bytes32[]",
          "name": "proof",
          "type": "bytes32[]"
        },
        {
          "internalType": "bytes32",
          "name": "root",
          "type": "bytes32"
        },
        {
          "internalType": "bytes32",
          "name": "leaf",
          "type": "bytes32"
        }
      ],
      "name": "verify",
      "outputs": [
        {
          "internalType": "bool",
          "name": "",
          "type": "bool"
        }
      ],
      "stateMutability": "view",
      "type": "function"
    }
  ],
  "bytecode": "0x608060405234801561001057600080fd5b50611ee4806100206000396000f3fe608060405234801561001057600080fd5b50600436106102045760003560e01c806306fdde0314610209578063156e4b0214610227578063163aa6311461026857806316f5f7d41461028b57806317d7de7c1461029d57806320bc4425146102a5578063282b065a146102ad5780632dc974d8146102c257806333358d2d146102d5578063339b6b39146102f557806338f186c2146103085780633d4a3eb0146103105780634294857f146103235780634ada8076146103365780635a9a49c7146103495780635a9e03ca1461035c5780635e9057b51461036f5780636ae08ffa146103825780636c6071aa1461038a5780636db2feb21461039f5780636df38d67146103b2578063707c21ac146103c5578063715018a6146103cd5780637d1feb6f146103d55780637e79e8ba146103dd578063820e93f5146103e55780638bc36c91146103ed5780638da5cb5b1461040d5780638e32e421146104155780639dd516a51461041e578063a0f3a32114610431578063a5ab89ff14610444578063a92abe3714610457578063b75c7dc61461046a578063bf40b9041461047d578063c47f002714610490578063d31a57d6146104a3578063d5e9b377146104b6578063d5fb36c5146104c9578063df8debed146104e9578063eb5face7146104fc578063f2fde38b14610504578063f437bc5914610517578063ff060fbd1461051f575b600080fd5b610211610532565b60405161021e9190611bc0565b60405180910390f35b6102506102353660046118b3565b6070602052600090815260409020546001600160a01b031681565b6040516001600160a01b03909116815260200161021e565b61027b6102763660046118b3565b6105c0565b604051901515815260200161021e565b606a545b60405190815260200161021e565b6102116105d4565b610211610666565b6102c06102bb3660046118ee565b610675565b005b6102c06102d03660046118ee565b61073c565b61028f6102e33660046118b3565b606d6020526000908152604090205481565b61027b6103033660046118cc565b610798565b6102116107ca565b6102c061031e3660046118ee565b6107d9565b61027b6103313660046118b3565b610835565b6102c0610344366004611769565b610849565b61027b610357366004611866565b61088d565b61027b61036a3660046118cc565b61092f565b6102c061037d366004611922565b61095d565b610211610b9d565b610392610baa565b60405161021e9190611b2f565b61027b6103ad3660046118b3565b610c0b565b61027b6103c03660046116b0565b610c69565b610211610cd2565b6102c0610cdf565b6102c0610cf3565b610211610d7b565b610211610d8a565b61028f6103fb3660046118b3565b606e6020526000908152604090205481565b610250610d97565b61028f606a5481565b6102c061042c3660046117a5565b610da6565b61028f61043f3660046118b3565b610e05565b6102c06104523660046118ee565b610e41565b6102c06104653660046118cc565b610e9d565b6102c06104783660046118b3565b610fb0565b61028f61048b3660046118b3565b61104b565b6102c061049e3660046118ee565b611087565b6102c06104b13660046116cb565b6110e3565b61028f6104c43660046118b3565b611207565b61028f6104d73660046118b3565b606f6020526000908152604090205481565b6102c06104f73660046118b3565b611239565b6102116112d7565b6102c06105123660046116b0565b6112e6565b61021161135f565b61025061052d3660046118b3565b61136c565b6065805461053f90611dce565b80601f016020809104026020016040519081016040528092919081815260200182805461056b90611dce565b80156105b85780601f1061058d576101008083540402835291602001916105b8565b820191906000526020600020905b81548152906001019060200180831161059b57829003601f168201915b505050505081565b6000908152606d6020526040902054151590565b6060606580546105e390611dce565b80601f016020809104026020016040519081016040528092919081815260200182805461060f90611dce565b801561065c5780601f106106315761010080835404028352916020019161065c565b820191906000526020600020905b81548152906001019060200180831161063f57829003601f168201915b5050505050905090565b6060606980546105e390611dce565b61067d611396565b42606a541161068b57600080fd5b805161069e90606690602084019061151a565b50606b546040516368c35c4b60e01b81526001600160a01b03909116906368c35c4b906106d19030908590600401611b0b565b600060405180830381600087803b1580156106eb57600080fd5b505af11580156106ff573d6000803e3d6000fd5b50505050600080516020611e8f83398151915260656066606760686069606a5460405161073196959493929190611bd3565b60405180910390a150565b610744611396565b42606a541161075257600080fd5b805161076590606790602084019061151a565b50606b54604051636ac012d560e01b81526001600160a01b0390911690636ac012d5906106d19030908590600401611b0b565b6000828152606e602052604081205482108015906107c357506000838152606e602052604090205415155b9392505050565b6060606780546105e390611dce565b6107e1611396565b42606a54116107ef57600080fd5b805161080290606890602084019061151a565b50606b5460405163db7cd7fb60e01b81526001600160a01b039091169063db7cd7fb906106d19030908590600401611b0b565b6000908152606e6020526040902054151590565b60005b81518110156108895761087782828151811061086a5761086a611e42565b6020026020010151610fb0565b8061088181611e03565b91505061084c565b5050565b600082610899816105c0565b6108be5760405162461bcd60e51b81526004016108b590611c48565b60405180910390fd5b836108c881610835565b156108e55760405162461bcd60e51b81526004016108b590611c99565b42606a54116108f357600080fd5b6108fc85610c0b565b1561090657600080fd5b61090f84610835565b1561091957600080fd5b8461092487866113f5565b149695505050505050565b6000828152606d6020526040812054158015906107c35750506000918252606d602052604090912054111590565b600054610100900460ff161580801561097d5750600054600160ff909116105b806109975750303b158015610997575060005460ff166001145b6109fa5760405162461bcd60e51b815260206004820152602e60248201527f496e697469616c697a61626c653a20636f6e747261637420697320616c72656160448201526d191e481a5b9a5d1a585b1a5e995960921b60648201526084016108b5565b6000805460ff191660011790558015610a1d576000805461ff0019166101001790555b428411610a6c5760405162461bcd60e51b815260206004820152601e60248201527f4572726f723a206578706972656420646174652068617320706173736564000060448201526064016108b5565b610a74611469565b610a7d836112e6565b606c80546001810182556000919091527f2b4a51ab505fc96a0952efda2ba61bcd3078d4c02c39a186ec16f21883fbe0160180546001600160a01b0319166001600160a01b0385161790558851610adb9060659060208c019061151a565b508751610aef9060669060208b019061151a565b508651610b039060679060208a019061151a565b508551610b1790606890602089019061151a565b508451610b2b90606990602088019061151a565b50606b80546001600160a01b0319166001600160a01b038416179055606a8490558015610b92576000805461ff0019169055604051600181527f7f26b83ff96e1f2b6a682f133852f6798a09c465da95921460cefb38474024989060200160405180910390a15b505050505050505050565b6067805461053f90611dce565b6060606c80548060200260200160405190810160405280929190818152602001828054801561065c57602002820191906000526020600020905b81546001600160a01b03168152600190910190602001808311610be4575050505050905090565b600081610c17816105c0565b610c335760405162461bcd60e51b81526004016108b590611c48565b6000838152606f602052604090205415610c5d576000838152606f60205260409020544211610c60565b60005b91505b50919050565b600080805b606c54811015610ccb57836001600160a01b0316606c8281548110610c9557610c95611e42565b6000918252602090912001546001600160a01b03161415610cb95760019150610ccb565b80610cc381611e03565b915050610c6e565b5092915050565b6068805461053f90611dce565b610ce7611396565b610cf16000611498565b565b610cfb611396565b42606a5411610d0957600080fd5b606c5415610d4957606c805480610d2257610d22611e2c565b600082815260209020810160001990810180546001600160a01b0319169055019055610d09565b306001600160a01b0316600080516020611e6f833981519152606c604051610d719190611b7c565b60405180910390a2565b6060606680546105e390611dce565b6066805461053f90611dce565b6033546001600160a01b031690565b60005b8251811015610e0057610dee838281518110610dc757610dc7611e42565b6020026020010151838381518110610de157610de1611e42565b6020026020010151610e9d565b80610df881611e03565b915050610da9565b505050565b600081610e11816105c0565b610e2d5760405162461bcd60e51b81526004016108b590611c48565b50506000908152606f602052604090205490565b610e49611396565b42606a5411610e5757600080fd5b8051610e6a90606990602084019061151a565b50606b5460405163cf1bfe0560e01b81526001600160a01b039091169063cf1bfe05906106d19030908590600401611b0b565b610ea633610c69565b1515600114610ec75760405162461bcd60e51b81526004016108b590611ce0565b81610ed1816105c0565b15610f415760405162461bcd60e51b815260206004820152603a60248201527f4572726f723a204f6e6c792068617368657320746861742068617665206e6f74604482015279081899595b881a5cdcdd59590818d85b881899481a5cdcdd595960321b60648201526084016108b5565b42606a5411610f4f57600080fd5b6000838152606d60209081526040808320439055606f8252808320859055607090915280822080546001600160a01b031916331790555184917f01a1249f2caa0445b8391e02413d26f0d409dabe5330cd1d04d3d0801fc42db391a2505050565b610fb933610c69565b1515600114610fda5760405162461bcd60e51b81526004016108b590611ce0565b80610fe481610835565b156110015760405162461bcd60e51b81526004016108b590611c99565b42606a541161100f57600080fd5b6000828152606e60205260408082204390555183917f7283b5ab9758f7fba773279e4fd50ea7b136bd1d8371dcae9c5ce529c55343d791a25050565b600081611057816105c0565b6110735760405162461bcd60e51b81526004016108b590611c48565b50506000908152606d602052604090205490565b61108f611396565b42606a541161109d57600080fd5b80516110b090606590602084019061151a565b50606b54604051630c4876c760e21b81526001600160a01b0390911690633121db1c906106d19030908590600401611b0b565b6110eb611396565b42606a54116110f957600080fd5b606c541561113957606c80548061111257611112611e2c565b600082815260209020810160001990810180546001600160a01b03191690550190556110f9565b60005b81518110156111d35761116782828151811061115a5761115a611e42565b6020026020010151610c69565b15611171576111c1565b606c82828151811061118557611185611e42565b60209081029190910181015182546001810184556000938452919092200180546001600160a01b0319166001600160a01b039092169190911790555b806111cb81611e03565b91505061113c565b50306001600160a01b0316600080516020611e6f833981519152606c6040516111fc9190611b7c565b60405180910390a250565b60008160405160200161121c91815260200190565b604051602081830303815290604052805190602001209050919050565b611241611396565b606b54604051631ff0612160e21b8152306004820152602481018390526001600160a01b0390911690637fc1848490604401600060405180830381600087803b15801561128d57600080fd5b505af11580156112a1573d6000803e3d6000fd5b505050606a82905550604051600080516020611e8f83398151915290610731906065906066906067906068906069908890611bd3565b6060606880546105e390611dce565b6112ee611396565b6001600160a01b0381166113535760405162461bcd60e51b815260206004820152602660248201527f4f776e61626c653a206e6577206f776e657220697320746865207a65726f206160448201526564647265737360d01b60648201526084016108b5565b61135c81611498565b50565b6069805461053f90611dce565b606c818154811061137c57600080fd5b6000918252602090912001546001600160a01b0316905081565b3361139f610d97565b6001600160a01b031614610cf15760405162461bcd60e51b815260206004820181905260248201527f4f776e61626c653a2063616c6c6572206973206e6f7420746865206f776e657260448201526064016108b5565b600081815b845181101561146157600085828151811061141757611417611e42565b6020026020010151905080831161143d576000838152602082905260409020925061144e565b600081815260208490526040902092505b508061145981611e03565b9150506113fa565b509392505050565b600054610100900460ff166114905760405162461bcd60e51b81526004016108b590611d30565b610cf16114ea565b603380546001600160a01b038381166001600160a01b0319831681179093556040519116919082907f8be0079c531659141344cd1fd0a4f28419497f9722a3daafe3b4186f6b6457e090600090a35050565b600054610100900460ff166115115760405162461bcd60e51b81526004016108b590611d30565b610cf133611498565b82805461152690611dce565b90600052602060002090601f016020900481019282611548576000855561158e565b82601f1061156157805160ff191683800117855561158e565b8280016001018555821561158e579182015b8281111561158e578251825591602001919060010190611573565b5061159a92915061159e565b5090565b5b8082111561159a576000815560010161159f565b80356001600160a01b03811681146115ca57600080fd5b919050565b600082601f8301126115e057600080fd5b813560206115f56115f083611dab565b611d7b565b80838252828201915082860187848660051b890101111561161557600080fd5b60005b8581101561163457813584529284019290840190600101611618565b5090979650505050505050565b600082601f83011261165257600080fd5b81356001600160401b0381111561166b5761166b611e58565b61167e601f8201601f1916602001611d7b565b81815284602083860101111561169357600080fd5b816020850160208301376000918101602001919091529392505050565b6000602082840312156116c257600080fd5b6107c3826115b3565b600060208083850312156116de57600080fd5b82356001600160401b038111156116f457600080fd5b8301601f8101851361170557600080fd5b80356117136115f082611dab565b80828252848201915084840188868560051b870101111561173357600080fd5b600094505b8385101561175d57611749816115b3565b835260019490940193918501918501611738565b50979650505050505050565b60006020828403121561177b57600080fd5b81356001600160401b0381111561179157600080fd5b61179d848285016115cf565b949350505050565b600080604083850312156117b857600080fd5b82356001600160401b03808211156117cf57600080fd5b6117db868387016115cf565b93506020915081850135818111156117f257600080fd5b85019050601f8101861361180557600080fd5b80356118136115f082611dab565b80828252848201915084840189868560051b870101111561183357600080fd5b600094505b83851015611856578035835260019490940193918501918501611838565b5080955050505050509250929050565b60008060006060848603121561187b57600080fd5b83356001600160401b0381111561189157600080fd5b61189d868287016115cf565b9660208601359650604090950135949350505050565b6000602082840312156118c557600080fd5b5035919050565b600080604083850312156118df57600080fd5b50508035926020909101359150565b60006020828403121561190057600080fd5b81356001600160401b0381111561191657600080fd5b61179d84828501611641565b600080600080600080600080610100898b03121561193f57600080fd5b88356001600160401b038082111561195657600080fd5b6119628c838d01611641565b995060208b013591508082111561197857600080fd5b6119848c838d01611641565b985060408b013591508082111561199a57600080fd5b6119a68c838d01611641565b975060608b01359150808211156119bc57600080fd5b6119c88c838d01611641565b965060808b01359150808211156119de57600080fd5b506119eb8b828c01611641565b94505060a08901359250611a0160c08a016115b3565b9150611a0f60e08a016115b3565b90509295985092959890939650565b6000815180845260005b81811015611a4457602081850181015186830182015201611a28565b81811115611a56576000602083870101525b50601f01601f19169290920160200192915050565b8054600090600181811c9080831680611a8557607f831692505b6020808410821415611aa757634e487b7160e01b600052602260045260246000fd5b83885260208801828015611ac25760018114611ad357611afe565b60ff19871682528282019750611afe565b60008981526020902060005b87811015611af857815484820152908601908401611adf565b83019850505b5050505050505092915050565b6001600160a01b038316815260406020820181905260009061179d90830184611a1e565b6020808252825182820181905260009190848201906040850190845b81811015611b705783516001600160a01b031683529284019291840191600101611b4b565b50909695505050505050565b6020808252825482820181905260008481528281209092916040850190845b81811015611b705783546001600160a01b031683526001938401939285019201611b9b565b6020815260006107c36020830184611a1e565b60c081526000611be660c0830189611a6b565b8281036020840152611bf88189611a6b565b90508281036040840152611c0c8188611a6b565b90508281036060840152611c208187611a6b565b90508281036080840152611c348186611a6b565b9150508260a0830152979650505050505050565b60208082526031908201527f4572726f723a204f6e6c792069737375656420646f63756d656e742068617368604082015270195cc818d85b881899481c995d9bdad959607a1b606082015260800190565b60208082526027908201527f4572726f723a204861736820686173206265656e207265766f6b65642070726560408201526676696f75736c7960c81b606082015260800190565b60208082526030908201527f4572726f723a204f6e6c79205075626c69736865722063616e207265766f6b6560408201526f2f697373756520646f63756d656e747360801b606082015260800190565b6020808252602b908201527f496e697469616c697a61626c653a20636f6e7472616374206973206e6f74206960408201526a6e697469616c697a696e6760a81b606082015260800190565b604051601f8201601f191681016001600160401b0381118282101715611da357611da3611e58565b604052919050565b60006001600160401b03821115611dc457611dc4611e58565b5060051b60200190565b600181811c90821680611de257607f821691505b60208210811415610c6357634e487b7160e01b600052602260045260246000fd5b6000600019821415611e2557634e487b7160e01b600052601160045260246000fd5b5060010190565b634e487b7160e01b600052603160045260246000fd5b634e487b7160e01b600052603260045260246000fd5b634e487b7160e01b600052604160045260246000fdfe5769cad5059d53ecd481a846d8fb5a548688f2858fc2d53bdf1d79c7ab2be1bb8f522cc919845bf58b76c472a942579ff9d850d67559315c54848c31e0fc2515a2646970667358221220891e11056af1ddb607a450d82217e703902092d10ba92797f8fcb433d88cde4464736f6c63430008050033",
  "linkReferences": {},
  "deployedLinkReferences": {}
}