{
  "_format": "hh-sol-artifact-1",
  "contractName": "DocumentStore",
  "sourceName": "contracts/DocumentStore.sol",
  "abi": [
    {
      "anonymous": false,
      "inputs": [
        {
          "indexed": true,
          "internalType": "address",
          "name": "thisContract",
          "type": "address"
        },
        {
          "indexed": false,
          "internalType": "uint256",
          "name": "time",
          "type": "uint256"
        }
      ],
      "name": "ContractExpired",
      "type": "event"
    },
    {
      "anonymous": false,
      "inputs": [
        {
          "indexed": false,
          "internalType": "string",
          "name": "_name",
          "type": "string"
        },
        {
          "indexed": false,
          "internalType": "string",
          "name": "_email",
          "type": "string"
        },
        {
          "indexed": false,
          "internalType": "string",
          "name": "_legalReference",
          "type": "string"
        },
        {
          "indexed": false,
          "internalType": "string",
          "name": "_intentDeclaration",
          "type": "string"
        },
        {
          "indexed": false,
          "internalType": "string",
          "name": "_host",
          "type": "string"
        },
        {
          "indexed": false,
          "internalType": "uint256",
          "name": "_time",
          "type": "uint256"
        }
      ],
      "name": "ContractInfoChanged",
      "type": "event"
    },
    {
      "anonymous": false,
      "inputs": [
        {
          "indexed": true,
          "internalType": "bytes32",
          "name": "document",
          "type": "bytes32"
        }
      ],
      "name": "DocumentIssued",
      "type": "event"
    },
    {
      "anonymous": false,
      "inputs": [
        {
          "indexed": true,
          "internalType": "bytes32",
          "name": "document",
          "type": "bytes32"
        }
      ],
      "name": "DocumentRevoked",
      "type": "event"
    },
    {
      "anonymous": false,
      "inputs": [
        {
          "indexed": false,
          "internalType": "uint8",
          "name": "version",
          "type": "uint8"
        }
      ],
      "name": "Initialized",
      "type": "event"
    },
    {
      "anonymous": false,
      "inputs": [
        {
          "indexed": true,
          "internalType": "address",
          "name": "previousOwner",
          "type": "address"
        },
        {
          "indexed": true,
          "internalType": "address",
          "name": "newOwner",
          "type": "address"
        }
      ],
      "name": "OwnershipTransferred",
      "type": "event"
    },
    {
      "anonymous": false,
      "inputs": [
        {
          "indexed": true,
          "internalType": "address",
          "name": "documentStore",
          "type": "address"
        },
        {
          "indexed": false,
          "internalType": "address[]",
          "name": "currentPublishers",
          "type": "address[]"
        }
      ],
      "name": "PublisherChanged",
      "type": "event"
    },
    {
      "inputs": [
        {
          "internalType": "address[]",
          "name": "_newPublishers",
          "type": "address[]"
        }
      ],
      "name": "addPublishers",
      "outputs": [],
      "stateMutability": "nonpayable",
      "type": "function"
    },
    {
      "inputs": [
        {
          "internalType": "bytes32[]",
          "name": "documents",
          "type": "bytes32[]"
        },
        {
          "internalType": "uint256[]",
          "name": "_expiredTime",
          "type": "uint256[]"
        }
      ],
      "name": "bulkIssue",
      "outputs": [],
      "stateMutability": "nonpayable",
      "type": "function"
    },
    {
      "inputs": [
        {
          "internalType": "bytes32[]",
          "name": "documents",
          "type": "bytes32[]"
        }
      ],
      "name": "bulkRevoke",
      "outputs": [],
      "stateMutability": "nonpayable",
      "type": "function"
    },
    {
      "inputs": [
        {
          "internalType": "bytes32",
          "name": "",
          "type": "bytes32"
        }
      ],
      "name": "documentExpiration",
      "outputs": [
        {
          "internalType": "uint256",
          "name": "",
          "type": "uint256"
        }
      ],
      "stateMutability": "view",
      "type": "function"
    },
    {
      "inputs": [
        {
          "internalType": "bytes32",
          "name": "",
          "type": "bytes32"
        }
      ],
      "name": "documentIssued",
      "outputs": [
        {
          "internalType": "uint256",
          "name": "",
          "type": "uint256"
        }
      ],
      "stateMutability": "view",
      "type": "function"
    },
    {
      "inputs": [
        {
          "internalType": "bytes32",
          "name": "",
          "type": "bytes32"
        }
      ],
      "name": "documentPublisher",
      "outputs": [
        {
          "internalType": "address",
          "name": "",
          "type": "address"
        }
      ],
      "stateMutability": "view",
      "type": "function"
    },
    {
      "inputs": [
        {
          "internalType": "bytes32",
          "name": "",
          "type": "bytes32"
        }
      ],
      "name": "documentRevoked",
      "outputs": [
        {
          "internalType": "uint256",
          "name": "",
          "type": "uint256"
        }
      ],
      "stateMutability": "view",
      "type": "function"
    },
    {
      "inputs": [],
      "name": "email",
      "outputs": [
        {
          "internalType": "string",
          "name": "",
          "type": "string"
        }
      ],
      "stateMutability": "view",
      "type": "function"
    },
    {
      "inputs": [],
      "name": "expiredTime",
      "outputs": [
        {
          "internalType": "uint256",
          "name": "",
          "type": "uint256"
        }
      ],
      "stateMutability": "view",
      "type": "function"
    },
    {
      "inputs": [],
      "name": "getEmail",
      "outputs": [
        {
          "internalType": "string",
          "name": "",
          "type": "string"
        }
      ],
      "stateMutability": "view",
      "type": "function"
    },
    {
      "inputs": [
        {
          "internalType": "bytes32",
          "name": "document",
          "type": "bytes32"
        }
      ],
      "name": "getExpirationDate",
      "outputs": [
        {
          "internalType": "uint256",
          "name": "",
          "type": "uint256"
        }
      ],
      "stateMutability": "view",
      "type": "function"
    },
    {
      "inputs": [],
      "name": "getExpiredTime",
      "outputs": [
        {
          "internalType": "uint256",
          "name": "",
          "type": "uint256"
        }
      ],
      "stateMutability": "view",
      "type": "function"
    },
    {
      "inputs": [],
      "name": "getHost",
      "outputs": [
        {
          "internalType": "string",
          "name": "",
          "type": "string"
        }
      ],
      "stateMutability": "view",
      "type": "function"
    },
    {
      "inputs": [],
      "name": "getIntentDeclaration",
      "outputs": [
        {
          "internalType": "string",
          "name": "",
          "type": "string"
        }
      ],
      "stateMutability": "view",
      "type": "function"
    },
    {
      "inputs": [
        {
          "internalType": "bytes32",
          "name": "document",
          "type": "bytes32"
        }
      ],
      "name": "getIssuedBlock",
      "outputs": [
        {
          "internalType": "uint256",
          "name": "",
          "type": "uint256"
        }
      ],
      "stateMutability": "view",
      "type": "function"
    },
    {
      "inputs": [],
      "name": "getLegalReference",
      "outputs": [
        {
          "internalType": "string",
          "name": "",
          "type": "string"
        }
      ],
      "stateMutability": "view",
      "type": "function"
    },
    {
      "inputs": [],
      "name": "getName",
      "outputs": [
        {
          "internalType": "string",
          "name": "",
          "type": "string"
        }
      ],
      "stateMutability": "view",
      "type": "function"
    },
    {
      "inputs": [],
      "name": "getPublishers",
      "outputs": [
        {
          "internalType": "address[]",
          "name": "",
          "type": "address[]"
        }
      ],
      "stateMutability": "view",
      "type": "function"
    },
    {
      "inputs": [],
      "name": "host",
      "outputs": [
        {
          "internalType": "string",
          "name": "",
          "type": "string"
        }
      ],
      "stateMutability": "view",
      "type": "function"
    },
    {
      "inputs": [
        {
          "internalType": "string",
          "name": "_name",
          "type": "string"
        },
        {
          "internalType": "string",
          "name": "_email",
          "type": "string"
        },
        {
          "internalType": "string",
          "name": "_legalReference",
          "type": "string"
        },
        {
          "internalType": "string",
          "name": "_intentDeclaration",
          "type": "string"
        },
        {
          "internalType": "string",
          "name": "_host",
          "type": "string"
        },
        {
          "internalType": "uint256",
          "name": "_time",
          "type": "uint256"
        },
        {
          "internalType": "address",
          "name": "_owner",
          "type": "address"
        },
        {
          "internalType": "address",
          "name": "_ownerManager",
          "type": "address"
        }
      ],
      "name": "initialize",
      "outputs": [],
      "stateMutability": "nonpayable",
      "type": "function"
    },
    {
      "inputs": [],
      "name": "intentDeclaration",
      "outputs": [
        {
          "internalType": "string",
          "name": "",
          "type": "string"
        }
      ],
      "stateMutability": "view",
      "type": "function"
    },
    {
      "inputs": [
        {
          "internalType": "bytes32",
          "name": "document",
          "type": "bytes32"
        }
      ],
      "name": "isExpired",
      "outputs": [
        {
          "internalType": "bool",
          "name": "",
          "type": "bool"
        }
      ],
      "stateMutability": "view",
      "type": "function"
    },
    {
      "inputs": [
        {
          "internalType": "bytes32",
          "name": "document",
          "type": "bytes32"
        }
      ],
      "name": "isIssued",
      "outputs": [
        {
          "internalType": "bool",
          "name": "",
          "type": "bool"
        }
      ],
      "stateMutability": "view",
      "type": "function"
    },
    {
      "inputs": [
        {
          "internalType": "bytes32",
          "name": "document",
          "type": "bytes32"
        },
        {
          "internalType": "uint256",
          "name": "blockNumber",
          "type": "uint256"
        }
      ],
      "name": "isIssuedBefore",
      "outputs": [
        {
          "internalType": "bool",
          "name": "",
          "type": "bool"
        }
      ],
      "stateMutability": "view",
      "type": "function"
    },
    {
      "inputs": [
        {
          "internalType": "bytes32",
          "name": "document",
          "type": "bytes32"
        }
      ],
      "name": "isRevoked",
      "outputs": [
        {
          "internalType": "bool",
          "name": "",
          "type": "bool"
        }
      ],
      "stateMutability": "view",
      "type": "function"
    },
    {
      "inputs": [
        {
          "internalType": "bytes32",
          "name": "document",
          "type": "bytes32"
        },
        {
          "internalType": "uint256",
          "name": "blockNumber",
          "type": "uint256"
        }
      ],
      "name": "isRevokedBefore",
      "outputs": [
        {
          "internalType": "bool",
          "name": "",
          "type": "bool"
        }
      ],
      "stateMutability": "view",
      "type": "function"
    },
    {
      "inputs": [
        {
          "internalType": "bytes32",
          "name": "document",
          "type": "bytes32"
        },
        {
          "internalType": "uint256",
          "name": "_expiredTime",
          "type": "uint256"
        }
      ],
      "name": "issue",
      "outputs": [],
      "stateMutability": "nonpayable",
      "type": "function"
    },
    {
      "inputs": [],
      "name": "legalReference",
      "outputs": [
        {
          "internalType": "string",
          "name": "",
          "type": "string"
        }
      ],
      "stateMutability": "view",
      "type": "function"
    },
    {
      "inputs": [],
      "name": "name",
      "outputs": [
        {
          "internalType": "string",
          "name": "",
          "type": "string"
        }
      ],
      "stateMutability": "view",
      "type": "function"
    },
    {
      "inputs": [],
      "name": "owner",
      "outputs": [
        {
          "internalType": "address",
          "name": "",
          "type": "address"
        }
      ],
      "stateMutability": "view",
      "type": "function"
    },
    {
      "inputs": [
        {
          "internalType": "address",
          "name": "_address",
          "type": "address"
        }
      ],
      "name": "publisherCheck",
      "outputs": [
        {
          "internalType": "bool",
          "name": "",
          "type": "bool"
        }
      ],
      "stateMutability": "view",
      "type": "function"
    },
    {
      "inputs": [
        {
          "internalType": "uint256",
          "name": "",
          "type": "uint256"
        }
      ],
      "name": "publishers",
      "outputs": [
        {
          "internalType": "address",
          "name": "",
          "type": "address"
        }
      ],
      "stateMutability": "view",
      "type": "function"
    },
    {
      "inputs": [],
      "name": "removeAllPublishers",
      "outputs": [],
      "stateMutability": "nonpayable",
      "type": "function"
    },
    {
      "inputs": [],
      "name": "renounceOwnership",
      "outputs": [],
      "stateMutability": "nonpayable",
      "type": "function"
    },
    {
      "inputs": [
        {
          "internalType": "bytes32",
          "name": "document",
          "type": "bytes32"
        }
      ],
      "name": "revoke",
      "outputs": [],
      "stateMutability": "nonpayable",
      "type": "function"
    },
    {
      "inputs": [
        {
          "internalType": "string",
          "name": "_email",
          "type": "string"
        }
      ],
      "name": "setEmail",
      "outputs": [],
      "stateMutability": "nonpayable",
      "type": "function"
    },
    {
      "inputs": [
        {
          "internalType": "uint256",
          "name": "_time",
          "type": "uint256"
        }
      ],
      "name": "setExpiredTime",
      "outputs": [],
      "stateMutability": "nonpayable",
      "type": "function"
    },
    {
      "inputs": [
        {
          "internalType": "string",
          "name": "_host",
          "type": "string"
        }
      ],
      "name": "setHost",
      "outputs": [],
      "stateMutability": "nonpayable",
      "type": "function"
    },
    {
      "inputs": [
        {
          "internalType": "string",
          "name": "_intentDeclaration",
          "type": "string"
        }
      ],
      "name": "setIntentDeclaration",
      "outputs": [],
      "stateMutability": "nonpayable",
      "type": "function"
    },
    {
      "inputs": [
        {
          "internalType": "string",
          "name": "_legalReference",
          "type": "string"
        }
      ],
      "name": "setLegalReference",
      "outputs": [],
      "stateMutability": "nonpayable",
      "type": "function"
    },
    {
      "inputs": [
        {
          "internalType": "string",
          "name": "_name",
          "type": "string"
        }
      ],
      "name": "setName",
      "outputs": [],
      "stateMutability": "nonpayable",
      "type": "function"
    },
    {
      "inputs": [
        {
          "internalType": "bytes32",
          "name": "a",
          "type": "bytes32"
        }
      ],
      "name": "testHashFunc",
      "outputs": [
        {
          "internalType": "bytes32",
          "name": "",
          "type": "bytes32"
        }
      ],
      "stateMutability": "pure",
      "type": "function"
    },
    {
      "inputs": [
        {
          "internalType": "address",
          "name": "newOwner",
          "type": "address"
        }
      ],
      "name": "transferOwnership",
      "outputs": [],
      "stateMutability": "nonpayable",
      "type": "function"
    },
    {
      "inputs": [
        {
          "internalType": "bytes32[]",
          "name": "proof",
          "type": "bytes32[]"
        },
        {
          "internalType": "bytes32",
          "name": "root",
          "type": "bytes32"
        },
        {
          "internalType": "bytes32",
          "name": "leaf",
          "type": "bytes32"
        }
      ],
      "name": "verify",
      "outputs": [
        {
          "internalType": "bool",
          "name": "",
          "type": "bool"
        }
      ],
      "stateMutability": "view",
      "type": "function"
    }
  ],
  "bytecode": "0x608060405234801561001057600080fd5b50611f79806100206000396000f3fe608060405234801561001057600080fd5b50600436106102745760003560e01c8063715018a611610151578063b75c7dc6116100c3578063d5fb36c511610087578063d5fb36c514610560578063df8debed14610580578063eb5face714610593578063f2fde38b1461059b578063f437bc59146105ae578063ff060fbd146105b657600080fd5b8063b75c7dc614610501578063bf40b90414610514578063c47f002714610527578063d31a57d61461053a578063d5e9b3771461054d57600080fd5b80638da5cb5b116101155780638da5cb5b1461049b5780638e32e421146104ac5780639dd516a5146104b5578063a0f3a321146104c8578063a5ab89ff146104db578063a92abe37146104ee57600080fd5b8063715018a61461045b5780637d1feb6f146104635780637e79e8ba1461046b578063820e93f5146104735780638bc36c911461047b57600080fd5b80633d4a3eb0116101ea5780635e9057b5116101ae5780635e9057b5146103fd5780636ae08ffa146104105780636c6071aa146104185780636db2feb21461042d5780636df38d6714610440578063707c21ac1461045357600080fd5b80633d4a3eb01461038f5780634294857f146103a25780634ada8076146103c45780635a9a49c7146103d75780635a9e03ca146103ea57600080fd5b806320bc44251161023c57806320bc442514610324578063282b065a1461032c5780632dc974d81461034157806333358d2d14610354578063339b6b391461037457806338f186c21461038757600080fd5b806306fdde0314610279578063156e4b0214610297578063163aa631146102d857806316f5f7d41461030a57806317d7de7c1461031c575b600080fd5b6102816105c9565b60405161028e9190611c95565b60405180910390f35b6102c06102a5366004611988565b6070602052600090815260409020546001600160a01b031681565b6040516001600160a01b03909116815260200161028e565b6102fa6102e6366004611988565b6000908152606d6020526040902054151590565b604051901515815260200161028e565b606a545b60405190815260200161028e565b610281610657565b6102816106e9565b61033f61033a3660046119c3565b6106f8565b005b61033f61034f3660046119c3565b6107d1565b61030e610362366004611988565b606d6020526000908152604090205481565b6102fa6103823660046119a1565b61082d565b61028161085f565b61033f61039d3660046119c3565b61086e565b6102fa6103b0366004611988565b6000908152606e6020526040902054151590565b61033f6103d236600461183e565b6108ca565b6102fa6103e536600461193b565b61090e565b6102fa6103f83660046119a1565b6109c2565b61033f61040b3660046119f7565b6109f0565b610281610c30565b610420610c3d565b60405161028e9190611c04565b6102fa61043b366004611988565b610c9e565b6102fa61044e366004611785565b610d01565b610281610d6a565b61033f610d77565b61033f610d8b565b610281610e25565b610281610e34565b61030e610489366004611988565b606e6020526000908152604090205481565b6033546001600160a01b03166102c0565b61030e606a5481565b61033f6104c336600461187a565b610e41565b61030e6104d6366004611988565b610ea0565b61033f6104e93660046119c3565b610ee1565b61033f6104fc3660046119a1565b610f3d565b61033f61050f366004611988565b61105a565b61030e610522366004611988565b6110fc565b61033f6105353660046119c3565b61113d565b61033f6105483660046117a0565b611199565b61030e61055b366004611988565b6112cf565b61030e61056e366004611988565b606f6020526000908152604090205481565b61033f61058e366004611988565b611301565b6102816113b1565b61033f6105a9366004611785565b6113c0565b610281611439565b6102c06105c4366004611988565b611446565b606580546105d690611ea3565b80601f016020809104026020016040519081016040528092919081815260200182805461060290611ea3565b801561064f5780601f106106245761010080835404028352916020019161064f565b820191906000526020600020905b81548152906001019060200180831161063257829003601f168201915b505050505081565b60606065805461066690611ea3565b80601f016020809104026020016040519081016040528092919081815260200182805461069290611ea3565b80156106df5780601f106106b4576101008083540402835291602001916106df565b820191906000526020600020905b8154815290600101906020018083116106c257829003601f168201915b5050505050905090565b60606069805461066690611ea3565b610700611470565b42606a541161070e57600080fd5b80516107219060669060208401906115ef565b50606b546040516368c35c4b60e01b81526001600160a01b03909116906368c35c4b906107549030908590600401611be0565b600060405180830381600087803b15801561076e57600080fd5b505af1158015610782573d6000803e3d6000fd5b505050507f8f522cc919845bf58b76c472a942579ff9d850d67559315c54848c31e0fc251560656066606760686069606a546040516107c696959493929190611ca8565b60405180910390a150565b6107d9611470565b42606a54116107e757600080fd5b80516107fa9060679060208401906115ef565b50606b54604051636ac012d560e01b81526001600160a01b0390911690636ac012d5906107549030908590600401611be0565b6000828152606e6020526040812054821080159061085857506000838152606e602052604090205415155b9392505050565b60606067805461066690611ea3565b610876611470565b42606a541161088457600080fd5b80516108979060689060208401906115ef565b50606b5460405163db7cd7fb60e01b81526001600160a01b039091169063db7cd7fb906107549030908590600401611be0565b60005b815181101561090a576108f88282815181106108eb576108eb611f17565b602002602001015161105a565b8061090281611ed8565b9150506108cd565b5050565b6000828152606d602052604081205483906109445760405162461bcd60e51b815260040161093b90611d1d565b60405180910390fd5b6000848152606e60205260409020548490156109725760405162461bcd60e51b815260040161093b90611d6e565b42606a541161098057600080fd5b61098985610c9e565b1561099357600080fd5b6000848152606e6020526040902054156109ac57600080fd5b846109b787866114ca565b149695505050505050565b6000828152606d6020526040812054158015906108585750506000918252606d602052604090912054111590565b600054610100900460ff1615808015610a105750600054600160ff909116105b80610a2a5750303b158015610a2a575060005460ff166001145b610a8d5760405162461bcd60e51b815260206004820152602e60248201527f496e697469616c697a61626c653a20636f6e747261637420697320616c72656160448201526d191e481a5b9a5d1a585b1a5e995960921b606482015260840161093b565b6000805460ff191660011790558015610ab0576000805461ff0019166101001790555b428411610aff5760405162461bcd60e51b815260206004820152601e60248201527f4572726f723a2065787069726564206461746520686173207061737365640000604482015260640161093b565b610b0761153e565b610b10836113c0565b606c80546001810182556000919091527f2b4a51ab505fc96a0952efda2ba61bcd3078d4c02c39a186ec16f21883fbe0160180546001600160a01b0319166001600160a01b0385161790558851610b6e9060659060208c01906115ef565b508751610b829060669060208b01906115ef565b508651610b969060679060208a01906115ef565b508551610baa9060689060208901906115ef565b508451610bbe9060699060208801906115ef565b50606b80546001600160a01b0319166001600160a01b038416179055606a8490558015610c25576000805461ff0019169055604051600181527f7f26b83ff96e1f2b6a682f133852f6798a09c465da95921460cefb38474024989060200160405180910390a15b505050505050505050565b606780546105d690611ea3565b6060606c8054806020026020016040519081016040528092919081815260200182805480156106df57602002820191906000526020600020905b81546001600160a01b03168152600190910190602001808311610c77575050505050905090565b6000818152606d60205260408120548290610ccb5760405162461bcd60e51b815260040161093b90611d1d565b6000838152606f602052604090205415610cf5576000838152606f60205260409020544211610cf8565b60005b91505b50919050565b600080805b606c54811015610d6357836001600160a01b0316606c8281548110610d2d57610d2d611f17565b6000918252602090912001546001600160a01b03161415610d515760019150610d63565b80610d5b81611ed8565b915050610d06565b5092915050565b606880546105d690611ea3565b610d7f611470565b610d89600061156d565b565b610d93611470565b42606a5411610da157600080fd5b606c5415610de157606c805480610dba57610dba611f01565b600082815260209020810160001990810180546001600160a01b0319169055019055610da1565b306001600160a01b03167f5769cad5059d53ecd481a846d8fb5a548688f2858fc2d53bdf1d79c7ab2be1bb606c604051610e1b9190611c51565b60405180910390a2565b60606066805461066690611ea3565b606680546105d690611ea3565b60005b8251811015610e9b57610e89838281518110610e6257610e62611f17565b6020026020010151838381518110610e7c57610e7c611f17565b6020026020010151610f3d565b80610e9381611ed8565b915050610e44565b505050565b6000818152606d60205260408120548290610ecd5760405162461bcd60e51b815260040161093b90611d1d565b50506000908152606f602052604090205490565b610ee9611470565b42606a5411610ef757600080fd5b8051610f0a9060699060208401906115ef565b50606b5460405163cf1bfe0560e01b81526001600160a01b039091169063cf1bfe05906107549030908590600401611be0565b610f4633610d01565b1515600114610f675760405162461bcd60e51b815260040161093b90611db5565b6000828152606d6020526040902054829015610feb5760405162461bcd60e51b815260206004820152603a60248201527f4572726f723a204f6e6c792068617368657320746861742068617665206e6f7460448201527f206265656e206973737565642063616e20626520697373756564000000000000606482015260840161093b565b42606a5411610ff957600080fd5b6000838152606d60209081526040808320439055606f8252808320859055607090915280822080546001600160a01b031916331790555184917f01a1249f2caa0445b8391e02413d26f0d409dabe5330cd1d04d3d0801fc42db391a2505050565b61106333610d01565b15156001146110845760405162461bcd60e51b815260040161093b90611db5565b6000818152606e60205260409020548190156110b25760405162461bcd60e51b815260040161093b90611d6e565b42606a54116110c057600080fd5b6000828152606e60205260408082204390555183917f7283b5ab9758f7fba773279e4fd50ea7b136bd1d8371dcae9c5ce529c55343d791a25050565b6000818152606d602052604081205482906111295760405162461bcd60e51b815260040161093b90611d1d565b50506000908152606d602052604090205490565b611145611470565b42606a541161115357600080fd5b80516111669060659060208401906115ef565b50606b54604051630c4876c760e21b81526001600160a01b0390911690633121db1c906107549030908590600401611be0565b6111a1611470565b42606a54116111af57600080fd5b606c54156111ef57606c8054806111c8576111c8611f01565b600082815260209020810160001990810180546001600160a01b03191690550190556111af565b60005b81518110156112895761121d82828151811061121057611210611f17565b6020026020010151610d01565b1561122757611277565b606c82828151811061123b5761123b611f17565b60209081029190910181015182546001810184556000938452919092200180546001600160a01b0319166001600160a01b039092169190911790555b8061128181611ed8565b9150506111f2565b50306001600160a01b03167f5769cad5059d53ecd481a846d8fb5a548688f2858fc2d53bdf1d79c7ab2be1bb606c6040516112c49190611c51565b60405180910390a250565b6000816040516020016112e491815260200190565b604051602081830303815290604052805190602001209050919050565b611309611470565b606b54604051631ff0612160e21b8152306004820152602481018390526001600160a01b0390911690637fc1848490604401600060405180830381600087803b15801561135557600080fd5b505af1158015611369573d6000803e3d6000fd5b505050606a829055506040517f8f522cc919845bf58b76c472a942579ff9d850d67559315c54848c31e0fc2515906107c6906065906066906067906068906069908890611ca8565b60606068805461066690611ea3565b6113c8611470565b6001600160a01b03811661142d5760405162461bcd60e51b815260206004820152602660248201527f4f776e61626c653a206e6577206f776e657220697320746865207a65726f206160448201526564647265737360d01b606482015260840161093b565b6114368161156d565b50565b606980546105d690611ea3565b606c818154811061145657600080fd5b6000918252602090912001546001600160a01b0316905081565b6033546001600160a01b03163314610d895760405162461bcd60e51b815260206004820181905260248201527f4f776e61626c653a2063616c6c6572206973206e6f7420746865206f776e6572604482015260640161093b565b600081815b84518110156115365760008582815181106114ec576114ec611f17565b602002602001015190508083116115125760008381526020829052604090209250611523565b600081815260208490526040902092505b508061152e81611ed8565b9150506114cf565b509392505050565b600054610100900460ff166115655760405162461bcd60e51b815260040161093b90611e05565b610d896115bf565b603380546001600160a01b038381166001600160a01b0319831681179093556040519116919082907f8be0079c531659141344cd1fd0a4f28419497f9722a3daafe3b4186f6b6457e090600090a35050565b600054610100900460ff166115e65760405162461bcd60e51b815260040161093b90611e05565b610d893361156d565b8280546115fb90611ea3565b90600052602060002090601f01602090048101928261161d5760008555611663565b82601f1061163657805160ff1916838001178555611663565b82800160010185558215611663579182015b82811115611663578251825591602001919060010190611648565b5061166f929150611673565b5090565b5b8082111561166f5760008155600101611674565b80356001600160a01b038116811461169f57600080fd5b919050565b600082601f8301126116b557600080fd5b813560206116ca6116c583611e80565b611e50565b80838252828201915082860187848660051b89010111156116ea57600080fd5b60005b85811015611709578135845292840192908401906001016116ed565b5090979650505050505050565b600082601f83011261172757600080fd5b81356001600160401b0381111561174057611740611f2d565b611753601f8201601f1916602001611e50565b81815284602083860101111561176857600080fd5b816020850160208301376000918101602001919091529392505050565b60006020828403121561179757600080fd5b61085882611688565b600060208083850312156117b357600080fd5b82356001600160401b038111156117c957600080fd5b8301601f810185136117da57600080fd5b80356117e86116c582611e80565b80828252848201915084840188868560051b870101111561180857600080fd5b600094505b838510156118325761181e81611688565b83526001949094019391850191850161180d565b50979650505050505050565b60006020828403121561185057600080fd5b81356001600160401b0381111561186657600080fd5b611872848285016116a4565b949350505050565b6000806040838503121561188d57600080fd5b82356001600160401b03808211156118a457600080fd5b6118b0868387016116a4565b93506020915081850135818111156118c757600080fd5b85019050601f810186136118da57600080fd5b80356118e86116c582611e80565b80828252848201915084840189868560051b870101111561190857600080fd5b600094505b8385101561192b57803583526001949094019391850191850161190d565b5080955050505050509250929050565b60008060006060848603121561195057600080fd5b83356001600160401b0381111561196657600080fd5b611972868287016116a4565b9660208601359650604090950135949350505050565b60006020828403121561199a57600080fd5b5035919050565b600080604083850312156119b457600080fd5b50508035926020909101359150565b6000602082840312156119d557600080fd5b81356001600160401b038111156119eb57600080fd5b61187284828501611716565b600080600080600080600080610100898b031215611a1457600080fd5b88356001600160401b0380821115611a2b57600080fd5b611a378c838d01611716565b995060208b0135915080821115611a4d57600080fd5b611a598c838d01611716565b985060408b0135915080821115611a6f57600080fd5b611a7b8c838d01611716565b975060608b0135915080821115611a9157600080fd5b611a9d8c838d01611716565b965060808b0135915080821115611ab357600080fd5b50611ac08b828c01611716565b94505060a08901359250611ad660c08a01611688565b9150611ae460e08a01611688565b90509295985092959890939650565b6000815180845260005b81811015611b1957602081850181015186830182015201611afd565b81811115611b2b576000602083870101525b50601f01601f19169290920160200192915050565b8054600090600181811c9080831680611b5a57607f831692505b6020808410821415611b7c57634e487b7160e01b600052602260045260246000fd5b83885260208801828015611b975760018114611ba857611bd3565b60ff19871682528282019750611bd3565b60008981526020902060005b87811015611bcd57815484820152908601908401611bb4565b83019850505b5050505050505092915050565b6001600160a01b038316815260406020820181905260009061187290830184611af3565b6020808252825182820181905260009190848201906040850190845b81811015611c455783516001600160a01b031683529284019291840191600101611c20565b50909695505050505050565b6020808252825482820181905260008481528281209092916040850190845b81811015611c455783546001600160a01b031683526001938401939285019201611c70565b6020815260006108586020830184611af3565b60c081526000611cbb60c0830189611b40565b8281036020840152611ccd8189611b40565b90508281036040840152611ce18188611b40565b90508281036060840152611cf58187611b40565b90508281036080840152611d098186611b40565b9150508260a0830152979650505050505050565b60208082526031908201527f4572726f723a204f6e6c792069737375656420646f63756d656e742068617368604082015270195cc818d85b881899481c995d9bdad959607a1b606082015260800190565b60208082526027908201527f4572726f723a204861736820686173206265656e207265766f6b65642070726560408201526676696f75736c7960c81b606082015260800190565b60208082526030908201527f4572726f723a204f6e6c79205075626c69736865722063616e207265766f6b6560408201526f2f697373756520646f63756d656e747360801b606082015260800190565b6020808252602b908201527f496e697469616c697a61626c653a20636f6e7472616374206973206e6f74206960408201526a6e697469616c697a696e6760a81b606082015260800190565b604051601f8201601f191681016001600160401b0381118282101715611e7857611e78611f2d565b604052919050565b60006001600160401b03821115611e9957611e99611f2d565b5060051b60200190565b600181811c90821680611eb757607f821691505b60208210811415610cfb57634e487b7160e01b600052602260045260246000fd5b6000600019821415611efa57634e487b7160e01b600052601160045260246000fd5b5060010190565b634e487b7160e01b600052603160045260246000fd5b634e487b7160e01b600052603260045260246000fd5b634e487b7160e01b600052604160045260246000fdfea2646970667358221220a9e2af612df55afa17fb8cd7f541d91dae084229466f9583ddd9eb1fce10db4464736f6c63430008050033",
  "linkReferences": {},
  "deployedLinkReferences": {}
}